:020000040800F2
:10000000B00C002025030008315100084D1F0008E6
:100010002D5100088D170008FD5400080000000055
:10002000000000000000000000000000F152000885
:100030002518000800000000A1510008F552000832
:100040003F0300083F0300083F0300083F03000888
:100050003F0300083F0300083F0300083F03000878
:100060003F0300083F0300083F030008DD170008B6
:10007000E1170008E5170008E9170008ED17000868
:100080003F0300083F0300083F0300083F03000848
:100090003F0300083F0300083F0300083F03000838
:1000A0003F0300083F0300083F0300083F03000828
:1000B0003F0300083F0300083F0300083F03000818
:1000C0003F0300083F0300083F0300083F03000808
:1000D0003F030008F15300083F0300083F030008F6
:1000E0003F0300083F0300083F0300083F030008E8
:1000F0003F0300083F0300083F0300083F030008D8
:100100003F0300083F0300083F0300083F030008C7
:10011000E1530008E95300083F0300083F030008CB
:100120003F0300083F0300083F0300083F030008A7
:100130003F0300083F0300083F0300083F03000897
:100140003F0300083F0300083F0300083F03000887
:100150003F0300083F0300083F0300083F03000877
:100160003F0300083F0300083F0300083F03000867
:100170003F0300083F0300083F0300083F03000857
:100180003F0300083F0300083F0300083F03000847
:100190003F030008000000003F0300083F03000881
:1001A0003F0300083F0300083F0300083F03000827
:1001B0003F0300083F0300083F0300083F03000817
:1001C0003F0300083F0300083F0300083F03000807
:1001D0003F0300083F03000800F002F800F092F827
:1001E0000AA090E8000C82448344AAF10107DA4592
:1001F00001D100F087F8AFF2090EBAE80F0013F052
:10020000010F18BFFB1A43F0010318475075000097
:1002100070750000103A24BF78C878C1FAD8520728
:1002200024BF30C830C144BF04680C607047000070
:100230000023002400250026103A28BF78C1FBD8EF
:10024000520728BF30C148BF0B6070476E2900F0CD
:100250003981702900F06F82662906F0D087652900
:1002600006F0CD87672906F0CA87612906F0C9879D
:1002700003681B0A28BF41F08001692900F0E6806D
:10028000642900F0E380752900F0E0806F2900F018
:10029000FD81782900F03B82E92900F09781E4296B
:1002A00000F09481F52900F09181EF2900F0FA81A6
:1002B000F82900F03A820368DB0928BF41F0800189
:1002C000632900F05387732900F05887E32900F071
:1002D0006387F32900F06887002070471FB506F098
:1002E00081FF00F0BBFF04000020002106F064FF46
:1002F000401C60600020002106F048FFE0601FBD48
:1003000010B510BD00F07CFF1146FFF7E7FF05F0C8
:100310008DFF01F059F803B4FFF7F2FF03BC05F0BD
:1003200063F900000948804709480047FEE7FEE7F7
:10033000FEE7FEE7FEE7FEE7FEE7FEE7FEE7FEE795
:1003400004480549054A064B70470000CD53000894
:10035000D9010008B0060020B00C0020B008002031
:10036000B0080020704700000FB4044910B503AA7C
:10037000029800F0BBF810BC5DF814FB2C040020C0
:10038000704770477047704770B5044685690068CC
:10039000C10601D5302600E02026C00707D070BD79
:1003A000D4E9012130469047206A401C20626D1E2E
:1003B000F6D570BD70B5044685690078C00707D1D1
:1003C00070BDD4E9012120209047206A401C2062A2
:1003D0006D1EF6D570BD09684A0501D540B270475B
:1003E000C905FCD500B2704709684A0501D5C0B2FD
:1003F0007047C905FCD580B2704770B50C460546FC
:10040000012A05D02878800600D5EA69002302E099
:10041000012305E05B1C934202D2E05C0028F9D185
:10042000A869E618C01AA861286A184428622846F4
:10043000FFF7AAFF04E0D5E9012114F8010B90476A
:10044000B442F8D32846FFF7B5FF70BD2DE9F0415F
:100450000646002410687529314616A510D0FFF70E
:10046000BAFF002802DA404213A507E031688A0784
:1004700001D512A502E0490704D511A5012401E028
:10048000FFF7B2FF00210A2206F1240709E0B0FBC2
:10049000F2FCB0FBF2F302FB1C003030785418463B
:1004A000491C0028F3D123462A463046BDE8F041D6
:1004B00000F055BA000000002D0000002B000000E5
:1004C0002000000011680268006A530501D5087019
:1004D0000AE0D30501D5088006E0130603D5C2174C
:1004E000C1E9000200E0086001207047074B70B5C9
:1004F0000D467B4400F01DFE0446284600F058FEE1
:1005000010B14FF0FF3070BD204670BD1B58000089
:100510002DE9FF5F15468A460446DFF8AC80F844B3
:100520000027D8E900103E46CDE9001010E03AF867
:1005300016106A4602A800F03FFE411C07D0217841
:10054000890603D5E269391891420DD80744761C13
:100550002078800602D5E069B84205DDAE42E6DBD0
:100560003AF816000028E2D1A069C01BA06120461D
:10057000FFF70AFFD8E90010CDE90010002017E0CE
:100580003AF818106A4602A800F016FEB0F1FF3FD4
:1005900081460BD000250DF1080B05E0D4E90121BF
:1005A0001BF8050090476D1C4D45F7D308F101007D
:1005B000B0428046E4DB206A384420622046FFF7E0
:1005C000F9FEBDE8FF9F0000E66C00002DE9F04158
:1005D0008046D21D22F007020025D2E90002F5294B
:1005E00015A614D0011E72F1000106DA0023D0EB2B
:1005F000030063EB020211A608E0D8F800108B0795
:1006000001D50FA602E0490701D50EA60125114626
:10061000002408F1240704E000F05CF930323A5578
:10062000641C50EA0102F7D12B463246214640466F
:10063000BDE8F04100F093B9000000002D0000007B
:100640002B0000002000000030B4002100F1240441
:1006500008E002F00705D208303542EA4372DB08B1
:100660006554491C52EA0305F3D10468002310A223
:10067000250708D504F020040C4304D0C4690123E5
:100680000CA2641EC46130BC00F069B910B5044608
:1006900021461068FFF7A8FE02462046BDE810403C
:1006A0000023D1E7D21D22F00701D1E90023CBE7D7
:1006B0000000000030000000F0B40D46018809057C
:1006C00002D5214C7C4402E01F4C7C440E340021B6
:1006D00000F1240608E002F00F071209E75D42EA84
:1006E00003721B097754491C52EA0307F3D10278BD
:1006F0000023120704D5702D06D009B1022311344E
:100700002246F0BC00F02BB901231034F8E770B595
:1007100004460D4621461068FFF766FE024629464C
:100720002046BDE870400023C6E7D21D22F0070333
:10073000D3E90023C0E70368126843F02003036095
:100740000823C3610023B7E7486B00002DE9F05F81
:10075000894604464FF0000ADFF874B1FB44C0F844
:1007600020A02046E1688847002874D0252806D0BC
:10077000D4E901219047206A401C2062F1E700265D
:100780005F462046E16888472028054607DB312D73
:1007900005D2781910F8200C08B10643F1E7B0072C
:1007A00001D526F00406C4F81CA00027C4F818A040
:1007B0002A2D09D0284606F0E1FC38B304EB87085F
:1007C000303DC8F8185019E059F8041B204604EBD6
:1007D00087029161E1688847012F054618D1E069D9
:1007E000002820DA26F020061DE0D8F8180000EBDB
:1007F000800005EB40003038C8F818002046E1685A
:100800008847054606F0BAFC0028EED1012F0AD031
:100810002E2D08D12046E16888477F1C0546022F0F
:1008200046F02006C4DBA069002803DA404246F007
:100830000106A061F00701D026F010066C2D0BD048
:10084000682D09D04C2D39D06A2D35D0742D35D076
:100850007A2D33D016E038E0E1682F4620468847ED
:10086000B842054609D16C2F26D04FF48060E1686C
:10087000064320468847054604E06C2F1AD04FF403
:10088000807006430DB3A5F14100192802D8203528
:1008900046F400664A462946204626604E46FFF743
:1008A000D5FC80B101280BD0F61D26F0070000F121
:1008B000080956E74020E4E78020D8E70020D6E783
:1008C00006F104094DE7284652E7206ABDE8F09F8B
:1008D000D86A000030B5B0F10A0271F100034FEAA6
:1008E000900E4EEA817EB0EB0E0061EB91014FEA73
:1008F000101E4EEA017E10EB0E0041EB11114FEA83
:10090000102E4EEA016E10EB0E0041EB11214FEA62
:10091000104E4EEA014E10EB0E0041EB1141401813
:1009200041F100014FEAD00040EA41704FEAD101A5
:100930004FEA810444EA907410EB800544EB010413
:100940006D1944EB0404521BA3414FF0000348BF50
:100950000A3200D530BD401C41F1000130BD2DE907
:10096000F0470D4699469246044600F12408016876
:10097000880604D5E06921F01001216000E0012023
:10098000A84201DD471B00E00027A1697A1902EBAC
:100990000900081AA0612078C00602D42046FFF79B
:1009A000F3FC002608E0D4E901211AF8060090477C
:1009B000206A401C761C20624E45F4DB2078C0067D
:1009C0000AD52046FFF7E0FC06E0D4E901213020FB
:1009D0009047206A401C2062381EA7F10107F4DC12
:1009E00007E0D4E9012118F805009047206A401C6F
:1009F0002062281EA5F10105F3DC2046FFF7DAFC92
:100A00002078000602D50220BDE8F0870120FBE730
:100A10002DE9FF4F0C461E464FF0FF378BB0D2E951
:100A20000001DDF860800A908A46C1F30A5505B9D5
:100A30003D46002108464FF00000BAF1000F00F4D7
:100A4000400005DA00EB80004FF4400101EA50005D
:100A50004FEA9059B9F1010F00DDB9460A9850EA02
:100A60004A000ED044F61050A5F2FF3545432F142E
:100A7000B8F1000F1ED07542291E1EDDC9F100021B
:100A80001CE0B8F1010F4FF0000001D0302103E06D
:100A9000F24305E02154401CB042FBDB304600220B
:100AA000002121540B99C1F80880C1E900200FB042
:100AB000BDE8F08FBD1B6D1CDEE74A4600DA6942D7
:100AC00006A800F00FFC06AB93E8070003AB83E831
:100AD000070050460A9905F070FF8DE80700A0F561
:100AE00000501F3800900398002D0ADD42F21F01CC
:100AF0004A460844002303A90390684606F0DAF941
:100B000009E0A0F500504A461F38002303A90390CE
:100B1000684606F0E4F98DE807000004000C03D0F5
:100B20004FF0FF30410800E01046B8F1000F03D04D
:100B30000022009215461EE0751E05D4FFF7CAFE7E
:100B4000303262556D1EF9D5B3460122084302D0FA
:100B500000227F1C04E02078302801D100227F1E73
:100B6000002A099784D01DE0112D07DAFFF7B2FEA5
:100B7000303262556D1C50EA0102F5D1084302D0B3
:100B80000098C8B10EE00021681E05E0235C625C9D
:100B900063542254401E491C8142F7DBAB46A81B1C
:100BA000401E0990002004F80B000B98099AC0F829
:100BB0000880C0E9002B7AE711264FF0000857E7BC
:100BC0002DE9F04F88460446D21D22F0070191B06E
:100BD000D1E90001CDE90A0106F0B8FA02460B9806
:100BE000C00F01D02D2007E02068810701D52B2000
:100BF00002E0202101EAC000032A099001D0072A5F
:100C000005DB03464146204600F02CFB0BE1207833
:100C1000800601D5E06900E00620B8F1650F814645
:100C200006D0B8F1660F18D0B8F1670F70D131E077
:100C30000020B9F1110F009001DB112301E009F14F
:100C400001030AAA01A90CA8FFF7E2FEDDE90C7076
:100C5000002609F10105834647E001204B4600903C
:100C60004FF000470AAA01A90CA8FFF7D1FEDDE961
:100C70000DB00C995D46002610B909F101000D1860
:100C8000B9EB050003D4C0F1FF3609F10105A5EB6E
:100C900009002BE0B9F1010F01DA4FF00109002042
:100CA000B9F1110F0090484601DD112300E0034621
:100CB0000AAA01A90CA8FFF7ABFEDDE90C704D46AE
:100CC00000268346207800070AD4AB4500DA5D464B
:100CD00001A8012D04DD411911F8011C302907D0AC
:100CE0004F4502DA17F1040F04DA012082460FE0C3
:100CF0006D1EEEE7002F02DCED1B3E4403E0781C86
:100D0000A84200DD7D1CB81B00F1010A4FF000472E
:100D10002078000703D4AA4501DB4FF0FF3A0021F9
:100D2000B7F1004F0DF143088DF8431024D0022095
:100D30002B23002F01DA7F422D230A21021EA0F16E
:100D4000010000DC5FB197FBF1FC97FBF1F201FBC6
:100D50001C7C17460CF1300C08F801CDEEE7A8F129
:100D6000010003702188090501D5452100E06521B6
:100D7000A0F1010800F8011C09980FA9A1EB0807D0
:100D8000FF1D00B10120411901EBEA70A16938444F
:100D9000081A401EA0612078C00602D42046FFF742
:100DA000F3FA099828B1D4E901219047206A401C40
:100DB00020622078C00622D52046FFF7E5FA1EE023
:100DC000002E04DBB34502DD01A8805D00E0302089
:100DD000D4E901219047206A401C2062761CAAF1C8
:100DE00001005FEA000A0AD100F038FAC068016821
:100DF000405CD4E901219047206A401C2062281EF3
:100E0000A5F10105DCDC07E0D4E9012118F8010BAC
:100E10009047206A401C2062381EA7F10107F3DCCE
:100E20002046FFF7C7FA032011B041E62DE9F04F45
:100E300004460D46D21D22F0070089B0D0E9009784
:100E40004846394606F082F90246F80F01D02D23B4
:100E500007E02068810701D52B2302E0202101EA69
:100E6000C0038DF820300BB1012000E00020032AE0
:100E7000824601D0072A04DB2946204600F0F2F919
:100E80003FE12078800601D40D2500E0E569C7F335
:100E90000A560D2D49DA00214FEA175B08464FF03C
:100EA0000000002F00F4400007DA00EB80004FF450
:100EB000400100EBD07001EA60008115012901DDDD
:100EC0004FF0FF3100224FEA850CBCF1180F06D31A
:100ED0001346ACF118004FF08052C24003E04FF4CB
:100EE000801323FA0CF30CF10C0CBCF1200F04D38B
:100EF000ACF1200C09FA0CF001E007FA0CF0002923
:100F00004FF0004801DD18B90FE00ED140450CD379
:100F100019EB02095F4121B9404502D19F4329EAFB
:100F20000209BBEB175F00D0761C2088000502D5B4
:100F30007B48784402E07A487844193808AA30237C
:100F400002F80A30037C0AF10101002E0AF1020ABC
:100F500053546A4602DC4FF0300101E04FF031019A
:100F60004FF001088DF8001002D0A6F2FF3603E022
:100F700059EA470100D06B4E002D02DC21780907A9
:100F800004D54FF002082E218DF80110C44600212F
:100F90000BE0C7F303433F01C35C491C6D1E02F81D
:100FA0000830052908F1010801DA002DF1DC0021E3
:100FB0000CE000EB1973491C1B786D1E082902F820
:100FC00008304FEA091908F1010801DA002DF0DCB8
:100FD00021688B0602D516E0A8F10108E04505DD81
:100FE00002EB080313F8013C302BF5D0B8F1000FE9
:100FF00009DD02EB080313F8013C2E2B03D109078E
:1010000001D4A8F10108002D05DD3E2102F80810E9
:101010006D1E08F10108407C002E02F8080008F15E
:10102000010804DA2D20764202F8080002E02B20A5
:1010300002F808000A214FF47A70864208F101088C
:101040000BDB96FBF0F3303302F8083096FBF0F33D
:1010500008F1010800FB136601E0642E0CDB64203C
:1010600096FBF0F3303302F8083096FBF0F308F10A
:10107000010800FB136601E00A2E06DB96FBF1F087
:10108000303002F8080008F1010896FBF1F001FB8E
:101090001060303002F80800A16908F1010808EB7F
:1010A000050202EB0A00081AA0612078C00602D4EB
:1010B0002046FFF769F9216A08AE01EB0A002062B9
:1010C00004E0D4E9012116F8010B9047BAF1010AB6
:1010D000F7D22078C00602D52046FFF755F96E46B4
:1010E00009E016F8010B3E280FD0D4E90121904702
:1010F000206A401C2062B8F10108F2D22046FFF7B6
:1011000059F909B00320BDE8F08F206A2844206215
:1011100003E0D4E90121302090476D1EEBD3F8E7BE
:101120002663000002FCFFFF01694A1C0261087887
:10113000704700B58FB0CDE9013100210591054917
:101140007944CDE9031011466846FFF7FFFA0FB066
:1011500000BD0000E5FFFFFF10B5436913B1AFF319
:10116000008001E0FFF749F9012010BD127800F17D
:1011700024010A7000224A700122EDE711684FF045
:10118000FF32E9E710B5436913B1AFF3008001E026
:10119000FFF7BEF9012010BD128800F124018284FE
:1011A0000022C2840122EDE711684FF0FF32E9E727
:1011B000007B00F0800070472DE9F04116460C4698
:1011C000054600F043F8036893F80101012807D0B1
:1011D000FF2C12D8185D80B101202C70BDE8F08181
:1011E000D3F807013246214603F20713C7182846F1
:1011F000BC46BDE8F041002360474FF0FF30EDE70B
:10120000754600F0EBF8AE4605006946534620F0FF
:101210000700854618B020B5FFF792F8BDE82040DA
:101220004FF000064FF000074FF000084FF0000BA2
:10123000AC46ACE8C009ACE8C009ACE8C009ACE811
:10124000C00921F007018D467047000010B500F07D
:1012500005F8001D10BD00BF615F00000048704729
:10126000480000202DE9F0411F460446032601688E
:10127000072A01F4006004DB08B116A505E016A5F5
:1012800003E008B115A500E015A521F010002060CD
:10129000A069C01EA0610FB1401EA0612046FFF7EB
:1012A00073F84FB1D4E9012138469047206A401CB9
:1012B0002062C01C206206E0206AFAE7D4E901211E
:1012C00015F8010B9047761EF8D22046FFF772F80A
:1012D000BDE8F0814E414E006E616E00494E460001
:1012E000696E66002DE9F047814616468AB035489A
:1012F00078440DC88DE80D0032487844801C03AC5A
:101300000DC884E80D0041F69B300844372190FB5E
:10131000F1F290FBF1F5A5F1800501FB12041B3CF5
:1013200002D56442012000E00020DFF898A080464A
:101330000027FA44AAF1BE0A0EE0E0070AD03246BE
:10134000684607EB470101230AEB810105F0C7FD61
:101350008DE8070064107F1C002CEED1194F7F44EC
:10136000AE3F19E0E80715D007EB04100DF1180A9D
:1013700090E80E008AE80E00C068F04201D198198A
:1013800008903246012306A903A805F0A8FD03AB87
:1013900083E807006D10641C002DE3D14FF00103BA
:1013A00032466946B8F1000F03A802D005F082FD6D
:1013B00001E005F094FDC9E90001C9F808200AB070
:1013C000BDE8F087F85F000010B50446AFF3008079
:1013D0002046BDE81040FEF79EBF00000048704761
:1013E000280000200000000030B44FF0013C50F80D
:1013F000042B51F8043BCCFA52F4D51A20D1FCB995
:1014000050F8042B51F8043BCCFA52F4D51A17D1FA
:10141000B4B950F8042B51F8043BCCFA52F4D51A65
:101420000ED16CB950F8042B51F8043BCCFA52F4AD
:10143000D51A05D1002CDAD030BC4FF0000070472F
:1014400029BAB1FA81F111F01801D1F120008440DC
:10145000F2D1CA40CB4012F0FF0213F0FF0330BCC0
:10146000D01A704780B596B00020C4F202001290E6
:10147000002114912822099201F030F9099A12985A
:1014800001210F9101F02AF9099A12980221109175
:1014900001F024F9099A12980321119101F01EF923
:1014A000099A12980421139101F018F912981499CD
:1014B00001F0EAF80F99129801F0E6F810991298E5
:1014C00001F0E2F81199129801F0DEF812981399E0
:1014D00001F0DAF84FF0A0400A9000F0F3FE40F27D
:1014E0000010C5F200000B9000F0ECFE40F200404E
:1014F000C5F200000C9000F0E5FE40F20050C5F28D
:1015000000000D9000F0DEFE40F20060C5F2000029
:101510000E9000F0D7FE109804F03EFD0A9800F0FF
:10152000DFFE0B9800F0DCFE0C9800F0D9FE0D9861
:1015300000F0D6FE0E9800F0D3FE1298149901F038
:1015400091F80F99129801F08DF81099129801F006
:1015500089F81199129801F085F81298139901F001
:1015600081F814981590FFE71598032814DCFFE71D
:10157000BDF8541040F2FC10C2F2000004F038F83C
:10158000159A40F28C01C2F2000121F81200FFE727
:10159000159801301590E7E700201590FFE71598A2
:1015A000042815DCFFE7BDF8541040F2AC10C2F27D
:1015B000000004F01DF8159A40F28C01C2F20001FF
:1015C00001EB42010881FFE7159801301590E6E72D
:1015D00040F25C10C2F2000000900021029104F081
:1015E00007F80146009840F28C02C2F2000207920E
:1015F00051820121039103F0FBFF079A01460098F5
:1016000091820221049103F0F3FF079A01460098AA
:10161000D1820321059103F0EBFF079A0146009860
:1016200011830421089103F0E3FF0299079A508384
:1016300040F20C10C2F20000019003F0D9FF0399B0
:10164000079B024601989A8303F0D2FF0499079BF7
:1016500002460198DA8303F0CBFF0599079B024607
:1016600001981A8403F0C4FF079B08990246019869
:101670009A8503F0BDFF0299079AD08540F2BC001D
:10168000C2F20000069003F0B3FF0399079B0246E5
:1016900006985A8403F0ACFF0499079B024606980B
:1016A0009A8403F0A5FF0599079B02460698DA8401
:1016B00003F09EFF079B0899024606981A8503F0DF
:1016C00097FF079A0899508540F2FC10C2F200007B
:1016D00003F08EFF40F28801C2F20001088016B0CC
:1016E00080BD000080B584B0039000200290039874
:1016F00000F04CFD002846D1FFE7039800F0DAFC2B
:10170000039800F0FFFC40F20000C2F20000006805
:10171000800942F66351C0F23E51A0FB01108009DE
:1017200000EB800080004CF6CD41CCF6CC41A0FB14
:101730000110C0080290FFE7029820B1FFE702986D
:1017400001380290F8E703987F2100F037FE0A2065
:1017500004F02CFAFFE7039800F010FD08B1FFE752
:10176000F9E71420019004F021FA039800F0AEFC90
:10177000019804F01BFAFFE7039800F0F7FC08B9A2
:10178000FFE7F9E7FFE704B080BD0000FFE7FEE7F1
:1017900080B586B005900491ADF80E20059840689C
:1017A000029000200190FFE70198BDF80E108842DA
:1017B0000BDAFFE7059800F01BF80499019A8854AA
:1017C000FFE7019801300190EEE70598406801902D
:1017D000029805994860019806B080BD70470000E6
:1017E000704700007047000070470000704700001D
:1017F00082B00190019841688068405C8DF80300D8
:10180000019948680130486001994868C968884270
:1018100004DBFFE7019900204860FFE79DF8030023
:1018200002B070477047000082B001908DF803103D
:101830009DF8030001990A6889688854019908682D
:101840000130086001990868C968884204DBFFE735
:10185000019900200860FFE702B0704781B040F2B4
:101860000400C2F20000007F8DF803009DF8030021
:10187000012805D0FFE79DF8030003281FD1FFE7EB
:1018800042F20001C4F20201086820F4007008600E
:10189000FFE742F20001C4F20201086840F4006070
:1018A0000860086820F400600860FFE742F2000169
:1018B000C4F20201086840F400700860FFE79DF878
:1018C0000300022805D0FFE79DF80300032817D185
:1018D000FFE7FFE742F20001C4F20201086840F4AA
:1018E00080500860086820F480500860FFE742F2EA
:1018F0000001C4F20201086840F480600860FFE75C
:1019000040F20401C2F200010020087701B07047E4
:1019100081B0009042F22000C4F202000068400250
:1019200000281ED5FFE79DF80000C00748B1FFE77B
:1019300042F21401C4F20201086840F00400086099
:10194000FFE79DF800008007002809D5FFE742F275
:101950001401C4F20201086840F400400860FFE787
:1019600009E042F21401C4F20201086848F20402DC
:1019700010430860FFE742F21401C4F20201086854
:1019800040F48030086001B07047000082B00190E0
:10199000009142F22000C4F20200006840020028D8
:1019A00009D4FFE742F21401C4F20201086820F4EE
:1019B0000060086017E09DF80000C00748B1FFE72D
:1019C00042F21401C4F20201086820F400600860C9
:1019D00008E042F21401C4F20201086840F4006019
:1019E0000860FFE7FFE742F21401C4F20201086851
:1019F00020F47E709DF8042040EAC2000860086868
:101A000040F002000860086840F48030086002B0CE
:101A10007047000084B003900193009242F21401D9
:101A2000C4F20201086840F00100086000980399C0
:101A30000860BFF36F8F01980399486004B0704746
:101A400089B00590049140208DF80F000598029010
:101A50000498019042F21401C4F20201086840F4B3
:101A600080200860EFF31080069006980090EFF356
:101A7000108072B60790FFE701980068029908602D
:101A80000298043002900198043001909DF80F00F4
:101A900001388DF80F00FFE79DF80F000028EBD10B
:101AA000FFE700980890089880F3108809B0704705
:101AB00080B584B0029000F043FA0190FFE742F253
:101AC0001000C4F202000068C00300280DD5FFE733
:101AD00000F036FA0199401A0299884204D9FFE7CA
:101AE00003208DF80F0058E0E9E742F21000C4F23D
:101AF000020000684CF2FA3108400090009860B390
:101B0000FFE7009A40F20401C2F200014868104366
:101B10004860FFE79DF8030010F0F00F0BD0FFE7DF
:101B2000009800F0704242F21801C4F20201086805
:101B300010430860FFE70098000148B1FFE70098F4
:101B400020F0704042F21001C4F202010860FFE789
:101B5000FFE701208DF80F001FE0012040B9FFE7EB
:101B600042F21800C4F202000068C00740B910E059
:101B700042F21000C4F202000068C00748B1FFE75B
:101B8000FFE742F21001C4F2020101200860FFE702
:101B9000FFE700208DF80F00FFE79DF80F0004B06D
:101BA00080BD000082B000900099086849688842B2
:101BB00006DBFFE7009908684968401A019007E0D2
:101BC000009801684268C068801A08440190FFE7E5
:101BD000019802B07047000080B586B00490039170
:101BE000FFE740F20400C2F200000078012804D1AF
:101BF000FFE702208DF81700BDE040F20401C2F2B9
:101C0000000101200870FFE7FFE74FF47A70FFF74B
:101C10004FFF8DF80B009DF80B00002840F09E80D0
:101C2000FFE740F20401C2F200010020486042F2E6
:101C30000000C4F2020000688005002820D5FFE7FC
:101C400042F20000C4F202000068400500280FD5EF
:101C5000FFE742F20001C4F20201086820F480604C
:101C6000086040F20401C2F200010320087706E098
:101C700040F20401C2F2000101200877FFE71FE0F3
:101C800042F20000C4F202000068400500280FD5AF
:101C9000FFE742F20001C4F20201086820F480600C
:101CA000086040F20401C2F200010220087706E059
:101CB00040F20401C2F2000100200877FFE7FFE7CD
:101CC00004980068012814D1FFE704984068FFF7E2
:101CD0001FFE4FF47A70FFF7EBFE8DF80B0042F217
:101CE0001401C4F20201086848F20402904308603B
:101CF00031E003994FF0FF3008600498806801904C
:101D0000FFE70198049A9168D2681144884221D271
:101D1000FFE7019804994968FFF738FE4FF47A709D
:101D2000FFF7C6FE8DF80B0042F21401C4F2020167
:101D3000086840F2FA32904308609DF80B0020B129
:101D4000FFE701980399086004E0FFE7019801307C
:101D50000190D6E7FFE7FFF781FDFFE7FFE740F2DD
:101D60000401C2F2000100200870FFE79DF80B009B
:101D70008DF81700FFE79DF8170006B080BD000042
:101D800040F20400C2F200004068704781B00120B8
:101D90008DF8030042F21400C4F20200016841F021
:101DA000004101600068C00F20B1FFE700208DF8FE
:101DB0000300FFE79DF8030001B0704780B588B0CD
:101DC000069005910393029200200090FFE740F2F5
:101DD0000400C2F200000078012804D1FFE70220CD
:101DE0008DF81F007BE040F20401C2F200010120E7
:101DF0000870FFE7FFE74FF47A70FFF759FE8DF8A0
:101E000007009DF8070000285CD1FFE740F20401BD
:101E1000C2F200010020486042F20000C4F2020059
:101E20000068400500280FD5FFE742F20001C4F228
:101E30000201086820F48060086040F20401C2F2E8
:101E400000010220087706E040F20401C2F200011E
:101E500000200877FFE7069840B9FFE70598029A47
:101E6000039BFFF7D7FD0120009016E0069801289C
:101E700004D0FFE7069802280DD1FFE705980299E4
:101E8000FFF7DEFD0698022804D1FFE74FF480201B
:101E90000090FFE700E0FFE7FFE74FF47A70FFF7FD
:101EA00007FE8DF80700009848B1FFE7009A42F25C
:101EB0001401C4F20201086890430860FFE7FFF7CD
:101EC000CDFCFFE7FFE740F20401C2F20001002071
:101ED0000870FFE79DF807008DF81F00FFE79DF8E9
:101EE0001F0008B080BD000081B000208DF8030005
:101EF00042F21400C4F202000068C00FD8B1FFE73C
:101F000042F20801C4F2020140F22310C4F2675009
:101F1000086048F6AB10CCF6EF50086042F21400AF
:101F2000C4F202000068C00F20B1FFE701208DF865
:101F30000300FFE7FFE79DF8030001B070470000D2
:101F400040F2A460C2F2000000687047FFE7FEE7BD
:101F500083B002900191009202990020486002999A
:101F6000086001980299886000980299C86003B0DF
:101F70007047000080B588B00790069100208DF86A
:101F800017000698406808B1FFE7FFE7079840F29E
:101F90000031C5F20001884210D1FFE74FF0A040A8
:101FA00000F0FCF8039040F20010C5F2000000F0D1
:101FB000F5F801460398084304901BE040F2004006
:101FC000C5F2000000F0EAF8019040F20050C5F2BE
:101FD000000000F0E3F8014601980843029040F247
:101FE0000060C5F2000000F0D9F8014602980843ED
:101FF0000490FFE7049838BBFFE706984068A8B153
:10200000FFE70798806843F2E001CFF6C07108400F
:10201000069A1168D2F804C09368D26841EA0C01AC
:10202000194311430843079988600CE007988068BA
:1020300043F2E001CFF6C0710840069909680843F1
:1020400007998860FFE703E001208DF81700FFE79C
:102050009DF8170008B080BD84B0039002910298EB
:1020600020B9FFE70398403001901FE00399012059
:10207000B1F1A04F00900BD0FFE703984FF600712D
:10208000CAF6FF710844B0FA80F040090090FFE7FB
:102090000098C10740F20C70C5F2000000291CBF77
:1020A00040F20C30C5F200000190FFE7019804B047
:1020B0007047000081B00090009988684FF6C072A8
:1020C000C5F6FF721040886001B0704781B0009083
:1020D000009880684FF6C071C7F6FF710840013064
:1020E0000099886001B0704781B0009000988068C6
:1020F0004FF6C071C7F6FF71084001300099886043
:1021000001B0704781B000900098806840F0805026
:102110004FF6C071C7F6FF7108400099886001B0A2
:102120007047000080B584B00390029100208DF8C4
:102130000700039800F032F878B9FFE70398C06809
:102140004CF218018843029A116853689268194347
:10215000114308430399C86003E001208DF807008C
:10216000FFE79DF8070004B080BD000081B000903B
:102170000098006800F0010001B0704781B0009045
:1021800000988068C00F01B07047000081B00090D7
:102190000098806800F0010001B0704781B00090A5
:1021A0000098806800F0010001B0704780B584B0ED
:1021B0000390029100208DF807000298406808B152
:1021C000FFE7FFE70398FFF7E9FFC0BBFFE70298CF
:1021D0004068C8B1FFE70398C0684CF21C01CFF615
:1021E000F0710840029A1168D2F808E0D2F80CC0E9
:1021F000136941EA0E0141EA0C0119435269114386
:1022000008430399C86014E00398C0684CF21C01AD
:10221000CFF6F0710840029A1168D2F80CC0136929
:10222000526941EA0C011943114308430399C860FC
:10223000FFE703980299496800F018F803E00120CD
:102240008DF80700FFE79DF8070004B080BD00008F
:1022500082B0019000910198C06820F003000099BD
:1022600008430199C86002B07047000082B0019035
:1022700000910198006B20F00F000099084301992C
:10228000086302B07047000084B00390029101928D
:102290000398029901F4407100EB911030300090E6
:1022A00000980068029901F01F021F2191408843A5
:1022B0000199C1F38461914008430099086004B01A
:1022C0007047000081B00090009880684FF6C071A0
:1022D000C7F6FF71084004300099886001B070476C
:1022E00081B00090009880684FF6C071C7F6FF710A
:1022F000084010300099886001B0704784B00390A6
:10230000029101920398029901F0007100EBD15003
:1023100014300090009800680299C1F3045207211C
:10232000914088430199914008430099086004B0A6
:102330007047000083B00290019100920298D0F89B
:10234000B00001996FF3DF418843009A02F018034F
:102350004FF6FF72C0F20702DA40114008430299BB
:10236000C1F8B00003B0704782B0019000910198AD
:10237000D0F8C00043F6FF718843009908430199E3
:10238000C1F8C0000198006920F48031009A01F57D
:102390008030002A08BF08460199086102B07047E2
:1023A00082B0019000910198006940F20341884396
:1023B000009908430199086102B0704782B001900A
:1023C0000091019880684FF6C071C3F6FF7101401B
:1023D000009800F08040084400F1004001998860B6
:1023E00002B0704782B00190019A41F24800C4F2F5
:1023F00002000168114301600068019908400090E3
:10240000009802B07047000082B00190019A41F23A
:102410004C00C4F202000168114301600068019998
:1024200008400090009802B07047000082B0019010
:10243000019A41F25800C4F20200016811430160A0
:102440000068019908400090009802B070470000B1
:1024500082B00190019A41F26000C4F2020001686A
:10246000114301600068019908400090009802B093
:102470007047000084B00390029101920398029982
:10248000090F00EB8100083000900098006840F6CA
:10249000FF718843019908430099086004B07047B0
:1024A00082B001900091009800F010014FF480700C
:1024B00000FA01F20199C86B9043C86302B07047FB
:1024C00082B001900091009800F01001022000FA03
:1024D00001F2019908689043086002B0704700005B
:1024E00082B001900091009800F01001012000FAE4
:1024F00001F2019908681043086002B070470000BB
:1025000080B584B003900291019200208DF8030001
:102510000198806808B1FFE7FFE70398029900F08F
:102520007FF8002874D1FFE70198806800284BD01D
:10253000FFE701988068C0282FD1FFE70398006863
:10254000029901F01002C0219140884301998968E5
:1025500091400843039908600398006E029901F0C6
:10256000100240F60F719140884301990B68D1F831
:1025700004C06FF0C00101EA8C1141EA930191405F
:102580000843039908660198C0680399029AC2F348
:10259000C01201EB8201886515E00398006802997A
:1025A00001F0100240F6FC7191408843019B1968CC
:1025B000D3F808C0DB6841EA0C0119439140084395
:1025C00003990860FFE70EE003980068029901F0A4
:1025D0001002FC2191408843019909689140084309
:1025E00003990860FFE70398C06B029901F010029D
:1025F000072191408843019B1969D3F814C09B6956
:1026000041EA0C011943914008430399C86303E070
:1026100001208DF80300FFE79DF8030004B080BDA2
:1026200082B00190009101980068009901F01001BA
:10263000C84000F0010002B07047000083B0029073
:10264000019100920298C06B019901F010024FF4C1
:102650000071914088430099914008430299C863F2
:1026600003B0704783B002900191029800900099E6
:10267000019A47F22430C0F60000825C885820F0AE
:102680000100885003B0704783B002900191029816
:1026900000900099019A47F22430C0F60000825C55
:1026A000885840F00100885003B0704784B0039010
:1026B00002910192039800900098029947F21C320F
:1026C000C0F60002515C405820F440500199084384
:1026D0000099029BD25C885004B0704784B003908C
:1026E00002910192039800900098029947F22432D7
:1026F000C0F60002515C084440684FF6FF71884301
:10270000019908430099029BD25C1144486004B0CF
:102710007047000084B003900291019203980090EA
:102720000098029947F21C32C0F60002515C4058F2
:1027300044F210018843019908430099029BD25C3E
:10274000885004B07047000084B003900291019259
:102750000398009001980099029B47F22432C0F63A
:102760000002D25C1144C86004B0704784B003908A
:1027700002910192039800900098029947F21C324E
:10278000C0F60002515C405820F0800001990843D7
:102790000099029BD25C885004B0704784B00390CB
:1027A00002910192039800900098029947F21C321E
:1027B000C0F60002515C405820F440600199084383
:1027C0000099029BD25C885004B0704784B003909B
:1027D00002910192039800900098029947F21C32EE
:1027E000C0F60002515C405820F0200001990843D7
:1027F0000099029BD25C885004B0704784B003906B
:10280000029101920398009001980099029B47F26F
:102810002432C0F60002D25C1144886004B07047D4
:1028200084B003900291019203980090009802995D
:1028300047F21C32C0F60002515C405820F04000C4
:10284000019908430099029BD25C885004B07047FC
:1028500084B003900291019203980021C4F2020116
:1028600041406FF0070000EAD1100090029880000C
:10287000009900EB810040F60002C4F20202805889
:1028800020F0FF000199084302998900009B01EBA9
:102890008301885004B0704784B003900291019284
:1028A000039800900098029947F21C32C0F600028B
:1028B000515C405820F44070019908430099029BF4
:1028C000D25C885004B0704742F20000C4F20200AB
:1028D000006800F00F00704781B0009042F20001E4
:1028E000C4F20201086820F00F00009A104308604B
:1028F00001B0704780B586B00390029102980068DD
:1029000090FAA0F00490049820B9FFE720208DF8F9
:10291000170005E00498B0FA80F08DF81700FFE783
:102920009DF817000190FFE7029800680199C840E0
:1029300000284AD0FFE702980068019A01219140DF
:10294000084000900098E0B3FFE702984068012833
:1029500005D0FFE70298406802280DD1FFE70398F1
:102960000099029A926800F063F90398029A11683C
:10297000D26800F00FF9FFE703980099029A1269F4
:1029800000F018F902984068022813D1FFE7009878
:10299000FF2807D8FFE703980099029A526900F0D0
:1029A00035F806E003980099029A526900F06CF835
:1029B000FFE7FFE703980099029A526800F0ACF82D
:1029C000FFE7019801300190AEE7002006B080BD1E
:1029D00082B0019000910198006900990840401A66
:1029E000B0FA80F0400902B07047000082B0019058
:1029F000009100980199886202B0704782B00190FE
:102A0000009100980199886202B070478AB00590E1
:102A1000049103920598006A0290049890FAA0F03D
:102A20000690069820B9FFE720208DF81F0005E0EA
:102A30000698B0FA80F08DF81F00FFE702989DF825
:102A40001F108A000F219140884300900398019045
:102A5000049890FAA0F00890089820B9FFE7202089
:102A60008DF8270005E00898B0FA80F08DF827006F
:102A7000FFE7009801999DF82720920091400843B4
:102A8000059908620AB070478AB0059004910392D4
:102A90000598406A02900498000A90FAA0F0069007
:102AA000069820B9FFE720208DF81F0005E0069862
:102AB000B0FA80F08DF81F00FFE702989DF81F1014
:102AC0008A000F2191408843009003980190049858
:102AD000000A90FAA0F00890089820B9FFE720209B
:102AE0008DF8270005E00898B0FA80F08DF82700EF
:102AF000FFE7009801999DF8272092009140084334
:102B0000059948620AB0704782B001900091009820
:102B10000199886102B070478AB0059004910392D0
:102B2000059800680290049890FAA0F00690069824
:102B300020B9FFE720208DF81F0005E00698B0FAC5
:102B400080F08DF81F00FFE702989DF81F104A00E3
:102B5000032191408843009003980190049890FAD3
:102B6000A0F00890089820B9FFE720208DF82700F2
:102B700005E00898B0FA80F08DF82700FFE700988C
:102B800001999DF82720520091400843059908605B
:102B90000AB0704783B00290019100920298406899
:102BA00001998843009A514308430299486003B051
:102BB000704700008AB00590049103920598C068A0
:102BC0000290049890FAA0F00690069820B9FFE7CA
:102BD00020208DF81F0005E00698B0FA80F08DF8EF
:102BE0001F00FFE702989DF81F104A000321914043
:102BF0008843009003980190049890FAA0F0089000
:102C0000089820B9FFE720208DF8270005E00898F4
:102C1000B0FA80F08DF82700FFE7009801999DF841
:102C200027205200914008430599C8600AB07047B8
:102C30008AB00590049103920598806802900498E8
:102C400090FAA0F00690069820B9FFE720208DF8B2
:102C50001F0005E00698B0FA80F08DF81F00FFE72E
:102C600002989DF81F104A0003219140884300906C
:102C700003980190049890FAA0F00890089820B961
:102C8000FFE720208DF8270005E00898B0FA80F0D3
:102C90008DF82700FFE7009801999DF82720520042
:102CA00091400843059988600AB0704780B582B0AA
:102CB000019001984FF47A7100F002F802B080BDE3
:102CC00082B00190009101980099B0FBF1F00138B9
:102CD0004EF21401CEF2000108604EF21801CEF25D
:102CE0000001002008604EF21001CEF20001072022
:102CF000086002B07047000047F20801C4F200010A
:102D0000086840F4804008607047000047F2800186
:102D1000C4F20001086820F4807008607047000069
:102D200041F20800C4F20200006800F0F0007047B1
:102D300041F20800C4F20200006800F4E06070474D
:102D400041F20800C4F20200006800F460507047CD
:102D500041F20800C4F20200006800F00C00704765
:102D600041F20800C4F20200006800F00C00704755
:102D700080B584B00390002002900398C0283ED113
:102D8000FFE7039800F084F801460191B0F5400F89
:102D90002BD0FFE701984021C0F2C00188420CD03F
:102DA000FFE701988021C0F2C001884209D0FFE707
:102DB0000198B0F1C01F0FD018E002F031FA029074
:102DC0001CE000F04DF930B1FFE742F20040C0F2E4
:102DD000F4000290FFE711E000F04AF920B1FFE7AC
:102DE0004FF400400290FFE708E0FFE702F018FA16
:102DF00002F0D8F902F0ECF90290FFE7FFE7039840
:102E0000B0F5407F40D1FFE7039800F041F801465C
:102E10000091B0F1407F2DD0FFE7009840F2001103
:102E2000C0F2003188420DD0FFE7009840F2002147
:102E3000C0F20031884209D0FFE70098B0F1032FBB
:102E40000FD018E002F0ECF902901CE000F008F955
:102E500030B1FFE742F20040C0F2F4000290FFE719
:102E600011E000F005F920B1FFE74FF400400290B7
:102E7000FFE708E0FFE702F0D3F902F093F902F070
:102E8000A7F90290FFE7FFE7029804B080BD0000B9
:102E900081B0009041F28800C4F2020000680099FD
:102EA000084040EA014001B07047000080B586B09C
:102EB0000590002004900598032830D1FFE705987D
:102EC00000F0AEF8A0F540300146039103281DD86C
:102ED0000399DFE801F01A02061102F0A1F904904B
:102EE0001CE000F0BDF830B1FFE742F20040C0F254
:102EF000F4000490FFE711E000F0BAF820B1FFE71A
:102F00004FF400400490FFE708E0FFE702F088F983
:102F100002F048F902F070F90490FFE77CE00598B0
:102F20000C2835D1FFE7059800F07AF8A0F540208D
:102F3000014602910C2822D80299DFE801F01F20F7
:102F40002020072020200B202020160002F068F906
:102F500004901CE000F084F830B1FFE742F200403A
:102F6000C0F2F4000490FFE711E000F081F820B116
:102F7000FFE74FF400400490FFE708E0FFE702F0AE
:102F80004FF902F00FF902F023F90490FFE742E055
:102F9000059830283ED1FFE7059800F041F801463A
:102FA0000191B0F5401F2BD0FFE701981021C0F22E
:102FB000300188420CD0FFE701982021C0F2300197
:102FC000884209D0FFE70198B0F1301F0FD018E018
:102FD00002F026F904901CE000F042F830B1FFE75F
:102FE00042F20040C0F2F4000490FFE711E000F06C
:102FF0003FF820B1FFE74FF400400490FFE708E0FE
:10300000FFE702F00DF902F0CDF802F0E1F80490CC
:10301000FFE7FFE7FFE7FFE7049806B080BD000089
:1030200081B0009041F28800C4F20200006800996B
:10303000084040EA014001B07047000041F2000141
:10304000C4F20201086840F4803008607047000054
:1030500041F20000C4F202000068C0F34040704733
:1030600041F20000C4F202000068C0F38020704703
:1030700041F29000C4F202000068C0F340007047C3
:1030800041F29401C4F20201086840F001000860B6
:103090007047000041F29400C4F202000068C0F3DF
:1030A0004000704784B0039002910192009341F276
:1030B0000C01C4F20201086848F20C02CFF6FF12BC
:1030C0001040039A029B1A43019B42EA0322009B91
:1030D0001A431043086004B07047000041F2000139
:1030E000C4F20201086840F0807008607047000078
:1030F00041F20C01C4F20201086840F080700860DF
:103100007047000041F20C00C4F20200006800F0B9
:10311000F000704741F20C00C4F20200006800F0B9
:103120000300704741F20C00C4F202000068C0F3D3
:103130000620704741F20C00C4F20200006800F063
:10314000C060704741F20000C4F202000068C0F3A2
:103150004060704781B0009041F28801C4F20201E2
:103160000868009AC2F304434FF0030C0CFA03FC06
:1031700020EA0C00D2B29A401043086001B07047B8
:1031800081B0009041F20801C4F20201086820F009
:10319000F000009A1043086001B0704781B00090C1
:1031A00041F20801C4F20201086820F4E060009ACC
:1031B0001043086001B0704781B0009041F20801EF
:1031C000C4F20201086820F46050009A10430860BD
:1031D00001B0704781B0009041F20801C4F20201D1
:1031E000086820F00300009A1043086001B070479F
:1031F00081B0009041F28801C4F202010868009A8F
:1032000020EA124092B21043086001B070470000FB
:1032100081B0009041F28801C4F202010868009A6E
:1032200020EA124092B21043086001B070470000DB
:1032300081B00090009840F20001C2F200010860E5
:1032400001B0704781B0009000996FF001000861F3
:1032500001B0704781B000900099086820F08000AC
:10326000086001B07047000081B0009000990868C4
:1032700020F00100086001B07047000081B00090AC
:103280000099886820F08000886001B070470000D5
:1032900081B000900099086840F00100086001B01A
:1032A0007047000081B000900099486940F001002B
:1032B000486101B07047000080B584B0039002916E
:1032C000039800680190039842F60041C4F201019E
:1032D00088422DD0FFE70398B0F1804F28D0FFE758
:1032E000039840F20041C4F20001884220D0FFE779
:1032F000039840F60001C4F20001884218D0FFE7AD
:10330000039840F60041C4F20001884210D0FFE764
:10331000039843F20041C4F20101884208D0FFE75C
:10332000039845F20001C4F20101884208D1FFE789
:10333000019820F070000299496808430190FFE766
:10334000039842F60041C4F20101884245D0FFE7EC
:103350000398B0F1804F40D0FFE7039840F200415E
:10336000C4F20001884238D0FFE7039840F600011C
:10337000C4F20001884230D0FFE7039840F60041D4
:10338000C4F20001884228D0FFE7039843F20041CD
:10339000C4F20101884220D0FFE7039844F2000103
:1033A000C4F20101884218D0FFE7039844F20041BB
:1033B000C4F20101884210D0FFE7039844F60001EF
:1033C000C4F20101884208D0FFE7039845F20001EA
:1033D000C4F20101884208D1FFE7019820F440704F
:1033E0000299C96808430190FFE7019803990860B2
:1033F00003980299896800F049F8039802990988AE
:1034000000F064F8039842F60041C4F201018842DA
:1034100028D0FFE7039843F20041C4F2010188423B
:1034200020D0FFE7039844F20001C4F20101884272
:1034300018D0FFE7039844F20041C4F2010188422A
:1034400010D0FFE7039844F60001C4F2010188425E
:1034500008D0FFE7039845F20001C4F20101884259
:1034600006D1FFE703980299096900F037F8FFE7F2
:103470000398FFF717FF002004B080BD81B00090D3
:103480000098006900F0010001B0704782B001901F
:10349000009100980199C86202B0704782B0019013
:1034A0000091019880684BF6F871CFF6FE710840E4
:1034B000009908430199886002B0704782B001907A
:1034C000009100980199486202B0704782B0019063
:1034D000009100980199886202B0704782B0019013
:1034E000009100980199086302B0704782B0019082
:1034F0000091019840684FF68F71CFF6FF51084058
:10350000009908430199486002B0704782B0019069
:1035100000910198406820F47000009908430199D7
:10352000486002B07047000081B000900099102000
:10353000086201B07047000081B0009000994868AF
:1035400020F4904048600099886820F02A00886044
:1035500001B0704781B000900099086820F00050D9
:10356000086001B07047000082B00190FFE7FFE7FC
:10357000019850E8000F20F010000090FFE700993C
:10358000019A42E800100028F2D1FFE7FFE702B0FD
:103590007047000082B00190FFE7FFE7019850E814
:1035A000000F20F080000090FFE70099019A42E8A8
:1035B00000100028F2D1FFE7FFE702B070470000DB
:1035C00081B000900099086840F00100086001B0E7
:1035D0007047000082B00190FFE7FFE7019850E8D4
:1035E000000F40F010000090FFE70099019A42E8B8
:1035F00000100028F2D1FFE7FFE702B0704700009B
:1036000082B00190FFE7FFE7019850E8000F40F01B
:1036100020000090FFE70099019A42E8001000287E
:10362000F2D1FFE7FFE702B07047000082B00190DF
:10363000FFE7FFE7019850E8000F40F0800000909E
:10364000FFE70099019A42E800100028F2D1FFE755
:10365000FFE702B07047000082B00190FFE7FFE78C
:10366000019850E8000F40F080000090FFE70099BB
:10367000019A42E800100028F2D1FFE7FFE702B00C
:103680007047000080B586B00590049101208DF848
:103690000F0000200290059800F0B2F8002840F0DA
:1036A0008380FFE70598006846F6F311CEF6FF71B8
:1036B0000840049A9168D2F810C05369D26941EA6F
:1036C0000C011943114308430599086005980499B2
:1036D000C96800F02BF905980499896900F0F0F8A1
:1036E000059843F60001C4F20101884205D1FFE7C5
:1036F0000320FFF7DBFB029039E0059844F200411C
:10370000C4F20001884205D1FFE70C20FFF7CEFB91
:1037100002902BE0059844F60001C4F200018842B3
:1037200005D1FFE73020FFF7C1FB02901DE00598AF
:1037300044F60041C4F20001884205D1FFE7C020F1
:10374000FFF716FB02900FE0059845F20001C4F266
:103750000001884206D1FFE74FF44070FFF708FBF5
:10376000029000E0FFE7FFE7FFE7FFE7FFE70298CF
:10377000A0B1FFE70498406880B1FFE700208DF812
:103780000F0005980299049B1A68D3F804C0DB69FE
:10379000EE46CEF800C000F043F8FFE70598049924
:1037A000096800F09BF8FFE79DF80F0006B080BDA8
:1037B00081B000900098C069C0F3001001B070475C
:1037C00081B000900098C069C0F3805001B070478C
:1037D00081B000900098C069C0F3401001B07047FC
:1037E00081B000900098C069C0F3405001B07047AC
:1037F00081B000900098C069C0B2C00901B07047A4
:1038000081B000900098006800F0010001B070479E
:1038100081B000900098406AC0B201B070470000CB
:1038200086B0DDF818C005900491039202930398C6
:103830000C2801D3FFE741E0069808B9FFE73CE018
:103840000298B0F5004F23D1FFE704989DF80C20B3
:1038500047F22C31C0F6000151F82210B0FBF1F014
:103860004000069900EB5100B0FBF1F080B20190EE
:1038700001984FF6F07108400090019800F00E0199
:10388000009840EA5100009000980599C86013E044
:1038900004989DF80C2047F22C31C0F6000151F835
:1038A0002210B0FBF1F0069900EB5100B0FBF1F0F3
:1038B00080B20599C860FFE7FFE7FFE706B07047F1
:1038C00082B0019000910198806820F440700099C6
:1038D00008430199886002B07047000082B00190EF
:1038E00000910198C06A20F00F00BDF80010084355
:1038F0000199C86202B0704783B002900191FFE75E
:10390000FFE7029850E8020F20F06060019940EA5A
:1039100041600090FFE70099029A42E802100028F7
:10392000EFD1FFE7FFE703B07047000082B00190DE
:1039300000910198406820F4405000990843019993
:10394000486002B07047000083B002900191FFE729
:10395000FFE7029850E8020F20F06040019940EA2A
:1039600041700090FFE70099029A42E80210002897
:10397000EFD1FFE7FFE703B07047000082B001908E
:103980008DF803109DF803000199886202B070471A
:1039900080B5A6B00020109025902490239022900E
:1039A000219020901F901E901D901C901B901A90AB
:1039B000199018901790169015901490139002205B
:1039C000C0F21C00FFF7C6FB4FF400500E90FEF74C
:1039D0001BFD04200D90FEF717FD01200890FEF757
:1039E00013FD109808210991139103210F9114914F
:1039F000179040F60000C4F6000013A90A91FEF7E4
:103A000079FF089B0A990F9A1098139314921790B4
:103A10004FF090400B90FEF76DFF0A990F9B109AA4
:103A20000B984FF0020CCDF84CC014931792FEF790
:103A300061FF0A99DDF834C00F9B109A0B98CDF8FE
:103A40004CC014931792FEF755FFDDF824C00A9975
:103A50000F9B109A0B98CDF84CC014931792FEF759
:103A600049FF10990020C4F202000C900522FEF7D5
:103A7000EFFE0C98109A1146FEF74CFE0C98109A27
:103A80001146FEF713FE0C98109A1146FEF79EFEA3
:103A90000C98109A1146FEF7C3FE0C9810998022DC
:103AA000FEF764FE0C9810994FF48072FEF7F4FE56
:103AB0000C9810994FF48062FEF770FE10982390D6
:103AC000249025904FF0A040119023A9FEF72AFBE7
:103AD000DDF834C00E9B0F9A109911981D91CDF806
:103AE00078C01F912093219222911DA9FEF75EFBC1
:103AF00010991198FEF738FC10991198FEF750FCB8
:103B000010984FF4E01119911A9040F20030C5F26C
:103B1000000019A9FEF72EFA1198FEF7CBFA1198BA
:103B2000FEF7F0FA40F20000C2F2000000688009DF
:103B300042F66351C0F23E51A0FB0110800900EB38
:103B4000800080004CF6CD41CCF6CC41A0FB0110AA
:103B5000C0081290FFE7129820B1FFE712980138D1
:103B60001290F8E74FF0A040059006211022C1F214
:103B7000C0020092FEF788FB009905980322049288
:103B8000FEF7BCFB009905987F220792FEF7D2FB57
:103B900005980C210822C0F690420192FEF774FBB2
:103BA0000199049A0598FEF7A9FB01990598079ACF
:103BB000FEF7C0FB059812210422C0F660020292B3
:103BC000FEF762FB0299049A0598FEF797FB0299AB
:103BD0000598079AFEF7AEFB059818210222C0F25D
:103BE00030420392FEF750FB0399049A0598FEF7C2
:103BF00085FB03990598079AFEF79CFB05984FF4FF
:103C0000807140F20022C2F2B0520692FEF73CFBF5
:103C1000049A05980699FEF771FB05980699079A8C
:103C2000FEF788FB26B080BD80B5A2B000201090C2
:103C3000219020901F901E901D901C901B901A9018
:103C400019901890179016901590149013900220C8
:103C5000C0F21C00FFF77EFA4FF400500E90FEF702
:103C6000D3FB04200D90FEF7CFFB01200C90FEF754
:103C7000CBFB10980221139103210F9114911790FF
:103C800040F60000C4F60000099013A90891FEF761
:103C900031FE0899DDF834C00F9B109A0998CDF8D1
:103CA0004CC014931792FEF725FE08990F9A1098AE
:103CB00080230A931393149217904FF09040FEF7CD
:103CC00019FE08990F9B109A09984FF0100CCDF827
:103CD0004CC014931792FEF70DFE08990F9B109A93
:103CE00009984FF0200CCDF84CC014931792FEF7B2
:103CF00001FE0C990020C4F202000B902422FEF772
:103D0000A7FD0B980C99109AFEF704FD0B980C99DF
:103D1000109AFEF7CBFC0B980C99109AFEF756FD03
:103D20000B980C99109AFEF77BFD0A9A0B980C9948
:103D3000FEF71CFD0B980C994FF48072FEF7ACFD5A
:103D40000B980C994FF48062FEF728FD10981F9095
:103D50002090219040F20010C5F2000011901FA9A0
:103D6000FEF7E0F9DDF834C00E9B0F9A1099119818
:103D70001991CDF868C01B911C931D921E9119A931
:103D8000FEF714FA10991198FEF7EEFA10991198AF
:103D9000FEF706FB1198FEF78DF91198FEF7B2F9C0
:103DA00040F20000C2F200000068800942F6635150
:103DB000C0F23E51A0FB0110800900EB80008000A2
:103DC0004CF6CD41CCF6CC41A0FB0110C0081290BE
:103DD000FFE7129820B1FFE7129801381290F8E738
:103DE00040F20010C5F200000590062140F60002E6
:103DF000C2F630620092FEF747FA00990598032256
:103E00000492FEF77BFA009905987F220792FEF74D
:103E100091FA05980C212022C1F2F0420192FEF79E
:103E200033FA0199049A0598FEF768FA0199059802
:103E3000079AFEF77FFA059812211022C1F2C002FC
:103E40000292FEF721FA0299049A0598FEF756FAB3
:103E500002990598079AFEF76DFA0598182140F225
:103E60000012C2F280120392FEF70EFA0399049A2E
:103E70000598FEF743FA03990598079AFEF75AFA50
:103E800005984FF480718022C1F650520692FEF7D9
:103E9000FBF9049A05980699FEF730FA05980699F9
:103EA000079AFEF747FA22B080BD000080B5A6B0A1
:103EB0000020109025902490239022902190209013
:103EC0001F901E901D901C901B901A901990189096
:103ED000179016901590149013900220C0F21E00B7
:103EE000FFF738F94FF48040FEF78EFA1020FEF706
:103EF0008BFA109880210A91139103210F9114914C
:103F0000179041F20000C4F60000099013A908912F
:103F1000FEF7F0FC08990F9B109A09984FF4807CEB
:103F2000CDF82CC0CDF84CC014931792FEF7E2FCEC
:103F300008990F9B109A09984FF4007CCDF84CC05B
:103F400014931792FEF7D6FC08990F9B109A0998C4
:103F50004FF4806CCDF838C0CDF84CC01493179254
:103F6000FEF7C8FC08990F9B109A09984FF4006C53
:103F7000CDF84CC014931792FEF7BCFC0020C4F29D
:103F800002000C9002210D912522FEF761FC0C9895
:103F90000D99109AFEF7BEFB0C980D99109AFEF73A
:103FA00085FB0C980D99109AFEF710FC0C980D9952
:103FB000109AFEF735FC0A9A0C980D99FEF7D6FB7D
:103FC0000B9A0C980D99FEF767FC0C980D990E9AB8
:103FD000FEF7E4FB109823902490259040F20040D7
:103FE000C5F20000119023A9FEF79CF80F9A1099D2
:103FF00011981D9104231E931F914FF40053209399
:10400000219222911DA9FEF7D1F810991198FEF77F
:10401000ABF910991198FEF7C3F910984FF4E0111D
:1040200019911A9040F20070C5F2000019A9FDF72D
:10403000A1FF1198FEF73EF81198FEF763F840F2E1
:104040000000C2F200000068800942F66351C0F22D
:104050003E51A0FB0110800900EB800080004CF66F
:10406000CD41CCF6CC41A0FB0110C0081290FFE777
:10407000129820B1FFE7129801381290F8E740F249
:104080000040C5F200000590062148F20002C3F688
:10409000F0620092FEF7F8F8009905980322049266
:1040A000FEF72CF9009905987F220792FEF742F956
:1040B00005980C2144F20002C3F6C0220192FEF7DB
:1040C000E3F80199049A0598FEF718F90199059803
:1040D000079AFEF72FF9059812210422C0F6600214
:1040E0000292FEF7D1F80299049A0598FEF706F9B4
:1040F00002990598079AFEF71DF9059818214022A4
:10410000C1F620120392FEF7BFF80399049A0598AE
:10411000FEF7F4F803990598079AFEF70BF905984E
:104120004FF480711022C1F2C0020692FEF7ACF883
:10413000049A05980699FEF7E1F805980699079AFA
:10414000FEF7F8F826B080BD80B5A2B00020109030
:10415000219020901F901E901D901C901B901A90F3
:1041600019901890179016901590149013900220A3
:10417000C0F21E00FEF7EEFF4FF480400990FEF7FC
:1041800043F90220FEF740F90820FEF73DF91098A8
:104190004FF48051139103210F911491179040F225
:1041A0000040C4F600000A9013A90B91FEF7A2FB91
:1041B000DDF824C00B990F9B109A0A98CDF84CC0DB
:1041C00014931792FEF796FB0B990F9B109A0A987F
:1041D0004FF4004CCDF84CC014931792FEF78AFBB5
:1041E0000B990F9A10984FF480730D9313931492B8
:1041F000179040F60040C4F600000C90FEF77AFBE2
:104200000B990F9B109A0C984FF4007CCDF84CC082
:1042100014931792FEF76EFB0F990020C4F2020070
:104220000E902622FEF714FB0E980F99109AFEF7B7
:1042300071FA0E980F99109AFEF738FA0E980F99A6
:10424000109AFEF7C3FA0E980F99109AFEF7E8FA43
:104250000E980F998022FEF789FA0D9A0E980F9901
:10426000FEF71AFB0E980F994FF48062FEF796FA4C
:1042700010981F902090219040F20050C5F200004D
:1042800011901FA9FDF74EFF0F9A109911981991DF
:1042900004231A931B914FF400531C931D921E91FB
:1042A00019A9FDF783FF10991198FEF75DF8109991
:1042B0001198FEF775F81198FDF7FCFE1198FDF7BF
:1042C00021FF40F20000C2F200000068800942F6BF
:1042D0006351C0F23E51A0FB0110800900EB800049
:1042E00080004CF6CD41CCF6CC41A0FB0110C008BB
:1042F0001290FFE7129820B1FFE712980138129050
:10430000F8E740F20050C5F200000690062142F2A4
:104310000002C3F290620192FDF7B6FF0199069880
:1043200003220592FDF7EAFF019906987F22089281
:10433000FEF700F806980C2141F20002C3F2602259
:104340000292FDF7A1FF0299059A0698FDF7D6FFA4
:1043500002990698089AFDF7EDFF0698122120228F
:10436000C1F2F0420392FDF78FFF0399059A069878
:10437000FDF7C4FF03990698089AFDF7DBFF06983E
:1043800018211022C1F2C0020492FDF77DFF0499AA
:10439000059A0698FDF7B2FF04990698089AFDF76A
:1043A000C9FF06984FF480710822C0F69042079228
:1043B000FDF76AFF059A06980799FDF79FFF069893
:1043C0000799089AFDF7B6FF22B080BD80B5A6B068
:1043D00000201090259024902390229021902090EE
:1043E0001F901E901D901C901B901A901990189071
:1043F000179016901590149013900220C0F21E0092
:10440000FEF7A8FE4FF480400890FDF7FDFF08205E
:10441000FDF7FAFF10984FF480610C91139103217E
:104420000F911491179040F60040C4F600000A90D6
:1044300013A90991FEF75EFA09990F9B109A0A9841
:104440004FF4006CCDF84CC014931792FEF752FA5B
:1044500009990F9B109A0A984FF4805CCDF84CC0D4
:1044600014931792FEF746FA09990F9B109A0A982F
:104470004FF4005CCDF838C0CDF84CC014931792BF
:10448000FEF738FADDF820C009990F9B109A0A98B8
:10449000CDF84CC014931792FEF72CFA0020C4F20A
:1044A00002000B9004210D912722FEF7D1F90B9801
:1044B0000D99109AFEF72EF90B980D99109AFEF7A8
:1044C000F5F80B980D99109AFEF780F90B980D9955
:1044D000109AFEF7A5F90B980D998022FEF746F980
:1044E0000B980D994FF48072FEF7D6F90B980C9A41
:1044F0000D99FEF753F9109823902490259040F2DF
:104500000060C5F20000119023A9FDF70BFEDDF855
:1045100034C00E9B0F9A109911981D91CDF878C058
:104520001F912093219222911DA9FDF73FFE109922
:104530001198FDF719FF10991198FDF731FF4FF40D
:10454000E010199040F20070C5F2000019A9FDF7C3
:1045500011FD1198FDF7AEFD1198FDF7D3FD40F266
:104560000000C2F200000068800942F66351C0F208
:104570003E51A0FB0110800900EB800080004CF64A
:10458000CD41CCF6CC41A0FB0110C0081290FFE752
:10459000129820B1FFE7129801381290F8E740F224
:1045A0000060C5F200000590062140F20042C2F60C
:1045B00000220092FDF768FE0099059803220492FC
:1045C000FDF79CFE009905987F220792FDF7B2FE49
:1045D00005980C2140F20022C2F2B0520192FDF780
:1045E00053FE0199049A0598FDF788FE01990598F4
:1045F000079AFDF79FFE0598122140F20012C2F2C1
:1046000080120292FDF740FE0299049A0598FDF788
:1046100075FE02990598079AFDF78CFE05981821FA
:104620008022C1F650520392FDF72EFE0399049AA0
:104630000598FDF763FE03990598079AFDF77AFE42
:1046400005984FF4807140F60002C2F6306206927F
:10465000FDF71AFE049A05980699FDF74FFE059896
:104660000699079AFDF766FE26B080BD80B590B02A
:10467000002000900F900E900D900C900B900A90DF
:1046800009900890079006900590049003904FF4CD
:104690008030FDF7B9FE0120FDF7B6FE009810212D
:1046A00003910321049107904FF0904003A9FEF776
:1046B00021F9009A40F60000C5F2000001900121A6
:1046C000C0F211210291FDF7B9FF009A01980299F9
:1046D00009920A920B920D920E920F9209AAFDF77F
:1046E0000FFF02990198FDF7EBFE01980299FDF783
:1046F000D7FE10B080BD000080B590B000200090C3
:104700000F900E900D900C900B900A9009900890CD
:10471000079006900590049003904FF40030FDF749
:1047200073FE0120FDF770FE0098402103910321E4
:10473000049107904FF0904003A9FEF7DBF8009A30
:1047400040F60040C5F2000001900121C0F21121A5
:104750000291FDF773FF009A0198029909920A925B
:104760000B920D920E920F9209AAFDF7C9FE0299C3
:104770000198FDF7A5FE01980299FDF791FE10B092
:1047800080BD000080B50420FDF72CFE0120FDF760
:1047900029FE80BD80B59CB0002013901B901A901C
:1047A000199018901790169010200F90FDF72CFE7E
:1047B00004200490FDF728FE20200C90FDF724FE35
:1047C00001201290FDF720FE02200B90FDF71CFE49
:1047D00008200E90FDF718FE40201090FDF714FE03
:1047E00040F60000C4F6000005904FF4005102911D
:1047F000FEF7FCF805981099FEF7F8F80598802167
:104800001191FEF7F3F8129941F60000C4F600008A
:104810000A90FEF7EBF80A980B99FEF7E7F804996F
:104820000A98FEF7E3F80A980E99FEF7DFF80A985F
:104830000F99FEF7DBF805984FF480710891FEF7A9
:10484000D5F805984FF400710991FEF7CFF8089953
:104850004FF090400790FEF7C9F807980999FEF7C6
:10486000C5F807984FF480610691FEF7BFF80A98E3
:104870001099FEF7BBF80A981199FEF7B7F8089956
:104880000A98FEF7B3F809990A98FEF7AFF812995B
:1048900040F60040C4F600000D90FEF7A7F80B9913
:1048A0000D98FEF7A3F80D980F99FEF79FF80C9955
:1048B0000D98FEF79BF80D981099FEF797F80D9854
:1048C0001199FEF793F80E9940F20040C4F60000EB
:1048D0001590FEF78BF80F991598FEF787F8109949
:1048E0001598FEF783F811991598FEF77FF8049A4A
:1048F00012981399169217911A9041F20000C4F67B
:104900000000019016A91491FDF7F4FFDDF838C0FE
:10491000129A139B14990198CDF858C017931A92C4
:10492000FDF7E8FFDDF83CC0129A139B149901983B
:10493000CDF858C017931A92FDF7DCFFDDF830C0B0
:10494000129A139B14990198CDF858C017931A9294
:10495000FDF7D0FFDDF808C0129B139A1499059853
:10496000CDF858C01793189219921A92FDF7C2FF0A
:10497000139A149912984FF48053169317921A9021
:1049800041F20040C4F600000390FDF7B3FFDDF8EC
:1049900008C0129A139B14990398CDF858C0179326
:1049A0001A92FDF7A7FFDDF840C0129B139A1499E5
:1049B0000598CDF858C01793189219921A92FDF7DE
:1049C00099FFDDF844C0129B139A14990598CDF80D
:1049D00058C01793189219921A92FDF78BFF129BE9
:1049E000139A14990A9816931793189219921A9277
:1049F000FDF780FFDDF82CC0129B139A14990A98DA
:104A0000CDF858C01793189219921A92FDF772FFB9
:104A1000DDF810C0129B139A14990A98CDF858C06B
:104A20001793189219921A92FDF764FFDDF838C0B7
:104A3000129B139A14990A98CDF858C0179318929C
:104A400019921A92FDF756FFDDF83CC0129B139A9B
:104A500014990A98CDF858C01793189219921A927F
:104A6000FDF748FFDDF820C0129B139A14990598B2
:104A7000CDF858C01793189219921A92FDF73AFF81
:104A8000DDF824C0129B139A14990598CDF858C0EC
:104A90001793189219921A92FDF72CFFDDF820C097
:104AA000129B139A14990798CDF858C0179318922F
:104AB00019921A92FDF71EFFDDF824C0129B139A7B
:104AC00014990798CDF858C01793189219921A9212
:104AD000FDF710FFDDF818C0129B139A1499079880
:104AE000CDF858C01793189219921A92FDF702FF49
:104AF000DDF840C0129B139A14990A98CDF858C05B
:104B00001793189219921A92FDF7F4FEDDF844C03B
:104B1000129B139A14990A98CDF858C017931892BB
:104B200019921A92FDF7E6FEDDF820C0129B139A47
:104B300014990A98CDF858C01793189219921A929E
:104B4000FDF7D8FEDDF824C0129B139A14990A9839
:104B5000CDF858C01793189219921A92FDF7CAFE11
:104B6000129B139A14990D981693179318921992F1
:104B70001A92FDF7BFFEDDF82CC0129B139A149910
:104B80000D98CDF858C01793189219921A92FDF704
:104B9000B1FEDDF83CC0129B139A14990D98CDF824
:104BA00058C01793189219921A92FDF7A3FEDDF8D8
:104BB00030C0129B139A14990D98CDF858C01793D2
:104BC000189219921A92FDF795FEDDF840C0129BDB
:104BD000139A14990D98CDF858C0179318921992FA
:104BE0001A92FDF787FEDDF844C0129B139A1499C0
:104BF0000D98CDF858C01793189219921A92FDF794
:104C000079FEDDF838C0129B139A14991598CDF8E7
:104C100058C01793189219921A92FDF76BFEDDF89F
:104C20003CC0129B139A14991598CDF858C017934D
:104C3000189219921A92FDF75DFEDDF840C0129BA2
:104C4000139A14991598CDF858C017931892199281
:104C50001A92FDF74FFEDDF844C0129B139A149987
:104C60001598CDF858C01793189219921A92FDF71B
:104C700041FE1CB080BD000080B588B000200190CE
:104C8000079006900590049003904FF40060FDF7A4
:104C9000DFFB019840F28F61ADF80C1004904FF6E5
:104CA000FF7105910690079042F60040C4F20100A2
:104CB000029003A9FEF700FB0298FEF7CBFA0199D8
:104CC0000298FEF7EBFB01990298FEF70FFC0199A1
:104CD0000298FEF71BFC0298FEF7D0FA08B080BDE0
:104CE00080B588B000200190079006900590049050
:104CF00003900120FDF79AFB0198ADF80C00049099
:104D00004FF0FF31059106904FF08040029003A9CB
:104D1000FEF7D2FA0298FEF79DFA01990298FEF783
:104D2000BDFB01990298FEF7E1FB0298FEF7A6FA97
:104D300008B080BD80B588B0002001900790069033
:104D40000590049003900220FDF770FB0198ADF8E8
:104D50000C0004904FF6FF710591069040F2004060
:104D6000C4F20000029003A9FEF7A6FA0298FEF72B
:104D700071FA01990298FEF791FB01990298FEF7EA
:104D8000B5FB0298FEF77AFA08B080BD80B596B000
:104D9000002005901590149013901290119010908F
:104DA0000F900E900D900C900B900A900990089027
:104DB0004FF44000FEF71CFA4FF40020FDF736FBDD
:104DC0000420FDF721FB05984FF480610891022132
:104DD000069109910A900B900C90052001900D907E
:104DE00040F60000C4F60000039008A90291FDF708
:104DF00081FD019A0299059BDDF818C003984FF4D4
:104E0000006ECDF820E0CDF824C00A930B930C93EC
:104E10000D92FDF76FFD00F08BFB059A069900F0EF
:104E200089F901463420049000F08AFB049800F0D0
:104E300067FB05980E904FF4E1310F91109011909F
:104E400012900C2113911490159044F60040C4F276
:104E5000000007900EA9FEF715FC0798FEF77AFBF5
:104E600006990798FEF770FD06990798FEF744FD2E
:104E70000798FEF761FB0798FEF7C2FB0798FEF75D
:104E8000A9FB0798FEF79CFBFFE744F60040C4F23D
:104E90000000FEF7A5FC01460120009059B1FFE794
:104EA00044F60040C4F20000FEF78AFCB0FA80F03D
:104EB00040090090FFE70098C00708B1FFE7E4E76A
:104EC00016B080BD80B596B0002005901590149066
:104ED00013901290119010900F900E900D900C90D6
:104EE0000B900A90099008904FF04070FEF780F9FF
:104EF0004FF48010FDF79AFA04200190FDF784FA30
:104F00000820FDF781FA05984FF48051089102219D
:104F1000069109910A900B900C90052003900D903A
:104F200040F60000C4F6000008A90291FDF7E2FC7B
:104F3000DDF804C00299059A069B0398CDF820C0BD
:104F400009930A920B920C920D9040F60040C4F621
:104F50000000FDF7CFFC00F0EBFA059A069900F08F
:104F6000E9F801463520049000F0EAFA049800F0D0
:104F7000C7FA05980E904FF4E1310F9110901190FF
:104F800012900C2113911490159045F20000C4F278
:104F9000000007900EA9FEF775FB0798FEF7DAFAF6
:104FA00006990798FEF7D0FC06990798FEF7A4FC2F
:104FB0000798FEF7C1FA0798FEF722FB0798FEF75D
:104FC00009FB0798FEF7FCFAFFE745F20000C4F280
:104FD0000000FEF705FC01460120009059B1FFE7F3
:104FE00045F20000C4F20000FEF7EAFBB0FA80F0E0
:104FF00040090090FFE70098C00708B1FFE7E4E729
:1050000016B080BD80B596B0002005901590149024
:1050100013901290119010900F900E900D900C9094
:105020000B900A90099008904FF44030FEF7F0F88A
:105030004FF48040FDF70CFA1020FDF7E5F90598D4
:10504000012108910221069109910A900B900C9080
:10505000072002900D9041F20000C4F60000049079
:1050600008A90391FDF746FC029A0399059BDDF818
:1050700018C00498CDF820C0CDF824C00A930B9333
:105080000C930D92FDF736FC05980E904FF4E1312C
:105090000F911090119012900C2113911490159073
:1050A00043F60000C4F2010007900EA9FEF7EAFAE9
:1050B00006990798FEF748FC06990798FEF71CFC2E
:1050C0000798FEF747FA0798FEF736FA0798FEF7B3
:1050D00077FAFFE743F60000C4F20100FEF780FB19
:1050E00001460120019059B1FFE743F60000C4F2E8
:1050F0000100FEF765FBB0FA80F040090190FFE780
:105100000198C00708B1FFE7E4E700F011FA0322B5
:10511000114600F00FF801462520009000F010FA2B
:10512000009800F0EDF916B080BD0000FFE7FEE743
:10513000FFE7FEE788B0079006910592079800F018
:10514000070004900498C0F10700052803D3FFE787
:105150000420019004E00498C0F107000190FFE7EB
:105160000198039004980430062803D8FFE7002034
:10517000009003E0049803380090FFE70098029045
:1051800006980399012202FA01F101390840029BB5
:10519000984005999A40013A1140084308B0704779
:1051A0007047000080B582B0019001980090FDF733
:1051B000B7FD01460098C9B20A0947F20431C0F6AA
:1051C0000001895C01F01F01C84002B080BD0000F1
:1051D00080B582B0019001980090FDF7A9FD0146CD
:1051E00000980A0A47F21431C0F60001895C01F008
:1051F0001F01C84002B080BD80B582B00190019807
:105200000090FDF79DFD01460098CA0A47F214314F
:10521000C0F60001895C01F01F01C84002B080BDEA
:1052200080B582B0FDF79CFD01460091042808D0AE
:10523000FFE7009808280AD0FFE700980C280CD058
:105240000FE042F20040C0F2F40001900FE042F2A1
:105250000040C0F2F400019009E000F00BF801906A
:1052600005E042F20040C0F2F4000190FFE701982F
:1052700002B080BD80B586B0FDF74CFF0490049865
:105280000390022804D0FFE70398032806D00BE020
:1052900042F20040C0F2F40005900BE042F2004000
:1052A000C0F2F400059005E042F20040C0F2F400C4
:1052B0000590FFE705980090FDF734FF0146009840
:1052C00048430190FDF71EFF02460198012101EBC2
:1052D0001211B0FBF1F00290FDF72CFF014602988D
:1052E0004A0E022101EB4201B0FBF1F006B080BD95
:1052F0007047000080B540F2A461C2F20001086866
:105300000130086000F084FB80BD000080B584B0EF
:105310000420FDF7E1FAFFE7FDF7D6FA042801D0F3
:10532000FFE7F9E7FDF7F2FCFDF788FEFFE7FDF781
:105330008FFE012801D0FFE7F9E7FDF7A1FEFFE7A7
:10534000FDF7A8FE012801D0FFE7F9E703201021AF
:105350002A220023FDF7A6FEFDF7CAFEFDF7BEFEDA
:10536000FFE7FDF7EFFE012801D0FFE7F9E7032093
:10537000FDF730FF8020FDF703FFFFE7FDF7E8FCB6
:105380000C2801D0FFE7F9E755200390FFE70398C9
:1053900028B1FFE7FFE7039801380390F7E7002003
:1053A0000190FDF7EDFE0198FDF7F8FE0198FDF77D
:1053B00003FF47F60020C0F603200290FDF776FCBD
:1053C0000298FDF735FF04B080BD00004EF688510D
:1053D000CEF20001086840F47000086070470000D9
:1053E00080B501F06DF980BD80B501F0E9F980BDAF
:1053F00080B582B043F60000C4F20100FEF7E8F980
:10540000D0B1FFE7FFE743F60000C4F20100FEF76A
:10541000DFF970B1FFE743F60000C4F20100FEF7C8
:10542000F7F9014640F2CC30C2F20000FCF7FCF97B
:1054300000E000E0E7E7FFE743F60000C4F2010008
:10544000FEF7D6F958B3FFE7FFE743F60000C4F2D2
:105450000100FEF7CDF9F8B1FFE740F21C40C2F2BF
:105460000000FCF79FFB01280EDBFFE740F21C4029
:10547000C2F20000FCF7BCF9014643F60000C4F29A
:105480000100FEF77BFA06E043F60000C4F20100DB
:10549000FEF780F802E000E000E0D6E7FFE743F621
:1054A0000000C4F20100FEF783F920B3FFE743F6E2
:1054B0000000C4F201000190FEF736F80198FEF7F3
:1054C00053F8FFE743F60000C4F20100FEF780F94D
:1054D00070B1FFE743F60000C4F20100FEF798F94F
:1054E000014640F2CC30C2F20000FCF79DF900E02A
:1054F00000E0E7E7FFE702B080BD0000FFE7FEE75E
:1055000081B08DF803009DF9030000280ED4FFE759
:105510009DF9031001F01F02012090404A094EF24C
:105520000011CEF2000141F82200FFE701B0704700
:105530004EF60C50CEF200000068C0F30220704717
:1055400082B08DF8070000919DF9070000280AD469
:10555000FFE7009800019DF907104EF20042CEF2DD
:10556000000288540BE0009800019DF8071001F03C
:105570000F014EF61452CEF200028854FFE702B03B
:105580007047000083B00290029800F0070000907E
:105590004EF60C51CEF200010868019001984FF6CA
:1055A000FF02104001900198009A40EA0220002278
:1055B000C0F2FA52104301900198086003B070479E
:1055C000BFF34F8F4EF60C51CEF20001086800F485
:1055D000E0600422C0F2FA5210430860BFF34F8F1C
:1055E000FFE700BFFDE7000081B0009001B0704709
:1055F00084B00390ADF80A10002001900090FFE7FE
:105600000098072811D8FFE70398BDF80A10009A00
:1056100002EB8202114430F8111001980844019005
:10562000FFE7009801300090EAE70198C0F3CF004F
:1056300004B0704785B0ADF812008DF8111040F23B
:105640004060C2F20000006845F27861C1F2342186
:10565000884215D1FFE7BDF8120000EE100AB8EE3F
:10566000C00A9DF8111040F24060C2F2000000EB49
:10567000810090ED011A30EE010A8DED000A08E07C
:10568000BDF8120000EE100AB8EE400A8DED000AD7
:10569000FFE79DED000A9FED251A20EE010A9FED20
:1056A000241A80EE010A8DED020A9DED020AB0EE89
:1056B000081A80EE010A8DED020A9DED022A9FED87
:1056C0001D0A22EE000A9FED1C1A31EE421A80EEEE
:1056D000010A9FED1A1A30EE010A9FED191A30EEF9
:1056E000010A8DED010A9DED010A9FED161AB4EE37
:1056F000410AF1EE10FA06DDFFE74EF60000C4F2B3
:105700007D700190FFE79DED010AB5EE400AF1EED4
:1057100010FA03DAFFE700200190FFE79DED010A90
:10572000BDEEC00A10EE100A05B0704700404E45AD
:105730000000804500401C46000096440000C8C29E
:10574000CDCC4CBE00E87D4780B582B000200190F2
:10575000FFE70198172817DCFFE7019940F28C005A
:10576000C2F2000030F8110000F01CF8019940F27C
:105770004060C2F2000000EB810080ED010AFFE70B
:10578000019801300190E4E740F24061C2F200016B
:1057900045F27860C1F23420086001F0BBF802B035
:1057A00080BD000083B0ADF80A0040F2A860C2F2EC
:1057B000000042F62D51C4F28D21016090ED000AE7
:1057C0009FED0E1A80EE010A9FED0D1A20EE010AE0
:1057D0008DED000A9DED000ABDF80A0001EE100AE9
:1057E000B8EE411A30EE410A40F23C60C2F20000CD
:1057F00080ED000A90ED000A03B0704700404E456E
:1058000000F07F4580B582B041F20040C4F6000050
:105810004FF48051FDF7DCF820B9FFE701208DF847
:10582000070003E000208DF80700FFE79DF8070060
:1058300002B080BD80B500F0D3F8012000F0ACFBD1
:1058400000F0CAFE322000F0A7FB00F0EBFE00F0F3
:10585000C7F880BD80B584B040F28140C2F200003C
:10586000007801460391072800F2B6800399DFE82B
:1058700001F00420385280A7B38AFFF7C3FFB8B104
:10588000FFE747F27B50C0F60000FAF76DFD40F2EB
:105890008141C2F200010120087000F0C1FC00F05B
:1058A00067FE40F28041C2F2000100200870FFE76D
:1058B00093E0FFF7A7FF98B1FFE747F28650C0F6E5
:1058C0000000FAF751FD40F28141C2F200010220CE
:1058D0000870012000F014FD142000F05DFBFFE7CC
:1058E0007BE040F28141C2F2000103200870FBF727
:1058F000B9FD002000F0E4FF022000F001FD0120CE
:1059000000F04AFB00F0B4FE47F29450C0F60000ED
:10591000FAF72AFD61E0FFF78DFF0120029000F009
:10592000EFFC142000F038FBFBF79CFD022000F098
:10593000E7FC029800F0C4FF0520019000F02CFB6A
:1059400000F076FD4FF4FA7000F026FB47F2B350FA
:10595000C0F60000FAF708FD0199029840F2814272
:10596000C2F20002117040F28041C2F200010870E0
:1059700033E0012000F010FB40F28141C2F200014F
:105980000520087029E000F04DFE0A20009000F08C
:1059900003FB012000F0B4FC009800F0FDFAFBF7D7
:1059A00061FD022000F0ACFCFFF7CEFE642000F0A9
:1059B000F3FA40F28141C2F20001002008700CE0CD
:1059C000FFF720FF38B9FFE740F28141C2F2000142
:1059D00001200870FFE700E0FFE704B080BD000091
:1059E00080B584B040F20040C4F600000190402130
:1059F0000291FDF703F80A20039000F0CDFA019818
:105A00000299FDF781F8039800F0C6FA04B080BD52
:105A100080B500F093F900F02BFA80BD83B00290BE
:105A2000ADF806104FF6FF70ADF804000020ADF899
:105A30000200FFE7BDF80200BDF8061088421DDA3B
:105A4000FFE7BDF804000299BDF80220895C4840D8
:105A50008DF801009DF805009DF8012047F25C31AA
:105A6000C0F6000131F812104840ADF80400FFE71D
:105A7000BDF802000130ADF80200DBE7BDF804001C
:105A800003B0704780B584B040F2CC30C2F2000061
:105A9000FCF788F8012801DCFFE785E040F2CC3014
:105AA000C2F200000190FBF7A3FE014601988DF8B9
:105AB0000A10FBF79DFE8DF80B00FFE740F2CC309B
:105AC000C2F20000FCF76EF8012807DBFFE740F2A6
:105AD000CC30C2F20000FBF78BFE00E000E0EDE707
