:020000040800F2
:10000000B00C002025030008115100084D1F000806
:100010000D5100088D170008C554000800000000AD
:10002000000000000000000000000000D1520008A5
:10003000251800080000000081510008D552000872
:100040003F0300083F0300083F0300083F03000888
:100050003F0300083F0300083F0300083F03000878
:100060003F0300083F0300083F030008DD170008B6
:10007000E1170008E5170008E9170008ED17000868
:100080003F0300083F0300083F0300083F03000848
:100090003F0300083F0300083F0300083F03000838
:1000A0003F0300083F0300083F0300083F03000828
:1000B0003F0300083F0300083F0300083F03000818
:1000C0003F0300083F0300083F0300083F03000808
:1000D0003F030008D15300083F0300083F03000816
:1000E0003F0300083F0300083F0300083F030008E8
:1000F0003F0300083F0300083F0300083F030008D8
:100100003F0300083F0300083F0300083F030008C7
:10011000C1530008C95300083F0300083F0300080B
:100120003F0300083F0300083F0300083F030008A7
:100130003F0300083F0300083F0300083F03000897
:100140003F0300083F0300083F0300083F03000887
:100150003F0300083F0300083F0300083F03000877
:100160003F0300083F0300083F0300083F03000867
:100170003F0300083F0300083F0300083F03000857
:100180003F0300083F0300083F0300083F03000847
:100190003F030008000000003F0300083F03000881
:1001A0003F0300083F0300083F0300083F03000827
:1001B0003F0300083F0300083F0300083F03000817
:1001C0003F0300083F0300083F0300083F03000807
:1001D0003F0300083F03000800F002F800F092F827
:1001E0000AA090E8000C82448344AAF10107DA4592
:1001F00001D100F087F8AFF2090EBAE80F0013F052
:10020000010F18BFFB1A43F0010318475475000093
:1002100074750000103A24BF78C878C1FAD8520724
:1002200024BF30C830C144BF04680C607047000070
:100230000023002400250026103A28BF78C1FBD8EF
:10024000520728BF30C148BF0B6070476E2900F0CD
:100250003981702900F06F82662906F0D2876529FE
:1002600006F0CF87672906F0CC87612906F0CB8797
:1002700003681B0A28BF41F08001692900F0E6806D
:10028000642900F0E380752900F0E0806F2900F018
:10029000FD81782900F03B82E92900F09781E4296B
:1002A00000F09481F52900F09181EF2900F0FA81A6
:1002B000F82900F03A820368DB0928BF41F0800189
:1002C000632900F05387732900F05887E32900F071
:1002D0006387F32900F06887002070471FB506F098
:1002E00083FF00F0BBFF04000020002106F066FF42
:1002F000401C60600020002106F04AFFE0601FBD46
:1003000010B510BD00F07CFF1146FFF7E7FF05F0C8
:1003100087FF01F059F803B4FFF7F2FF03BC05F0C3
:1003200047F900000948804709480047FEE7FEE713
:10033000FEE7FEE7FEE7FEE7FEE7FEE7FEE7FEE795
:1003400004480549054A064B70470000AD530008B4
:10035000D9010008B0060020B00C0020B008002031
:10036000B0080020704700000FB4044910B503AA7C
:10037000029800F0BBF810BC5DF814FB2C040020C0
:10038000704770477047704770B5044685690068CC
:10039000C10601D5302600E02026C00707D070BD79
:1003A000D4E9012130469047206A401C20626D1E2E
:1003B000F6D570BD70B5044685690078C00707D1D1
:1003C00070BDD4E9012120209047206A401C2062A2
:1003D0006D1EF6D570BD09684A0501D540B270475B
:1003E000C905FCD500B2704709684A0501D5C0B2FD
:1003F0007047C905FCD580B2704770B50C460546FC
:10040000012A05D02878800600D5EA69002302E099
:10041000012305E05B1C934202D2E05C0028F9D185
:10042000A869E618C01AA861286A184428622846F4
:10043000FFF7AAFF04E0D5E9012114F8010B90476A
:10044000B442F8D32846FFF7B5FF70BD2DE9F0415F
:100450000646002410687529314616A510D0FFF70E
:10046000BAFF002802DA404213A507E031688A0784
:1004700001D512A502E0490704D511A5012401E028
:10048000FFF7B2FF00210A2206F1240709E0B0FBC2
:10049000F2FCB0FBF2F302FB1C003030785418463B
:1004A000491C0028F3D123462A463046BDE8F041D6
:1004B00000F055BA000000002D0000002B000000E5
:1004C0002000000011680268006A530501D5087019
:1004D0000AE0D30501D5088006E0130603D5C2174C
:1004E000C1E9000200E0086001207047074B70B5C9
:1004F0000D467B4400F01DFE0446284600F058FEE1
:1005000010B14FF0FF3070BD204670BD0F58000095
:100510002DE9FF5F15468A460446DFF8AC80F844B3
:100520000027D8E900103E46CDE9001010E03AF867
:1005300016106A4602A800F03FFE411C07D0217841
:10054000890603D5E269391891420DD80744761C13
:100550002078800602D5E069B84205DDAE42E6DBD0
:100560003AF816000028E2D1A069C01BA06120461D
:10057000FFF70AFFD8E90010CDE90010002017E0CE
:100580003AF818106A4602A800F016FEB0F1FF3FD4
:1005900081460BD000250DF1080B05E0D4E90121BF
:1005A0001BF8050090476D1C4D45F7D308F101007D
:1005B000B0428046E4DB206A384420622046FFF7E0
:1005C000F9FEBDE8FF9F0000EA6C00002DE9F04154
:1005D0008046D21D22F007020025D2E90002F5294B
:1005E00015A614D0011E72F1000106DA0023D0EB2B
:1005F000030063EB020211A608E0D8F800108B0795
:1006000001D50FA602E0490701D50EA60125114626
:10061000002408F1240704E000F05CF930323A5578
:10062000641C50EA0102F7D12B463246214640466F
:10063000BDE8F04100F093B9000000002D0000007B
:100640002B0000002000000030B4002100F1240441
:1006500008E002F00705D208303542EA4372DB08B1
:100660006554491C52EA0305F3D10468002310A223
:10067000250708D504F020040C4304D0C4690123E5
:100680000CA2641EC46130BC00F069B910B5044608
:1006900021461068FFF7A8FE02462046BDE810403C
:1006A0000023D1E7D21D22F00701D1E90023CBE7D7
:1006B0000000000030000000F0B40D46018809057C
:1006C00002D5214C7C4402E01F4C7C440E340021B6
:1006D00000F1240608E002F00F071209E75D42EA84
:1006E00003721B097754491C52EA0307F3D10278BD
:1006F0000023120704D5702D06D009B1022311344E
:100700002246F0BC00F02BB901231034F8E770B595
:1007100004460D4621461068FFF766FE024629464C
:100720002046BDE870400023C6E7D21D22F0070333
:10073000D3E90023C0E70368126843F02003036095
:100740000823C3610023B7E74C6B00002DE9F05F7D
:10075000894604464FF0000ADFF874B1FB44C0F844
:1007600020A02046E1688847002874D0252806D0BC
:10077000D4E901219047206A401C2062F1E700265D
:100780005F462046E16888472028054607DB312D73
:1007900005D2781910F8200C08B10643F1E7B0072C
:1007A00001D526F00406C4F81CA00027C4F818A040
:1007B0002A2D09D0284606F0E3FC38B304EB87085D
:1007C000303DC8F8185019E059F8041B204604EBD6
:1007D00087029161E1688847012F054618D1E069D9
:1007E000002820DA26F020061DE0D8F8180000EBDB
:1007F000800005EB40003038C8F818002046E1685A
:100800008847054606F0BCFC0028EED1012F0AD02F
:100810002E2D08D12046E16888477F1C0546022F0F
:1008200046F02006C4DBA069002803DA404246F007
:100830000106A061F00701D026F010066C2D0BD048
:10084000682D09D04C2D39D06A2D35D0742D35D076
:100850007A2D33D016E038E0E1682F4620468847ED
:10086000B842054609D16C2F26D04FF48060E1686C
:10087000064320468847054604E06C2F1AD04FF403
:10088000807006430DB3A5F14100192802D8203528
:1008900046F400664A462946204626604E46FFF743
:1008A000D5FC80B101280BD0F61D26F0070000F121
:1008B000080956E74020E4E78020D8E70020D6E783
:1008C00006F104094DE7284652E7206ABDE8F09F8B
:1008D000DC6A000030B5B0F10A0271F100034FEAA2
:1008E000900E4EEA817EB0EB0E0061EB91014FEA73
:1008F000101E4EEA017E10EB0E0041EB11114FEA83
:10090000102E4EEA016E10EB0E0041EB11214FEA62
:10091000104E4EEA014E10EB0E0041EB1141401813
:1009200041F100014FEAD00040EA41704FEAD101A5
:100930004FEA810444EA907410EB800544EB010413
:100940006D1944EB0404521BA3414FF0000348BF50
:100950000A3200D530BD401C41F1000130BD2DE907
:10096000F0470D4699469246044600F12408016876
:10097000880604D5E06921F01001216000E0012023
:10098000A84201DD471B00E00027A1697A1902EBAC
:100990000900081AA0612078C00602D42046FFF79B
:1009A000F3FC002608E0D4E901211AF8060090477C
:1009B000206A401C761C20624E45F4DB2078C0067D
:1009C0000AD52046FFF7E0FC06E0D4E901213020FB
:1009D0009047206A401C2062381EA7F10107F4DC12
:1009E00007E0D4E9012118F805009047206A401C6F
:1009F0002062281EA5F10105F3DC2046FFF7DAFC92
:100A00002078000602D50220BDE8F0870120FBE730
:100A10002DE9FF4F0C461E464FF0FF378BB0D2E951
:100A20000001DDF860800A908A46C1F30A5505B9D5
:100A30003D46002108464FF00000BAF1000F00F4D7
:100A4000400005DA00EB80004FF4400101EA50005D
:100A50004FEA9059B9F1010F00DDB9460A9850EA02
:100A60004A000ED044F61050A5F2FF3545432F142E
:100A7000B8F1000F1ED07542291E1EDDC9F100021B
:100A80001CE0B8F1010F4FF0000001D0302103E06D
:100A9000F24305E02154401CB042FBDB304600220B
:100AA000002121540B99C1F80880C1E900200FB042
:100AB000BDE8F08FBD1B6D1CDEE74A4600DA6942D7
:100AC00006A800F00FFC06AB93E8070003AB83E831
:100AD000070050460A9905F072FF8DE80700A0F55F
:100AE00000501F3800900398002D0ADD42F21F01CC
:100AF0004A460844002303A90390684606F0DCF93F
:100B000009E0A0F500504A461F38002303A90390CE
:100B1000684606F0E6F98DE807000004000C03D0F3
:100B20004FF0FF30410800E01046B8F1000F03D04D
:100B30000022009215461EE0751E05D4FFF7CAFE7E
:100B4000303262556D1EF9D5B3460122084302D0FA
:100B500000227F1C04E02078302801D100227F1E73
:100B6000002A099784D01DE0112D07DAFFF7B2FEA5
:100B7000303262556D1C50EA0102F5D1084302D0B3
:100B80000098C8B10EE00021681E05E0235C625C9D
:100B900063542254401E491C8142F7DBAB46A81B1C
:100BA000401E0990002004F80B000B98099AC0F829
:100BB0000880C0E9002B7AE711264FF0000857E7BC
:100BC0002DE9F04F88460446D21D22F0070191B06E
:100BD000D1E90001CDE90A0106F0BAFA02460B9804
:100BE000C00F01D02D2007E02068810701D52B2000
:100BF00002E0202101EAC000032A099001D0072A5F
:100C000005DB03464146204600F02CFB0BE1207833
:100C1000800601D5E06900E00620B8F1650F814645
:100C200006D0B8F1660F18D0B8F1670F70D131E077
:100C30000020B9F1110F009001DB112301E009F14F
:100C400001030AAA01A90CA8FFF7E2FEDDE90C7076
:100C5000002609F10105834647E001204B4600903C
:100C60004FF000470AAA01A90CA8FFF7D1FEDDE961
:100C70000DB00C995D46002610B909F101000D1860
:100C8000B9EB050003D4C0F1FF3609F10105A5EB6E
:100C900009002BE0B9F1010F01DA4FF00109002042
:100CA000B9F1110F0090484601DD112300E0034621
:100CB0000AAA01A90CA8FFF7ABFEDDE90C704D46AE
:100CC00000268346207800070AD4AB4500DA5D464B
:100CD00001A8012D04DD411911F8011C302907D0AC
:100CE0004F4502DA17F1040F04DA012082460FE0C3
:100CF0006D1EEEE7002F02DCED1B3E4403E0781C86
:100D0000A84200DD7D1CB81B00F1010A4FF000472E
:100D10002078000703D4AA4501DB4FF0FF3A0021F9
:100D2000B7F1004F0DF143088DF8431024D0022095
:100D30002B23002F01DA7F422D230A21021EA0F16E
:100D4000010000DC5FB197FBF1FC97FBF1F201FBC6
:100D50001C7C17460CF1300C08F801CDEEE7A8F129
:100D6000010003702188090501D5452100E06521B6
:100D7000A0F1010800F8011C09980FA9A1EB0807D0
:100D8000FF1D00B10120411901EBEA70A16938444F
:100D9000081A401EA0612078C00602D42046FFF742
:100DA000F3FA099828B1D4E901219047206A401C40
:100DB00020622078C00622D52046FFF7E5FA1EE023
:100DC000002E04DBB34502DD01A8805D00E0302089
:100DD000D4E901219047206A401C2062761CAAF1C8
:100DE00001005FEA000A0AD100F038FAC068016821
:100DF000405CD4E901219047206A401C2062281EF3
:100E0000A5F10105DCDC07E0D4E9012118F8010BAC
:100E10009047206A401C2062381EA7F10107F3DCCE
:100E20002046FFF7C7FA032011B041E62DE9F04F45
:100E300004460D46D21D22F0070089B0D0E9009784
:100E40004846394606F084F90246F80F01D02D23B2
:100E500007E02068810701D52B2302E0202101EA69
:100E6000C0038DF820300BB1012000E00020032AE0
:100E7000824601D0072A04DB2946204600F0F2F919
:100E80003FE12078800601D40D2500E0E569C7F335
:100E90000A560D2D49DA00214FEA175B08464FF03C
:100EA0000000002F00F4400007DA00EB80004FF450
:100EB000400100EBD07001EA60008115012901DDDD
:100EC0004FF0FF3100224FEA850CBCF1180F06D31A
:100ED0001346ACF118004FF08052C24003E04FF4CB
:100EE000801323FA0CF30CF10C0CBCF1200F04D38B
:100EF000ACF1200C09FA0CF001E007FA0CF0002923
:100F00004FF0004801DD18B90FE00ED140450CD379
:100F100019EB02095F4121B9404502D19F4329EAFB
:100F20000209BBEB175F00D0761C2088000502D5B4
:100F30007B48784402E07A487844193808AA30237C
:100F400002F80A30037C0AF10101002E0AF1020ABC
:100F500053546A4602DC4FF0300101E04FF031019A
:100F60004FF001088DF8001002D0A6F2FF3603E022
:100F700059EA470100D06B4E002D02DC21780907A9
:100F800004D54FF002082E218DF80110C44600212F
:100F90000BE0C7F303433F01C35C491C6D1E02F81D
:100FA0000830052908F1010801DA002DF1DC0021E3
:100FB0000CE000EB1973491C1B786D1E082902F820
:100FC00008304FEA091908F1010801DA002DF0DCB8
:100FD00021688B0602D516E0A8F10108E04505DD81
:100FE00002EB080313F8013C302BF5D0B8F1000FE9
:100FF00009DD02EB080313F8013C2E2B03D109078E
:1010000001D4A8F10108002D05DD3E2102F80810E9
:101010006D1E08F10108407C002E02F8080008F15E
:10102000010804DA2D20764202F8080002E02B20A5
:1010300002F808000A214FF47A70864208F101088C
:101040000BDB96FBF0F3303302F8083096FBF0F33D
:1010500008F1010800FB136601E0642E0CDB64203C
:1010600096FBF0F3303302F8083096FBF0F308F10A
:10107000010800FB136601E00A2E06DB96FBF1F087
:10108000303002F8080008F1010896FBF1F001FB8E
:101090001060303002F80800A16908F1010808EB7F
:1010A000050202EB0A00081AA0612078C00602D4EB
:1010B0002046FFF769F9216A08AE01EB0A002062B9
:1010C00004E0D4E9012116F8010B9047BAF1010AB6
:1010D000F7D22078C00602D52046FFF755F96E46B4
:1010E00009E016F8010B3E280FD0D4E90121904702
:1010F000206A401C2062B8F10108F2D22046FFF7B6
:1011000059F909B00320BDE8F08F206A2844206215
:1011100003E0D4E90121302090476D1EEBD3F8E7BE
:101120002A63000002FCFFFF01694A1C0261087883
:10113000704700B58FB0CDE9013100210591054917
:101140007944CDE9031011466846FFF7FFFA0FB066
:1011500000BD0000E5FFFFFF10B5436913B1AFF319
:10116000008001E0FFF749F9012010BD127800F17D
:1011700024010A7000224A700122EDE711684FF045
:10118000FF32E9E710B5436913B1AFF3008001E026
:10119000FFF7BEF9012010BD128800F124018284FE
:1011A0000022C2840122EDE711684FF0FF32E9E727
:1011B000007B00F0800070472DE9F04116460C4698
:1011C000054600F043F8036893F80101012807D0B1
:1011D000FF2C12D8185D80B101202C70BDE8F08181
:1011E000D3F807013246214603F20713C7182846F1
:1011F000BC46BDE8F041002360474FF0FF30EDE70B
:10120000754600F0EBF8AE4605006946534620F0FF
:101210000700854618B020B5FFF792F8BDE82040DA
:101220004FF000064FF000074FF000084FF0000BA2
:10123000AC46ACE8C009ACE8C009ACE8C009ACE811
:10124000C00921F007018D467047000010B500F07D
:1012500005F8001D10BD00BF655F00000048704725
:10126000480000202DE9F0411F460446032601688E
:10127000072A01F4006004DB08B116A505E016A5F5
:1012800003E008B115A500E015A521F010002060CD
:10129000A069C01EA0610FB1401EA0612046FFF7EB
:1012A00073F84FB1D4E9012138469047206A401CB9
:1012B0002062C01C206206E0206AFAE7D4E901211E
:1012C00015F8010B9047761EF8D22046FFF772F80A
:1012D000BDE8F0814E414E006E616E00494E460001
:1012E000696E66002DE9F047814616468AB035489A
:1012F00078440DC88DE80D0032487844801C03AC5A
:101300000DC884E80D0041F69B300844372190FB5E
:10131000F1F290FBF1F5A5F1800501FB12041B3CF5
:1013200002D56442012000E00020DFF898A080464A
:101330000027FA44AAF1BE0A0EE0E0070AD03246BE
:10134000684607EB470101230AEB810105F0C9FD5F
:101350008DE8070064107F1C002CEED1194F7F44EC
:10136000AE3F19E0E80715D007EB04100DF1180A9D
:1013700090E80E008AE80E00C068F04201D198198A
:1013800008903246012306A903A805F0AAFD03AB85
:1013900083E807006D10641C002DE3D14FF00103BA
:1013A00032466946B8F1000F03A802D005F084FD6B
:1013B00001E005F096FDC9E90001C9F808200AB06E
:1013C000BDE8F087FC5F000010B50446AFF3008075
:1013D0002046BDE81040FEF79EBF00000048704761
:1013E000280000200000000030B44FF0013C50F80D
:1013F000042B51F8043BCCFA52F4D51A20D1FCB995
:1014000050F8042B51F8043BCCFA52F4D51A17D1FA
:10141000B4B950F8042B51F8043BCCFA52F4D51A65
:101420000ED16CB950F8042B51F8043BCCFA52F4AD
:10143000D51A05D1002CDAD030BC4FF0000070472F
:1014400029BAB1FA81F111F01801D1F120008440DC
:10145000F2D1CA40CB4012F0FF0213F0FF0330BCC0
:10146000D01A704780B596B00020C4F202001290E6
:10147000002114912822099201F030F9099A12985A
:1014800001210F9101F02AF9099A12980221109175
:1014900001F024F9099A12980321119101F01EF923
:1014A000099A12980421139101F018F912981499CD
:1014B00001F0EAF80F99129801F0E6F810991298E5
:1014C00001F0E2F81199129801F0DEF812981399E0
:1014D00001F0DAF84FF0A0400A9000F0F3FE40F27D
:1014E0000010C5F200000B9000F0ECFE40F200404E
:1014F000C5F200000C9000F0E5FE40F20050C5F28D
:1015000000000D9000F0DEFE40F20060C5F2000029
:101510000E9000F0D7FE109804F038FD0A9800F005
:10152000DFFE0B9800F0DCFE0C9800F0D9FE0D9861
:1015300000F0D6FE0E9800F0D3FE1298149901F038
:1015400091F80F99129801F08DF81099129801F006
:1015500089F81199129801F085F81298139901F001
:1015600081F814981590FFE71598032814DCFFE71D
:10157000BDF8541040F2FC10C2F2000004F01CF858
:10158000159A40F28C01C2F2000121F81200FFE727
:10159000159801301590E7E700201590FFE71598A2
:1015A000042815DCFFE7BDF8541040F2AC10C2F27D
:1015B000000004F001F8159A40F28C01C2F200011B
:1015C00001EB42010881FFE7159801301590E6E72D
:1015D00040F25C10C2F2000000900021029103F082
:1015E000EBFF0146009840F28C02C2F20002079223
:1015F00051820121039103F0DFFF079A0146009811
:1016000091820221049103F0D7FF079A01460098C6
:10161000D1820321059103F0CFFF079A014600987C
:1016200011830421089103F0C7FF0299079A5083A0
:1016300040F20C10C2F20000019003F0BDFF0399CC
:10164000079B024601989A8303F0B6FF0499079B13
:1016500002460198DA8303F0AFFF0599079B024623
:1016600001981A8403F0A8FF079B08990246019885
:101670009A8503F0A1FF0299079AD08540F2BC0039
:10168000C2F20000069003F097FF0399079B024601
:1016900006985A8403F090FF0499079B0246069827
:1016A0009A8403F089FF0599079B02460698DA841D
:1016B00003F082FF079B0899024606981A8503F0FB
:1016C0007BFF079A0899508540F2FC10C2F2000097
:1016D00003F072FF40F28801C2F20001088016B0E8
:1016E00080BD000080B584B0039000200290039874
:1016F00000F04CFD002846D1FFE7039800F0DAFC2B
:10170000039800F0FFFC40F20000C2F20000006805
:10171000800942F66351C0F23E51A0FB01108009DE
:1017200000EB800080004CF6CD41CCF6CC41A0FB14
:101730000110C0080290FFE7029820B1FFE702986D
:1017400001380290F8E703987F2100F037FE0A2065
:1017500004F026FAFFE7039800F010FD08B1FFE758
:10176000F9E71420019004F01BFA039800F0AEFC96
:10177000019804F015FAFFE7039800F0F7FC08B9A8
:10178000FFE7F9E7FFE704B080BD0000FFE7FEE7F1
:1017900080B586B005900491ADF80E20059840689C
:1017A000029000200190FFE70198BDF80E108842DA
:1017B0000BDAFFE7059800F01BF80499019A8854AA
:1017C000FFE7019801300190EEE70598406801902D
:1017D000029805994860019806B080BD70470000E6
:1017E000704700007047000070470000704700001D
:1017F00082B00190019841688068405C8DF80300D8
:10180000019948680130486001994868C968884270
:1018100004DBFFE7019900204860FFE79DF8030023
:1018200002B070477047000082B001908DF803103D
:101830009DF8030001990A6889688854019908682D
:101840000130086001990868C968884204DBFFE735
:10185000019900200860FFE702B0704781B040F2B4
:101860000400C2F20000007F8DF803009DF8030021
:10187000012805D0FFE79DF8030003281FD1FFE7EB
:1018800042F20001C4F20201086820F4007008600E
:10189000FFE742F20001C4F20201086840F4006070
:1018A0000860086820F400600860FFE742F2000169
:1018B000C4F20201086840F400700860FFE79DF878
:1018C0000300022805D0FFE79DF80300032817D185
:1018D000FFE7FFE742F20001C4F20201086840F4AA
:1018E00080500860086820F480500860FFE742F2EA
:1018F0000001C4F20201086840F480600860FFE75C
:1019000040F20401C2F200010020087701B07047E4
:1019100081B0009042F22000C4F202000068400250
:1019200000281ED5FFE79DF80000C00748B1FFE77B
:1019300042F21401C4F20201086840F00400086099
:10194000FFE79DF800008007002809D5FFE742F275
:101950001401C4F20201086840F400400860FFE787
:1019600009E042F21401C4F20201086848F20402DC
:1019700010430860FFE742F21401C4F20201086854
:1019800040F48030086001B07047000082B00190E0
:10199000009142F22000C4F20200006840020028D8
:1019A00009D4FFE742F21401C4F20201086820F4EE
:1019B0000060086017E09DF80000C00748B1FFE72D
:1019C00042F21401C4F20201086820F400600860C9
:1019D00008E042F21401C4F20201086840F4006019
:1019E0000860FFE7FFE742F21401C4F20201086851
:1019F00020F47E709DF8042040EAC2000860086868
:101A000040F002000860086840F48030086002B0CE
:101A10007047000084B003900193009242F21401D9
:101A2000C4F20201086840F00100086000980399C0
:101A30000860BFF36F8F01980399486004B0704746
:101A400089B00590049140208DF80F000598029010
:101A50000498019042F21401C4F20201086840F4B3
:101A600080200860EFF31080069006980090EFF356
:101A7000108072B60790FFE701980068029908602D
:101A80000298043002900198043001909DF80F00F4
:101A900001388DF80F00FFE79DF80F000028EBD10B
:101AA000FFE700980890089880F3108809B0704705
:101AB00080B584B0029000F043FA0190FFE742F253
:101AC0001000C4F202000068C00300280DD5FFE733
:101AD00000F036FA0199401A0299884204D9FFE7CA
:101AE00003208DF80F0058E0E9E742F21000C4F23D
:101AF000020000684CF2FA3108400090009860B390
:101B0000FFE7009A40F20401C2F200014868104366
:101B10004860FFE79DF8030010F0F00F0BD0FFE7DF
:101B2000009800F0704242F21801C4F20201086805
:101B300010430860FFE70098000148B1FFE70098F4
:101B400020F0704042F21001C4F202010860FFE789
:101B5000FFE701208DF80F001FE0012040B9FFE7EB
:101B600042F21800C4F202000068C00740B910E059
:101B700042F21000C4F202000068C00748B1FFE75B
:101B8000FFE742F21001C4F2020101200860FFE702
:101B9000FFE700208DF80F00FFE79DF80F0004B06D
:101BA00080BD000082B000900099086849688842B2
:101BB00006DBFFE7009908684968401A019007E0D2
:101BC000009801684268C068801A08440190FFE7E5
:101BD000019802B07047000080B586B00490039170
:101BE000FFE740F20400C2F200000078012804D1AF
:101BF000FFE702208DF81700BDE040F20401C2F2B9
:101C0000000101200870FFE7FFE74FF47A70FFF74B
:101C10004FFF8DF80B009DF80B00002840F09E80D0
:101C2000FFE740F20401C2F200010020486042F2E6
:101C30000000C4F2020000688005002820D5FFE7FC
:101C400042F20000C4F202000068400500280FD5EF
:101C5000FFE742F20001C4F20201086820F480604C
:101C6000086040F20401C2F200010320087706E098
:101C700040F20401C2F2000101200877FFE71FE0F3
:101C800042F20000C4F202000068400500280FD5AF
:101C9000FFE742F20001C4F20201086820F480600C
:101CA000086040F20401C2F200010220087706E059
:101CB00040F20401C2F2000100200877FFE7FFE7CD
:101CC00004980068012814D1FFE704984068FFF7E2
:101CD0001FFE4FF47A70FFF7EBFE8DF80B0042F217
:101CE0001401C4F20201086848F20402904308603B
:101CF00031E003994FF0FF3008600498806801904C
:101D0000FFE70198049A9168D2681144884221D271
:101D1000FFE7019804994968FFF738FE4FF47A709D
:101D2000FFF7C6FE8DF80B0042F21401C4F2020167
:101D3000086840F2FA32904308609DF80B0020B129
:101D4000FFE701980399086004E0FFE7019801307C
:101D50000190D6E7FFE7FFF781FDFFE7FFE740F2DD
:101D60000401C2F2000100200870FFE79DF80B009B
:101D70008DF81700FFE79DF8170006B080BD000042
:101D800040F20400C2F200004068704781B00120B8
:101D90008DF8030042F21400C4F20200016841F021
:101DA000004101600068C00F20B1FFE700208DF8FE
:101DB0000300FFE79DF8030001B0704780B588B0CD
:101DC000069005910393029200200090FFE740F2F5
:101DD0000400C2F200000078012804D1FFE70220CD
:101DE0008DF81F007BE040F20401C2F200010120E7
:101DF0000870FFE7FFE74FF47A70FFF759FE8DF8A0
:101E000007009DF8070000285CD1FFE740F20401BD
:101E1000C2F200010020486042F20000C4F2020059
:101E20000068400500280FD5FFE742F20001C4F228
:101E30000201086820F48060086040F20401C2F2E8
:101E400000010220087706E040F20401C2F200011E
:101E500000200877FFE7069840B9FFE70598029A47
:101E6000039BFFF7D7FD0120009016E0069801289C
:101E700004D0FFE7069802280DD1FFE705980299E4
:101E8000FFF7DEFD0698022804D1FFE74FF480201B
:101E90000090FFE700E0FFE7FFE74FF47A70FFF7FD
:101EA00007FE8DF80700009848B1FFE7009A42F25C
:101EB0001401C4F20201086890430860FFE7FFF7CD
:101EC000CDFCFFE7FFE740F20401C2F20001002071
:101ED0000870FFE79DF807008DF81F00FFE79DF8E9
:101EE0001F0008B080BD000081B000208DF8030005
:101EF00042F21400C4F202000068C00FD8B1FFE73C
:101F000042F20801C4F2020140F22310C4F2675009
:101F1000086048F6AB10CCF6EF50086042F21400AF
:101F2000C4F202000068C00F20B1FFE701208DF865
:101F30000300FFE7FFE79DF8030001B070470000D2
:101F400040F2A460C2F2000000687047FFE7FEE7BD
:101F500083B002900191009202990020486002999A
:101F6000086001980299886000980299C86003B0DF
:101F70007047000080B588B00790069100208DF86A
:101F800017000698406808B1FFE7FFE7079840F29E
:101F90000031C5F20001884210D1FFE74FF0A040A8
:101FA00000F0FCF8039040F20010C5F2000000F0D1
:101FB000F5F801460398084304901BE040F2004006
:101FC000C5F2000000F0EAF8019040F20050C5F2BE
:101FD000000000F0E3F8014601980843029040F247
:101FE0000060C5F2000000F0D9F8014602980843ED
:101FF0000490FFE7049838BBFFE706984068A8B153
:10200000FFE70798806843F2E001CFF6C07108400F
:10201000069A1168D2F804C09368D26841EA0C01AC
:10202000194311430843079988600CE007988068BA
:1020300043F2E001CFF6C0710840069909680843F1
:1020400007998860FFE703E001208DF81700FFE79C
:102050009DF8170008B080BD84B0039002910298EB
:1020600020B9FFE70398403001901FE00399012059
:10207000B1F1A04F00900BD0FFE703984FF600712D
:10208000CAF6FF710844B0FA80F040090090FFE7FB
:102090000098C10740F20C70C5F2000000291CBF77
:1020A00040F20C30C5F200000190FFE7019804B047
:1020B0007047000081B00090009988684FF6C072A8
:1020C000C5F6FF721040886001B0704781B0009083
:1020D000009880684FF6C071C7F6FF710840013064
:1020E0000099886001B0704781B0009000988068C6
:1020F0004FF6C071C7F6FF71084001300099886043
:1021000001B0704781B000900098806840F0805026
:102110004FF6C071C7F6FF7108400099886001B0A2
:102120007047000080B584B00390029100208DF8C4
:102130000700039800F032F878B9FFE70398C06809
:102140004CF218018843029A116853689268194347
:10215000114308430399C86003E001208DF807008C
:10216000FFE79DF8070004B080BD000081B000903B
:102170000098006800F0010001B0704781B0009045
:1021800000988068C00F01B07047000081B00090D7
:102190000098806800F0010001B0704781B00090A5
:1021A0000098806800F0010001B0704780B584B0ED
:1021B0000390029100208DF807000298406808B152
:1021C000FFE7FFE70398FFF7E9FFC0BBFFE70298CF
:1021D0004068C8B1FFE70398C0684CF21C01CFF615
:1021E000F0710840029A1168D2F808E0D2F80CC0E9
:1021F000136941EA0E0141EA0C0119435269114386
:1022000008430399C86014E00398C0684CF21C01AD
:10221000CFF6F0710840029A1168D2F80CC0136929
:10222000526941EA0C011943114308430399C860FC
:10223000FFE703980299496800F018F803E00120CD
:102240008DF80700FFE79DF8070004B080BD00008F
:1022500082B0019000910198C06820F003000099BD
:1022600008430199C86002B07047000082B0019035
:1022700000910198006B20F00F000099084301992C
:10228000086302B07047000084B00390029101928D
:102290000398029901F4407100EB911030300090E6
:1022A00000980068029901F01F021F2191408843A5
:1022B0000199C1F38461914008430099086004B01A
:1022C0007047000081B00090009880684FF6C071A0
:1022D000C7F6FF71084004300099886001B070476C
:1022E00081B00090009880684FF6C071C7F6FF710A
:1022F000084010300099886001B0704784B00390A6
:10230000029101920398029901F0007100EBD15003
:1023100014300090009800680299C1F3045207211C
:10232000914088430199914008430099086004B0A6
:102330007047000083B00290019100920298D0F89B
:10234000B00001996FF3DF418843009A02F018034F
:102350004FF6FF72C0F20702DA40114008430299BB
:10236000C1F8B00003B0704782B0019000910198AD
:10237000D0F8C00043F6FF718843009908430199E3
:10238000C1F8C0000198006920F48031009A01F57D
:102390008030002A08BF08460199086102B07047E2
:1023A00082B0019000910198006940F20341884396
:1023B000009908430199086102B0704782B001900A
:1023C0000091019880684FF6C071C3F6FF7101401B
:1023D000009800F08040084400F1004001998860B6
:1023E00002B0704782B00190019A41F24800C4F2F5
:1023F00002000168114301600068019908400090E3
:10240000009802B07047000082B00190019A41F23A
:102410004C00C4F202000168114301600068019998
:1024200008400090009802B07047000082B0019010
:10243000019A41F25800C4F20200016811430160A0
:102440000068019908400090009802B070470000B1
:1024500082B00190019A41F26000C4F2020001686A
:10246000114301600068019908400090009802B093
:102470007047000084B00390029101920398029982
:10248000090F00EB8100083000900098006840F6CA
:10249000FF718843019908430099086004B07047B0
:1024A00082B001900091009800F010014FF480700C
:1024B00000FA01F20199C86B9043C86302B07047FB
:1024C00082B001900091009800F01001022000FA03
:1024D00001F2019908689043086002B0704700005B
:1024E00082B001900091009800F01001012000FAE4
:1024F00001F2019908681043086002B070470000BB
:1025000080B584B003900291019200208DF8030001
:102510000198806808B1FFE7FFE70398029900F08F
:102520007FF8002874D1FFE70198806800284BD01D
:10253000FFE701988068C0282FD1FFE70398006863
:10254000029901F01002C0219140884301998968E5
:1025500091400843039908600398006E029901F0C6
:10256000100240F60F719140884301990B68D1F831
:1025700004C06FF0C00101EA8C1141EA930191405F
:102580000843039908660198C0680399029AC2F348
:10259000C01201EB8201886515E00398006802997A
:1025A00001F0100240F6FC7191408843019B1968CC
:1025B000D3F808C0DB6841EA0C0119439140084395
:1025C00003990860FFE70EE003980068029901F0A4
:1025D0001002FC2191408843019909689140084309
:1025E00003990860FFE70398C06B029901F010029D
:1025F000072191408843019B1969D3F814C09B6956
:1026000041EA0C011943914008430399C86303E070
:1026100001208DF80300FFE79DF8030004B080BDA2
:1026200082B00190009101980068009901F01001BA
:10263000C84000F0010002B07047000083B0029073
:10264000019100920298C06B019901F010024FF4C1
:102650000071914088430099914008430299C863F2
:1026600003B0704783B002900191029800900099E6
:10267000019A47F22830C0F60000825C885820F0AA
:102680000100885003B0704783B002900191029816
:1026900000900099019A47F22830C0F60000825C51
:1026A000885840F00100885003B0704784B0039010
:1026B00002910192039800900098029947F220320B
:1026C000C0F60002515C405820F440500199084384
:1026D0000099029BD25C885004B0704784B003908C
:1026E00002910192039800900098029947F22832D3
:1026F000C0F60002515C084440684FF6FF71884301
:10270000019908430099029BD25C1144486004B0CF
:102710007047000084B003900291019203980090EA
:102720000098029947F22032C0F60002515C4058EE
:1027300044F210018843019908430099029BD25C3E
:10274000885004B07047000084B003900291019259
:102750000398009001980099029B47F22832C0F636
:102760000002D25C1144C86004B0704784B003908A
:1027700002910192039800900098029947F220324A
:10278000C0F60002515C405820F0800001990843D7
:102790000099029BD25C885004B0704784B00390CB
:1027A00002910192039800900098029947F220321A
:1027B000C0F60002515C405820F440600199084383
:1027C0000099029BD25C885004B0704784B003909B
:1027D00002910192039800900098029947F22032EA
:1027E000C0F60002515C405820F0200001990843D7
:1027F0000099029BD25C885004B0704784B003906B
:10280000029101920398009001980099029B47F26F
:102810002832C0F60002D25C1144886004B07047D0
:1028200084B003900291019203980090009802995D
:1028300047F22032C0F60002515C405820F04000C0
:10284000019908430099029BD25C885004B07047FC
:1028500084B003900291019203980021C4F2020116
:1028600041406FF0070000EAD1100090029880000C
:10287000009900EB810040F60002C4F20202805889
:1028800020F0FF000199084302998900009B01EBA9
:102890008301885004B0704784B003900291019284
:1028A000039800900098029947F22032C0F6000287
:1028B000515C405820F44070019908430099029BF4
:1028C000D25C885004B0704742F20000C4F20200AB
:1028D000006800F00F00704781B0009042F20001E4
:1028E000C4F20201086820F00F00009A104308604B
:1028F00001B0704780B586B00390029102980068DD
:1029000090FAA0F00490049820B9FFE720208DF8F9
:10291000170005E00498B0FA80F08DF81700FFE783
:102920009DF817000190FFE7029800680199C840E0
:1029300000284AD0FFE702980068019A01219140DF
:10294000084000900098E0B3FFE702984068012833
:1029500005D0FFE70298406802280DD1FFE70398F1
:102960000099029A926800F063F90398029A11683C
:10297000D26800F00FF9FFE703980099029A1269F4
:1029800000F018F902984068022813D1FFE7009878
:10299000FF2807D8FFE703980099029A526900F0D0
:1029A00035F806E003980099029A526900F06CF835
:1029B000FFE7FFE703980099029A526800F0ACF82D
:1029C000FFE7019801300190AEE7002006B080BD1E
:1029D00082B0019000910198006900990840401A66
:1029E000B0FA80F0400902B07047000082B0019058
:1029F000009100980199886202B0704782B00190FE
:102A0000009100980199886202B070478AB00590E1
:102A1000049103920598006A0290049890FAA0F03D
:102A20000690069820B9FFE720208DF81F0005E0EA
:102A30000698B0FA80F08DF81F00FFE702989DF825
:102A40001F108A000F219140884300900398019045
:102A5000049890FAA0F00890089820B9FFE7202089
:102A60008DF8270005E00898B0FA80F08DF827006F
:102A7000FFE7009801999DF82720920091400843B4
:102A8000059908620AB070478AB0059004910392D4
:102A90000598406A02900498000A90FAA0F0069007
:102AA000069820B9FFE720208DF81F0005E0069862
:102AB000B0FA80F08DF81F00FFE702989DF81F1014
:102AC0008A000F2191408843009003980190049858
:102AD000000A90FAA0F00890089820B9FFE720209B
:102AE0008DF8270005E00898B0FA80F08DF82700EF
:102AF000FFE7009801999DF8272092009140084334
:102B0000059948620AB0704782B001900091009820
:102B10000199886102B070478AB0059004910392D0
:102B2000059800680290049890FAA0F00690069824
:102B300020B9FFE720208DF81F0005E00698B0FAC5
:102B400080F08DF81F00FFE702989DF81F104A00E3
:102B5000032191408843009003980190049890FAD3
:102B6000A0F00890089820B9FFE720208DF82700F2
:102B700005E00898B0FA80F08DF82700FFE700988C
:102B800001999DF82720520091400843059908605B
:102B90000AB0704783B00290019100920298406899
:102BA00001998843009A514308430299486003B051
:102BB000704700008AB00590049103920598C068A0
:102BC0000290049890FAA0F00690069820B9FFE7CA
:102BD00020208DF81F0005E00698B0FA80F08DF8EF
:102BE0001F00FFE702989DF81F104A000321914043
:102BF0008843009003980190049890FAA0F0089000
:102C0000089820B9FFE720208DF8270005E00898F4
:102C1000B0FA80F08DF82700FFE7009801999DF841
:102C200027205200914008430599C8600AB07047B8
:102C30008AB00590049103920598806802900498E8
:102C400090FAA0F00690069820B9FFE720208DF8B2
:102C50001F0005E00698B0FA80F08DF81F00FFE72E
:102C600002989DF81F104A0003219140884300906C
:102C700003980190049890FAA0F00890089820B961
:102C8000FFE720208DF8270005E00898B0FA80F0D3
:102C90008DF82700FFE7009801999DF82720520042
:102CA00091400843059988600AB0704780B582B0AA
:102CB000019001984FF47A7100F002F802B080BDE3
:102CC00082B00190009101980099B0FBF1F00138B9
:102CD0004EF21401CEF2000108604EF21801CEF25D
:102CE0000001002008604EF21001CEF20001072022
:102CF000086002B07047000047F20801C4F200010A
:102D0000086840F4804008607047000047F2800186
:102D1000C4F20001086820F4807008607047000069
:102D200041F20800C4F20200006800F0F0007047B1
:102D300041F20800C4F20200006800F4E06070474D
:102D400041F20800C4F20200006800F460507047CD
:102D500041F20800C4F20200006800F00C00704765
:102D600041F20800C4F20200006800F00C00704755
:102D700080B584B00390002002900398C0283ED113
:102D8000FFE7039800F084F801460191B0F5400F89
:102D90002BD0FFE701984021C0F2C00188420CD03F
:102DA000FFE701988021C0F2C001884209D0FFE707
:102DB0000198B0F1C01F0FD018E002F021FA029084
:102DC0001CE000F04DF930B1FFE742F20040C0F2E4
:102DD000F4000290FFE711E000F04AF920B1FFE7AC
:102DE0004FF400400290FFE708E0FFE702F008FA26
:102DF00002F0C8F902F0DCF90290FFE7FFE7039860
:102E0000B0F5407F40D1FFE7039800F041F801465C
:102E10000091B0F1407F2DD0FFE7009840F2001103
:102E2000C0F2003188420DD0FFE7009840F2002147
:102E3000C0F20031884209D0FFE70098B0F1032FBB
:102E40000FD018E002F0DCF902901CE000F008F965
:102E500030B1FFE742F20040C0F2F4000290FFE719
:102E600011E000F005F920B1FFE74FF400400290B7
:102E7000FFE708E0FFE702F0C3F902F083F902F090
:102E800097F90290FFE7FFE7029804B080BD0000C9
:102E900081B0009041F28800C4F2020000680099FD
:102EA000084040EA014001B07047000080B586B09C
:102EB0000590002004900598032830D1FFE705987D
:102EC00000F0AEF8A0F540300146039103281DD86C
:102ED0000399DFE801F01A02061102F091F904905B
:102EE0001CE000F0BDF830B1FFE742F20040C0F254
:102EF000F4000490FFE711E000F0BAF820B1FFE71A
:102F00004FF400400490FFE708E0FFE702F078F993
:102F100002F038F902F060F90490FFE77CE00598D0
:102F20000C2835D1FFE7059800F07AF8A0F540208D
:102F3000014602910C2822D80299DFE801F01F20F7
:102F40002020072020200B202020160002F058F916
:102F500004901CE000F084F830B1FFE742F200403A
:102F6000C0F2F4000490FFE711E000F081F820B116
:102F7000FFE74FF400400490FFE708E0FFE702F0AE
:102F80003FF902F0FFF802F013F90490FFE742E086
:102F9000059830283ED1FFE7059800F041F801463A
:102FA0000191B0F5401F2BD0FFE701981021C0F22E
:102FB000300188420CD0FFE701982021C0F2300197
:102FC000884209D0FFE70198B0F1301F0FD018E018
:102FD00002F016F904901CE000F042F830B1FFE76F
:102FE00042F20040C0F2F4000490FFE711E000F06C
:102FF0003FF820B1FFE74FF400400490FFE708E0FE
:10300000FFE702F0FDF802F0BDF802F0D1F80490FD
:10301000FFE7FFE7FFE7FFE7049806B080BD000089
:1030200081B0009041F28800C4F20200006800996B
:10303000084040EA014001B07047000041F2000141
:10304000C4F20201086840F4803008607047000054
:1030500041F20000C4F202000068C0F34040704733
:1030600041F20000C4F202000068C0F38020704703
:1030700041F29000C4F202000068C0F340007047C3
:1030800041F29401C4F20201086840F001000860B6
:103090007047000041F29400C4F202000068C0F3DF
:1030A0004000704784B0039002910192009341F276
:1030B0000C01C4F20201086848F20C02CFF6FF12BC
:1030C0001040039A029B1A43019B42EA0322009B91
:1030D0001A431043086004B07047000041F2000139
:1030E000C4F20201086840F0807008607047000078
:1030F00041F20C01C4F20201086840F080700860DF
:103100007047000041F20C00C4F20200006800F0B9
:10311000F000704741F20C00C4F20200006800F0B9
:103120000300704741F20C00C4F202000068C0F3D3
:103130000620704741F20C00C4F20200006800F063
:10314000C060704741F20000C4F202000068C0F3A2
:103150004060704781B0009041F28801C4F20201E2
:103160000868009AC2F304434FF0030C0CFA03FC06
:1031700020EA0C00D2B29A401043086001B07047B8
:1031800081B0009041F20801C4F20201086820F009
:10319000F000009A1043086001B0704781B00090C1
:1031A00041F20801C4F20201086820F4E060009ACC
:1031B0001043086001B0704781B0009041F20801EF
:1031C000C4F20201086820F46050009A10430860BD
:1031D00001B0704781B0009041F20801C4F20201D1
:1031E000086820F00300009A1043086001B070479F
:1031F00081B0009041F28801C4F202010868009A8F
:1032000020EA124092B21043086001B070470000FB
:1032100081B0009041F28801C4F202010868009A6E
:1032200020EA124092B21043086001B070470000DB
:1032300081B00090009840F20001C2F200010860E5
:1032400001B0704781B0009000996FF001000861F3
:1032500001B0704781B000900099086820F08000AC
:10326000086001B07047000081B0009000990868C4
:1032700020F00100086001B07047000081B00090AC
:103280000099886820F08000886001B070470000D5
:1032900081B000900099086840F00100086001B01A
:1032A0007047000081B000900099486940F001002B
:1032B000486101B07047000080B584B0039002916E
:1032C000039800680190039842F60041C4F201019E
:1032D00088422DD0FFE70398B0F1804F28D0FFE758
:1032E000039840F20041C4F20001884220D0FFE779
:1032F000039840F60001C4F20001884218D0FFE7AD
:10330000039840F60041C4F20001884210D0FFE764
:10331000039843F20041C4F20101884208D0FFE75C
:10332000039845F20001C4F20101884208D1FFE789
:10333000019820F070000299496808430190FFE766
:10334000039842F60041C4F20101884245D0FFE7EC
:103350000398B0F1804F40D0FFE7039840F200415E
:10336000C4F20001884238D0FFE7039840F600011C
:10337000C4F20001884230D0FFE7039840F60041D4
:10338000C4F20001884228D0FFE7039843F20041CD
:10339000C4F20101884220D0FFE7039844F2000103
:1033A000C4F20101884218D0FFE7039844F20041BB
:1033B000C4F20101884210D0FFE7039844F60001EF
:1033C000C4F20101884208D0FFE7039845F20001EA
:1033D000C4F20101884208D1FFE7019820F440704F
:1033E0000299C96808430190FFE7019803990860B2
:1033F00003980299896800F049F8039802990988AE
:1034000000F064F8039842F60041C4F201018842DA
:1034100028D0FFE7039843F20041C4F2010188423B
:1034200020D0FFE7039844F20001C4F20101884272
:1034300018D0FFE7039844F20041C4F2010188422A
:1034400010D0FFE7039844F60001C4F2010188425E
:1034500008D0FFE7039845F20001C4F20101884259
:1034600006D1FFE703980299096900F037F8FFE7F2
:103470000398FFF717FF002004B080BD81B00090D3
:103480000098006900F0010001B0704782B001901F
:10349000009100980199C86202B0704782B0019013
:1034A0000091019880684BF6F871CFF6FE710840E4
:1034B000009908430199886002B0704782B001907A
:1034C000009100980199486202B0704782B0019063
:1034D000009100980199886202B0704782B0019013
:1034E000009100980199086302B0704782B0019082
:1034F0000091019840684FF68F71CFF6FF51084058
:10350000009908430199486002B0704782B0019069
:1035100000910198406820F47000009908430199D7
:10352000486002B07047000081B000900099102000
:10353000086201B07047000081B0009000994868AF
:1035400020F4904048600099886820F02A00886044
:1035500001B0704781B000900099086820F00050D9
:10356000086001B07047000082B00190FFE7FFE7FC
:10357000019850E8000F20F080000090FFE70099CC
:10358000019A42E800100028F2D1FFE7FFE702B0FD
:103590007047000081B000900099086840F0010079
:1035A000086001B07047000082B00190FFE7FFE7BC
:1035B000019850E8000F40F010000090FFE70099DC
:1035C000019A42E800100028F2D1FFE7FFE702B0BD
:1035D0007047000082B00190FFE7FFE7019850E8D4
:1035E000000F40F020000090FFE70099019A42E8A8
:1035F00000100028F2D1FFE7FFE702B0704700009B
:1036000082B00190FFE7FFE7019850E8000F40F01B
:1036100080000090FFE70099019A42E8001000281E
:10362000F2D1FFE7FFE702B07047000082B00190DF
:10363000FFE7FFE7019850E8000F40F0800000909E
:10364000FFE70099019A42E800100028F2D1FFE755
:10365000FFE702B07047000080B586B00590049186
:1036600001208DF80F0000200290059800F0B2F8BC
:10367000002840F08380FFE70598006846F6F311C4
:10368000CEF6FF710840049A9168D2F810C05369D1
:10369000D26941EA0C0119431143084305990860B6
:1036A00005980499C96800F02BF90598049989696F
:1036B00000F0F0F8059843F60001C4F201018842D9
:1036C00005D1FFE70320FFF7F1FB029039E00598F1
:1036D00044F20041C4F20001884205D1FFE70C200A
:1036E000FFF7E4FB02902BE0059844F60001C4F2DA
:1036F0000001884205D1FFE73020FFF7D7FB029099
:103700001DE0059844F60041C4F20001884205D14D
:10371000FFE7C020FFF72CFB02900FE0059845F271
:103720000001C4F20001884206D1FFE74FF4407067
:10373000FFF71EFB029000E0FFE7FFE7FFE7FFE770
:10374000FFE70298A0B1FFE70498406880B1FFE767
:1037500000208DF80F0005980299049B1A68D3F891
:1037600004C0DB69EE46CEF800C000F043F8FFE786
:1037700005980499096800F09BF8FFE79DF80F0091
:1037800006B080BD81B000900098C069C0F3001001
:1037900001B0704781B000900098C069C0F38050BC
:1037A00001B0704781B000900098C069C0F340102C
:1037B00001B0704781B000900098C069C0F34050DC
:1037C00001B0704781B000900098C069C0B2C009D4
:1037D00001B0704781B000900098006800F00100CF
:1037E00001B0704781B000900098406AC0B201B04B
:1037F0007047000086B0DDF818C005900491039270
:10380000029303980C2801D3FFE741E0069808B91A
:10381000FFE73CE00298B0F5004F23D1FFE70498A2
:103820009DF80C2047F23031C0F6000151F822100B
:10383000B0FBF1F04000069900EB5100B0FBF1F055
:1038400080B2019001984FF6F07108400090019805
:1038500000F00E01009840EA510000900098059990
:10386000C86013E004989DF80C2047F23031C0F690
:10387000000151F82210B0FBF1F0069900EB510065
:10388000B0FBF1F080B20599C860FFE7FFE7FFE702
:1038900006B0704782B0019000910198806820F4D2
:1038A0004070009908430199886002B07047000099
:1038B00082B0019000910198C06A20F00F00BDF81D
:1038C000001008430199C86202B0704783B00290AB
:1038D0000191FFE7FFE7029850E8020F20F06060D7
:1038E000019940EA41600090FFE70099029A42E89E
:1038F00002100028EFD1FFE7FFE703B07047000098
:1039000082B0019000910198406820F440500099E5
:1039100008430199486002B07047000083B00290EC
:103920000191FFE7FFE7029850E8020F20F06040A6
:10393000019940EA41700090FFE70099029A42E83D
:1039400002100028EFD1FFE7FFE703B07047000047
:1039500082B001908DF803109DF8030001998862F0
:1039600002B0704780B5A6B000201090259024903A
:1039700023902290219020901F901E901D901C90CB
:103980001B901A90199018901790169015901490FB
:1039900013900220C0F21C00FFF7DCFB4FF4005034
:1039A0000E90FEF731FD04200D90FEF72DFD012055
:1039B0000890FEF729FD1098082109911391032121
:1039C0000F911491179040F60000C4F6000013A95F
:1039D0000A91FEF78FFF089B0A990F9A109813938C
:1039E000149217904FF090400B90FEF783FF0A99C6
:1039F0000F9B109A0B984FF0020CCDF84CC014930B
:103A00001792FEF777FF0A99DDF834C00F9B109AE2
:103A10000B98CDF84CC014931792FEF76BFFDDF8AE
:103A200024C00A990F9B109A0B98CDF84CC01493A0
:103A30001792FEF75FFF10990020C4F202000C906D
:103A40000522FEF705FF0C98109A1146FEF762FE5C
:103A50000C98109A1146FEF729FE0C98109A114600
:103A6000FEF7B4FE0C98109A1146FEF7D9FE0C989A
:103A700010998022FEF77AFE0C9810994FF480720C
:103A8000FEF70AFF0C9810994FF48062FEF786FE4D
:103A900010982390249025904FF0A040119023A9D6
:103AA000FEF740FBDDF834C00E9B0F9A1099119879
:103AB0001D91CDF878C01F912093219222911DA9CC
:103AC000FEF774FB10991198FEF74EFC10991198AF
:103AD000FEF766FC10984FF4E01119911A9040F22D
:103AE0000030C5F2000019A9FEF744FA1198FEF75C
:103AF000E1FA1198FEF706FB40F20000C2F2000066
:103B00000068800942F66351C0F23E51A0FB0110EB
:103B1000800900EB800080004CF6CD41CCF6CC4112
:103B2000A0FB0110C0081290FFE7129820B1FFE738
:103B3000129801381290F8E74FF0A0400590062146
:103B40001022C1F2C0020092FEF79EFB0099059878
:103B500003220492FEF7D2FB009905987F22079278
:103B6000FEF7E8FB05980C210822C0F6904201926E
:103B7000FEF78AFB0199049A0598FEF7BFFB0199AD
:103B80000598079AFEF7D6FB059812210422C0F685
:103B900060020292FEF778FB0299049A0598FEF7FC
:103BA000ADFB02990598079AFEF7C4FB059818210A
:103BB0000222C0F230420392FEF766FB0399049A98
:103BC0000598FEF79BFB03990598079AFEF7B2FB51
:103BD00005984FF4807140F20022C2F2B052069272
:103BE000FEF752FB049A05980699FEF787FB0598A5
:103BF0000699079AFEF79EFB26B080BD80B5A2B05D
:103C000000201090219020901F901E901D901C90DD
:103C10001B901A9019901890179016901590149068
:103C200013900220C0F21C00FFF794FA4FF40050EA
:103C30000E90FEF7E9FB04200D90FEF7E5FB012056
:103C40000C90FEF7E1FB10980221139103210F91D4
:103C50001491179040F60000C4F60000099013A9D3
:103C60000891FEF747FE0899DDF834C00F9B109AC3
:103C70000998CDF84CC014931792FEF73BFE0899B3
:103C80000F9A109880230A931393149217904FF071
:103C90009040FEF72FFE08990F9B109A09984FF05D
:103CA000100CCDF84CC014931792FEF723FE089920
:103CB0000F9B109A09984FF0200CCDF84CC014932C
:103CC0001792FEF717FE0C990020C4F202000B9029
:103CD0002422FEF7BDFD0B980C99109AFEF71AFDF1
:103CE0000B980C99109AFEF7E1FC0B980C99109A1E
:103CF000FEF76CFD0B980C99109AFEF791FD0A9A4D
:103D00000B980C99FEF732FD0B980C994FF48072CA
:103D1000FEF7C2FD0B980C994FF48062FEF73EFD52
:103D200010981F902090219040F20010C5F20000E2
:103D300011901FA9FEF7F6F9DDF834C00E9B0F9A1B
:103D4000109911981991CDF868C01B911C931D9280
:103D50001E9119A9FEF72AFA10991198FEF704FB93
:103D600010991198FEF71CFB1198FEF7A3F9119812
:103D7000FEF7C8F940F20000C2F2000000688009B6
:103D800042F66351C0F23E51A0FB0110800900EBE6
:103D9000800080004CF6CD41CCF6CC41A0FB011058
:103DA000C0081290FFE7129820B1FFE7129801387F
:103DB0001290F8E740F20010C5F2000005900621CD
:103DC00040F60002C2F630620092FEF75DFA0099FA
:103DD000059803220492FEF791FA009905987F2234
:103DE0000792FEF7A7FA05980C212022C1F2F042B3
:103DF0000192FEF749FA0199049A0598FEF77EFAB6
:103E000001990598079AFEF795FA05981221102254
:103E1000C1F2C0020292FEF737FA0299049A05989D
:103E2000FEF76CFA02990598079AFEF783FA05984F
:103E3000182140F20012C2F280120392FEF724FA17
:103E40000399049A0598FEF759FA03990598079A79
:103E5000FEF770FA05984FF480718022C1F6505237
:103E60000692FEF711FA049A05980699FEF746FAAB
:103E700005980699079AFEF75DFA22B080BD00000A
:103E800080B5A6B000201090259024902390229019
:103E9000219020901F901E901D901C901B901A90B6
:103EA0001990189017901690159014901390022066
:103EB000C0F21E00FFF74EF94FF48040FEF7A4FA5F
:103EC0001020FEF7A1FA109880210A911391032186
:103ED0000F911491179041F20000C4F60000099070
:103EE00013A90891FEF706FD08990F9B109A0998EF
:103EF0004FF4807CCDF82CC0CDF84CC014931792B1
:103F0000FEF7F8FC08990F9B109A09984FF4007C73
:103F1000CDF84CC014931792FEF7ECFC08990F9B58
:103F2000109A09984FF4806CCDF838C0CDF84CC089
:103F300014931792FEF7DEFC08990F9B109A0998CC
:103F40004FF4006CCDF84CC014931792FEF7D2FCDE
:103F50000020C4F202000C9002210D912522FEF7F0
:103F600077FC0C980D99109AFEF7D4FB0C980D99DC
:103F7000109AFEF79BFB0C980D99109AFEF726FC01
:103F80000C980D99109AFEF74BFC0A9A0C980D9913
:103F9000FEF7ECFB0B9A0C980D99FEF77DFC0C9844
:103FA0000D990E9AFEF7FAFB109823902490259015
:103FB00040F20040C5F20000119023A9FEF7B2F8CC
:103FC0000F9A109911981D9104231E931F914FF47D
:103FD00000532093219222911DA9FEF7E7F8109932
:103FE0001198FEF7C1F910991198FEF7D9F91098B8
:103FF0004FF4E01119911A9040F20070C5F20000E0
:1040000019A9FDF7B7FF1198FEF754F81198FEF7BC
:1040100079F840F20000C2F200000068800942F620
:104020006351C0F23E51A0FB0110800900EB8000FB
:1040300080004CF6CD41CCF6CC41A0FB0110C0086D
:104040001290FFE7129820B1FFE712980138129002
:10405000F8E740F20040C5F200000590062148F262
:104060000002C3F6F0620092FEF70EF9009905987F
:1040700003220492FEF742F9009905987F220792E5
:10408000FEF758F905980C2144F20002C3F6C0224D
:104090000192FEF7F9F80199049A0598FEF72EF9B6
:1040A00001990598079AFEF745F90598122104220F
:1040B000C0F660020292FEF7E7F80299049A0598AA
:1040C000FEF71CF902990598079AFEF733F905984F
:1040D00018214022C1F620120392FEF7D5F8039969
:1040E000049A0598FEF70AF903990598079AFEF7CE
:1040F00021F905984FF480711022C1F2C002069296
:10410000FEF7C2F8049A05980699FEF7F7F80598A5
:104110000699079AFEF70EF926B080BD80B5A2B0C9
:1041200000201090219020901F901E901D901C90B8
:104130001B901A9019901890179016901590149043
:1041400013900220C0F21E00FFF704F84FF48040E5
:104150000990FEF759F90220FEF756F90820FEF7FC
:1041600053F910984FF48051139103210F9114913A
:10417000179040F20040C4F600000A9013A90B917A
:10418000FEF7B8FBDDF824C00B990F9B109A0A9834
:10419000CDF84CC014931792FEF7ACFB0B990F9B14
:1041A000109A0A984FF4004CCDF84CC01493179213
:1041B000FEF7A0FB0B990F9A10984FF480730D93A4
:1041C00013931492179040F60040C4F600000C9030
:1041D000FEF790FB0B990F9B109A0C984FF4007C04
:1041E000CDF84CC014931792FEF784FB0F99002072
:1041F000C4F202000E902622FEF72AFB0E980F99B9
:10420000109AFEF787FA0E980F99109AFEF74EFA59
:104210000E980F99109AFEF7D9FA0E980F99109AE6
:10422000FEF7FEFA0E980F998022FEF79FFA0D9A7C
:104230000E980F99FEF730FB0E980F994FF480629D
:10424000FEF7ACFA10981F902090219040F2005099
:10425000C5F2000011901FA9FDF764FF0F9A109995
:104260001198199104231A931B914FF400531C9336
:104270001D921E9119A9FDF799FF10991198FEF74B
:1042800073F810991198FEF78BF81198FDF712FF4B
:104290001198FDF737FF40F20000C2F200000068FD
:1042A000800942F66351C0F23E51A0FB0110800923
:1042B00000EB800080004CF6CD41CCF6CC41A0FB59
:1042C0000110C0081290FFE7129820B1FFE7129882
:1042D00001381290F8E740F20050C5F20000069055
:1042E000062142F20002C3F290620192FDF7CCFF78
:1042F0000199069803220592FEF700F801990698A5
:104300007F220892FEF716F806980C2141F200026F
:10431000C3F260220292FDF7B7FF0299059A069850
:10432000FDF7ECFF02990698089AFEF703F8069845
:1043300012212022C1F2F0420392FDF7A5FF03995A
:10434000059A0698FDF7DAFF03990698089AFDF793
:10435000F1FF069818211022C1F2C0020492FDF765
:1043600093FF0499059A0698FDF7C8FF04990698EB
:10437000089AFDF7DFFF06984FF480710822C0F617
:1043800090420792FDF780FF059A06980799FDF77E
:10439000B5FF06980799089AFDF7CCFF22B080BDBB
:1043A00080B5A6B0002010902590249023902290F4
:1043B000219020901F901E901D901C901B901A9091
:1043C0001990189017901690159014901390022041
:1043D000C0F21E00FEF7BEFE4FF480400890FEF7CC
:1043E00013F80820FEF710F810984FF480610C9134
:1043F000139103210F911491179040F60040C4F6D9
:1044000000000A9013A90991FEF774FA09990F9B0D
:10441000109A0A984FF4006CCDF84CC01493179280
:10442000FEF768FA09990F9B109A0A984FF4805C7E
:10443000CDF84CC014931792FEF75CFA09990F9BC4
:10444000109A0A984FF4005CCDF838C0CDF84CC0F3
:1044500014931792FEF74EFADDF820C009990F9BCE
:10446000109A0A98CDF84CC014931792FEF742FAAE
:104470000020C4F202000B9004210D912722FEF7C8
:10448000E7F90B980D99109AFEF744F90B980D99DE
:10449000109AFEF70BF90B980D99109AFEF796F902
:1044A0000B980D99109AFEF7BBF90B980D99802285
:1044B000FEF75CF90B980D994FF48072FEF7ECF95A
:1044C0000B980C9A0D99FEF769F910982390249097
:1044D000259040F20060C5F20000119023A9FDF77D
:1044E00021FEDDF834C00E9B0F9A109911981D9192
:1044F000CDF878C01F912093219222911DA9FDF73C
:1045000055FE10991198FDF72FFF10991198FDF79E
:1045100047FF4FF4E010199040F20070C5F2000020
:1045200019A9FDF727FD1198FDF7C4FD1198FDF7B6
:10453000E9FD40F20000C2F200000068800942F686
:104540006351C0F23E51A0FB0110800900EB8000D6
:1045500080004CF6CD41CCF6CC41A0FB0110C00848
:104560001290FFE7129820B1FFE7129801381290DD
:10457000F8E740F20060C5F200000590062140F225
:104580000042C2F600220092FDF77EFE00990598D7
:1045900003220492FDF7B2FE009905987F2207924C
:1045A000FDF7C8FE05980C2140F20022C2F2B0527D
:1045B0000192FDF769FE0199049A0598FDF79EFEA8
:1045C00001990598079AFDF7B5FE0598122140F26A
:1045D0000012C2F280120292FDF756FE0299049A6E
:1045E0000598FDF78BFE02990598079AFDF7A2FE44
:1045F000059818218022C1F650520392FDF744FE1F
:104600000399049A0598FDF779FE03990598079A8E
:10461000FDF790FE05984FF4807140F60002C2F657
:1046200030620692FDF730FE049A05980699FDF770
:1046300065FE05980699079AFDF77CFE26B080BDB9
:1046400080B590B0002000900F900E900D900C90CF
:104650000B900A900990089007900690059004909E
:1046600003904FF48030FDF7CFFE0120FDF7CCFE24
:104670000098102103910321049107904FF090407E
:1046800003A9FEF737F9009A40F60000C5F20000D2
:1046900001900121C0F211210291FDF7CFFF009A94
:1046A0000198029909920A920B920D920E920F9222
:1046B00009AAFDF725FF02990198FDF701FF01986E
:1046C0000299FDF7EDFE10B080BD000080B590B0FE
:1046D000002000900F900E900D900C900B900A907F
:1046E00009900890079006900590049003904FF46D
:1046F0000030FDF789FE0120FDF786FE009840217D
:1047000003910321049107904FF0904003A9FEF715
:10471000F1F8009A40F60040C5F200000190012136
:10472000C0F211210291FDF789FF009A01980299C8
:1047300009920A920B920D920E920F9209AAFDF71E
:10474000DFFE02990198FDF7BBFE01980299FDF783
:10475000A7FE10B080BD000080B50420FDF742FE2A
:104760000120FDF73FFE80BD80B59CB00020139076
:104770001B901A90199018901790169010200F9077
:10478000FDF742FE04200490FDF73EFE20200C9031
:10479000FDF73AFE01201290FDF736FE02200B9045
:1047A000FDF732FE08200E90FDF72EFE40201090FF
:1047B000FDF72AFE40F60000C4F6000005904FF415
:1047C00000510291FEF712F905981099FEF70EF9C3
:1047D000059880211191FEF709F9129941F6000020
:1047E000C4F600000A90FEF701F90A980B99FEF74B
:1047F000FDF804990A98FEF7F9F80A980E99FEF761
:10480000F5F80A980F99FEF7F1F805984FF48071C2
:104810000891FEF7EBF805984FF400710991FEF747
:10482000E5F808994FF090400790FEF7DFF80798F9
:104830000999FEF7DBF807984FF480610691FEF7BF
:10484000D5F80A981099FEF7D1F80A981199FEF751
:10485000CDF808990A98FEF7C9F809990A98FEF761
:10486000C5F8129940F60040C4F600000D90FEF71E
:10487000BDF80B990D98FEF7B9F80D980F99FEF752
:10488000B5F80C990D98FEF7B1F80D981099FEF750
:10489000ADF80D981199FEF7A9F80E9940F2004075
:1048A000C4F600001590FEF7A1F80F991598FEF7D1
:1048B0009DF810991598FEF799F811991598FEF73B
:1048C00095F8049A12981399169217911A9041F23A
:1048D0000000C4F60000019016A91491FEF70AF832
:1048E000DDF838C0129A139B14990198CDF858C07E
:1048F00017931A92FDF7FEFFDDF83CC0129A139B46
:1049000014990198CDF858C017931A92FDF7F2FF49
:10491000DDF830C0129A139B14990198CDF858C055
:1049200017931A92FDF7E6FFDDF808C0129B139A61
:1049300014990598CDF858C01793189219921A92A5
:10494000FDF7D8FF139A149912984FF480531693D9
:1049500017921A9041F20040C4F600000390FDF750
:10496000C9FFDDF808C0129A139B14990398CDF87B
:1049700058C017931A92FDF7BDFFDDF840C0129B97
:10498000139A14990598CDF858C017931892199254
:104990001A92FDF7AFFFDDF844C0129B139A1499E9
:1049A0000598CDF858C01793189219921A92FDF7EE
:1049B000A1FF129B139A14990A98169317931892B1
:1049C00019921A92FDF796FFDDF82CC0129B139AEC
:1049D00014990A98CDF858C01793189219921A9200
:1049E000FDF788FFDDF810C0129B139A14990A98FE
:1049F000CDF858C01793189219921A92FDF77AFFC2
:104A0000DDF838C0129B139A14990A98CDF858C053
:104A10001793189219921A92FDF76CFFDDF83CC0BB
:104A2000129B139A14990A98CDF858C017931892AC
:104A300019921A92FDF75EFFDDF820C0129B139ABF
:104A400014990598CDF858C01793189219921A9294
:104A5000FDF750FFDDF824C0129B139A14990598B6
:104A6000CDF858C01793189219921A92FDF742FF89
:104A7000DDF820C0129B139A14990798CDF858C0FE
:104A80001793189219921A92FDF734FFDDF824C09B
:104A9000129B139A14990798CDF858C0179318923F
:104AA00019921A92FDF726FFDDF818C0129B139A8F
:104AB00014990798CDF858C01793189219921A9222
:104AC000FDF718FFDDF840C0129B139A14990A985D
:104AD000CDF858C01793189219921A92FDF70AFF51
:104AE000DDF844C0129B139A14990A98CDF858C067
:104AF0001793189219921A92FDF7FCFEDDF820C068
:104B0000129B139A14990A98CDF858C017931892CB
:104B100019921A92FDF7EEFEDDF824C0129B139A4B
:104B200014990A98CDF858C01793189219921A92AE
:104B3000FDF7E0FE129B139A14990D9816931793A4
:104B4000189219921A92FDF7D5FEDDF82CC0129B2F
:104B5000139A14990D98CDF858C01793189219927A
:104B60001A92FDF7C7FEDDF83CC0129B139A149908
:104B70000D98CDF858C01793189219921A92FDF714
:104B8000B9FEDDF830C0129B139A14990D98CDF838
:104B900058C01793189219921A92FDF7ABFEDDF8E0
:104BA00040C0129B139A14990D98CDF858C01793D2
:104BB000189219921A92FDF79DFEDDF844C0129BDF
:104BC000139A14990D98CDF858C01793189219920A
:104BD0001A92FDF78FFEDDF838C0129B139A1499D4
:104BE0001598CDF858C01793189219921A92FDF79C
:104BF00081FEDDF83CC0129B139A14991598CDF8EC
:104C000058C01793189219921A92FDF773FEDDF8A7
:104C100040C0129B139A14991598CDF858C0179359
:104C2000189219921A92FDF765FEDDF844C0129BA6
:104C3000139A14991598CDF858C017931892199291
:104C40001A92FDF757FE1CB080BD000080B588B0F9
:104C500000200190079006900590049003904FF477
:104C60000060FDF7F5FB019840F28F61ADF80C1084
:104C700004904FF6FF7105910690079042F60040B0
:104C8000C4F20100029003A9FEF716FB0298FEF79A
:104C9000E1FA01990298FEF701FC01990298FEF7EA
:104CA00025FC01990298FEF731FC0298FEF7E6FA1E
:104CB00008B080BD80B588B00020019007900690B4
:104CC0000590049003900120FDF7B0FB0198ADF82A
:104CD0000C0004904FF0FF31059106904FF080409A
:104CE000029003A9FEF7E8FA0298FEF7B3FA0199D9
:104CF0000298FEF7D3FB01990298FEF7F7FB0298A2
:104D0000FEF7BCFA08B080BD80B588B000200190E5
:104D1000079006900590049003900220FDF786FB13
:104D20000198ADF80C0004904FF6FF7105910690C4
:104D300040F20040C4F20000029003A9FEF7BCFA62
:104D40000298FEF787FA01990298FEF7A7FB0199EE
:104D50000298FEF7CBFB0298FEF790FA08B080BDF0
:104D600080B596B000200590159014901390129085
:104D7000119010900F900E900D900C900B900A9047
:104D8000099008904FF44000FEF732FA4FF40020EB
:104D9000FDF74CFB0420FDF737FB05984FF48061CD
:104DA00008910221069109910A900B900C90052020
:104DB00001900D9040F60000C4F60000039008A991
:104DC0000291FDF797FD019A0299059BDDF818C045
:104DD00003984FF4006ECDF820E0CDF824C00A937C
:104DE0000B930C930D92FDF785FD00F085FB059A62
:104DF000069900F08FF901463420049000F084FBFE
:104E0000049800F061FB05980E904FF4E1310F918A
:104E10001090119012900C2113911490159044F65B
:104E20000040C4F2000007900EA9FEF715FC079899
:104E3000FEF790FB06990798FEF770FD0699079814
:104E4000FEF744FD0798FEF777FB0798FEF7C2FBD5
:104E50000798FEF7A9FB0798FEF79CFBFFE744F6CF
:104E60000040C4F20000FEF7A5FC014601200090BE
:104E700059B1FFE744F60040C4F20000FEF78AFC97
:104E8000B0FA80F040090090FFE70098C00708B131
:104E9000FFE7E4E716B080BD80B596B0002005902E
:104EA0001590149013901290119010900F900E90F6
:104EB0000D900C900B900A90099008904FF0407064
:104EC000FEF796F94FF48010FDF7B0FA0420019038
:104ED000FDF79AFA0820FDF797FA05984FF48051EC
:104EE00008910221069109910A900B900C900520DF
:104EF00003900D9040F60000C4F6000008A902914E
:104F0000FDF7F8FCDDF804C00299059A069B0398AA
:104F1000CDF820C009930A920B920C920D9040F6A6
:104F20000040C4F60000FDF7E5FC00F0E5FA059A44
:104F3000069900F0EFF801463520049000F0E4FAFD
:104F4000049800F0C1FA05980E904FF4E1310F91EA
:104F50001090119012900C2113911490159045F21D
:104F60000000C4F2000007900EA9FEF775FB079839
:104F7000FEF7F0FA06990798FEF7D0FC0699079815
:104F8000FEF7A4FC0798FEF7D7FA0798FEF722FB76
:104F90000798FEF709FB0798FEF7FCFAFFE745F2D2
:104FA0000000C4F20000FEF705FC0146012000905D
:104FB00059B1FFE745F20000C4F20000FEF7EAFB3A
:104FC000B0FA80F040090090FFE70098C00708B1F0
:104FD000FFE7E4E716B080BD80B596B000200590ED
:104FE0001590149013901290119010900F900E90B5
:104FF0000D900C900B900A90099008904FF440305F
:10500000FEF706F94FF48040FDF722FA1020FDF775
:10501000FBF90598012108910221069109910A9056
:105020000B900C90072002900D9041F20000C4F606
:105030000000049008A90391FDF75CFC029A039913
:10504000059BDDF818C00498CDF820C0CDF824C029
:105050000A930B930C930D92FDF74CFC05980E9060
:105060004FF4E1310F911090119012900C21139197
:105070001490159043F60000C4F2010007900EA9A9
:10508000FEF7EAFA06990798FEF748FC0699079892
:10509000FEF71CFC0798FEF75DFA0798FEF74CFA3E
:1050A0000798FEF797FA0798FEF77EFA0798FEF73B
:1050B00071FAFFE743F60000C4F20100FEF77AFB45
:1050C00001460120019059B1FFE743F60000C4F208
:1050D0000100FEF75FFBB0FA80F040090190FFE7A6
:1050E0000198C00708B1FFE7E4E700F005FA0322E2
:1050F000114600F00FF801462520009000F004FA58
:10510000009800F0E1F916B080BD0000FFE7FEE76F
:10511000FFE7FEE788B0079006910592079800F038
:10512000070004900498C0F10700052803D3FFE7A7
:105130000420019004E00498C0F107000190FFE70B
:105140000198039004980430062803D8FFE7002054
:10515000009003E0049803380090FFE70098029065
:1051600006980399012202FA01F101390840029BD5
:10517000984005999A40013A1140084308B0704799
:105180007047000080B582B0019001980090FDF753
:10519000C7FD01460098C9B20A0947F20831C0F6B6
:1051A0000001895C01F01F01C84002B080BD000011
:1051B00080B582B0019001980090FDF7B9FD0146DD
:1051C00000980A0A47F21831C0F60001895C01F024
:1051D0001F01C84002B080BD80B582B00190019827
:1051E0000090FDF7ADFD01460098CA0A47F218315C
:1051F000C0F60001895C01F01F01C84002B080BD0B
:1052000080B582B0FDF7ACFD01460091042808D0BE
:10521000FFE7009808280AD0FFE700980C280CD078
:105220000FE042F20040C0F2F40001900FE042F2C1
:105230000040C0F2F400019009E000F00BF801908A
:1052400005E042F20040C0F2F4000190FFE701984F
:1052500002B080BD80B586B0FDF75CFF0490049875
:105260000390022804D0FFE70398032806D00BE040
:1052700042F20040C0F2F40005900BE042F2004020
:10528000C0F2F400059005E042F20040C0F2F400E4
:105290000590FFE705980090FDF744FF0146009850
:1052A00048430190FDF72EFF02460198012101EBD2
:1052B0001211B0FBF1F00290FDF73CFF014602989D
:1052C0004A0E022101EB4201B0FBF1F006B080BDB5
:1052D0007047000080B540F2A461C2F20001086886
:1052E0000130086000F08EFB80BD000080B584B006
:1052F0000420FDF7F1FAFFE7FDF7E6FA042801D0F4
:10530000FFE7F9E7FDF702FDFDF798FEFFE7FDF780
:105310009FFE012801D0FFE7F9E7FDF7B1FEFFE7A7
:10532000FDF7B8FE012801D0FFE7F9E703201021BF
:105330002A220023FDF7B6FEFDF7DAFEFDF7CEFECA
:10534000FFE7FDF7FFFE012801D0FFE7F9E70320A3
:10535000FDF740FF8020FDF713FFFFE7FDF7F8FCA6
:105360000C2801D0FFE7F9E755200390FFE70398E9
:1053700028B1FFE7FFE7039801380390F7E7002023
:105380000190FDF7FDFE0198FDF708FF0198FDF77C
:1053900013FF47F60020C0F603200290FDF786FCBD
:1053A0000298FDF745FF04B080BD00004EF688511D
:1053B000CEF20001086840F47000086070470000F9
:1053C00080B501F07FF980BD80B501F0FBF980BDAB
:1053D00080B543F60000C4F20100FEF7E3F9D0B156
:1053E000FFE7FFE743F60000C4F20100FEF7DAF939
:1053F00070B1FFE743F60000C4F20100FEF7F2F9D6
:10540000014640F2CC30C2F20000FCF70DFA00E099
:1054100000E0E7E7FFE743F60000C4F20100FEF713
:10542000D1F958B3FFE7FFE743F60000C4F20100EB
:10543000FEF7C8F9F8B1FFE740F21C40C2F20000E5
:10544000FCF7B0FB01280EDBFFE740F21C40C2F284
:105450000000FCF7CDF9014643F60000C4F201005C
:10546000FEF776FA06E043F60000C4F20100FEF70C
:105470007BF802E000E000E0D6E7FFE743F600003B
:10548000C4F20100FEF77EF9D0B1FFE7FFE743F673
:105490000000C4F20100FEF785F970B1FFE743F6A2
:1054A0000000C4F20100FEF79DF9014640F2CC3045
:1054B000C2F20000FCF7B8F900E000E0E7E7FFE720
:1054C00080BD0000FFE7FEE781B08DF803009DF985
:1054D000030000280ED4FFE79DF9031001F01F021E
:1054E000012090404A094EF20011CEF2000141F82D
:1054F0002200FFE701B070474EF60C50CEF20000DC
:105500000068C0F30220704782B08DF80700009158
:105510009DF9070000280AD4FFE7009800019DF9D3
:1055200007104EF20042CEF2000288540BE00098C1
:1055300000019DF8071001F00F014EF61452CEF253
:1055400000028854FFE702B07047000083B0029069
:10555000029800F0070000904EF60C51CEF20001C8
:105560000868019001984FF6FF02104001900198E1
:10557000009A40EA02200022C0F2FA521043019041
:105580000198086003B07047BFF34F8F4EF60C517F
:10559000CEF20001086800F4E0600422C0F2FA5282
:1055A00010430860BFF34F8FFFE700BFFDE7000027
:1055B00081B0009001B0704784B00390ADF80A103C
:1055C000002001900090FFE70098072811D8FFE71E
:1055D0000398BDF80A10009A02EB8202114430F8D9
:1055E0001110019808440190FFE7009801300090E5
:1055F000EAE70198C0F3CF0004B0704785B0ADF87A
:1056000012008DF8111040F24060C2F200000068F4
:1056100045F27861C1F23421884215D1FFE7BDF827
:10562000120000EE100AB8EEC00A9DF8111040F208
:105630004060C2F2000000EB810090ED011A30EEF4
:10564000010A8DED000A08E0BDF8120000EE100A14
:10565000B8EE400A8DED000AFFE79DED000A9FEDD0
:10566000251A20EE010A9FED241A80EE010A8DED25
:10567000020A9DED020AB0EE081A80EE010A8DEDD5
:10568000020A9DED022A9FED1D0A22EE000A9FEDFF
:105690001C1A31EE421A80EE010A9FED1A1A30EE02
:1056A000010A9FED191A30EE010A8DED010A9DEDF8
:1056B000010A9FED161AB4EE410AF1EE10FA06DD6A
:1056C000FFE74EF60000C4F27D700190FFE79DED0C
:1056D000010AB5EE400AF1EE10FA03DAFFE7002006
:1056E0000190FFE79DED010ABDEEC00A10EE100A21
:1056F00005B0704700404E450000804500401C4604
:10570000000096440000C8C2CDCC4CBE00E87D47E6
:1057100080B582B000200190FFE70198172817DCC0
:10572000FFE7019940F28C00C2F2000030F811004E
:1057300000F01CF8019940F24060C2F2000000EB5A
:10574000810080ED010AFFE7019801300190E4E754
:1057500040F24061C2F2000145F27860C1F23420AB
:10576000086001F0D9F802B080BD000083B0ADF848
:105770000A0040F2A860C2F2000042F62D51C4F2C5
:105780008D21016090ED000A9FED0E1A80EE010A56
:105790009FED0D1A20EE010A8DED000A9DED000A25
:1057A000BDF80A0001EE100AB8EE411A30EE410AC7
:1057B00040F23C60C2F2000080ED000A90ED000A69
:1057C00003B0704700404E4500F07F4580B582B081
:1057D00041F20040C4F600004FF48051FDF7F8F8A4
:1057E00020B9FFE701208DF8070003E000208DF8C5
:1057F0000700FFE79DF8070002B080BD80B582B0CA
:1058000000F0E8F80A2000F0C1FB00F0EDFE642093
:10581000019000F0BBFB00F007FF052000F0B6FB95
:1058200000F0E2FE019800F0B1FB00F0FDFE00F098
:10583000D1F802B080BD000080B586B040F2814052
:10584000C2F20000007801460591072800F2BE80F0
:105850000599DFE801F00420385988AFBB92FFF7C3
:10586000B5FFB8B1FFE747F27F50C0F60000FAF786
:105870007BFD40F28141C2F200010120087000F07E
:10588000C9FC00F07DFE40F28041C2F20001002020
:105890000870FFE79BE0FFF799FF98B1FFE747F239
:1058A0008A50C0F60000FAF75FFD40F28141C2F273
:1058B000000102200870012000F01CFD142000F0FF
:1058C00065FBFFE783E040F28141C2F20001032063
:1058D0000870FBF7C7FD0020049000F0F3FF0220E2
:1058E00000F008FD012000F051FB049800F09AFD43
:1058F000142000F04BFB00F0BDFE47F29850C0F6BC
:105900000000FAF731FD62E0FFF778FF0120039015
:1059100000F0F0FC1420019000F038FBFBF7A2FD32
:10592000022000F0E7FC039800F0CCFF0520029075
:1059300000F02CFB039800F075FD019800F026FBA9
:1059400047F2B750C0F60000FAF70EFD029903982F
:1059500040F28142C2F20002117040F28041C2F274
:105960000001087033E0012000F010FB40F281419B
:10597000C2F200010520087029E000F055FE0A205F
:10598000009000F003FB012000F0B4FC009800F050
:10599000FDFAFBF767FD022000F0ACFCFFF7B8FE54
:1059A000642000F0F3FA40F28141C2F200010020CD
:1059B00008700CE0FFF70AFF38B9FFE740F28141B9
:1059C000C2F2000101200870FFE700E0FFE706B027
:1059D00080BD000080B584B040F20040C4F60000F5
:1059E000019040210291FDF709F80A20039000F090
:1059F000CDFA01980299FDF787F8039800F0C6FAEE
:105A000004B080BD80B500F093F900F02BFA80BDA2
:105A100083B00290ADF806104FF6FF70ADF80400A9
:105A20000020ADF80200FFE7BDF80200BDF8061047
:105A300088421DDAFFE7BDF804000299BDF8022094
:105A4000895C48408DF801009DF805009DF8012013
:105A500047F26031C0F6000131F812104840ADF84D
:105A60000400FFE7BDF802000130ADF80200DBE7FB
:105A7000BDF8040003B0704780B584B040F2CC306C
:105A8000C2F20000FCF78EF8012801DCFFE785E098
:105A900040F2CC30C2F200000190FBF7A9FE0146B3
:105AA00001988DF80A10FBF7A3FE8DF80B00FFE7B5
:105AB00040F2CC30C2F20000FCF774F8012807DB9A
:105AC000FFE740F2CC30C2F20000FBF791FE00E0AD
:105AD00000E0EDE79DF80A009DF80B10884201D028
