:020000040800F2
:100000006814002079020008E53F00084D0E000842
:10001000E13F00088D060008FD4C000800000000CC
:10002000000000000000000000000000F54800088B
:10003000250700080000000001460008E54A000806
:10004000930200089302000893020008930200083C
:10005000930200089302000893020008930200082C
:10006000930200089302000893020008DD060008CE
:10007000E1060008E5060008E9060008ED060008AC
:1000800093020008930200089302000893020008FC
:1000900093020008930200089302000893020008EC
:1000A00093020008930200089302000893020008DC
:1000B00093020008930200089302000893020008CC
:1000C00093020008930200089302000893020008BC
:1000D00093020008E14B0008930200089302000815
:1000E000930200089302000893020008930200089C
:1000F000930200089302000893020008930200088C
:10010000930200089302000893020008930200087B
:10011000D14B0008D94B0008930200089302000855
:10012000930200089302000893020008930200085B
:10013000930200089302000893020008930200084B
:10014000930200089302000893020008930200083B
:10015000930200089302000893020008930200082B
:10016000930200089302000893020008930200081B
:10017000930200089302000893020008930200080B
:1001800093020008930200089302000893020008FB
:100190009302000800000000930200089302000888
:1001A00093020008930200089302000893020008DB
:1001B00093020008930200089302000893020008CB
:1001C00093020008930200089302000893020008BB
:1001D000930200089302000800F002F800F03CF8D7
:1001E0000AA090E8000C82448344AAF10107DA4592
:1001F00001D100F031F8AFF2090EBAE80F0013F0A8
:10020000010F18BFFB1A43F0010318476C6500008B
:100210008C650000103A24BF78C878C1FAD852071C
:1002200024BF30C830C144BF04680C607047000070
:100230000023002400250026103A28BF78C1FBD8EF
:10024000520728BF30C148BF0B6070471FB506F08A
:100250005AF91FBD10B510BD00F033F81146FFF775
:10026000F5FF05F06FFC00F051F803B4FFF7F2FF63
:1002700003BC04F0B9FD0000094880470948004765
:10028000FEE7FEE7FEE7FEE7FEE7FEE7FEE7FEE746
:10029000FEE7FEE704480549054A064B70470000A3
:1002A000BD4B0008D9010008680E0020681400202A
:1002B0006810002068100020704770477047704732
:1002C0007047754600F02CF8AE4605006946534667
:1002D00020F00700854618B020B5FFF7DBFFBDE82A
:1002E00020404FF000064FF000074FF000084FF09D
:1002F000000BAC46ACE8C009ACE8C009ACE8C009EA
:10030000ACE8C00921F007018D46704710B50446DE
:10031000AFF300802046BDE81040FFF7A6BF000005
:10032000004870474800002080B596B00020C4F215
:1003300002001290002114912822099201F04EF936
:10034000099A129801210F9101F048F9099A12981F
:100350000221109101F042F9099A1298032111919A
:1003600001F03CF9099A12980421139101F036F931
:100370001298149901F008F90F99129801F004F9F4
:100380001099129801F000F91199129801F0FCF8F7
:100390001298139901F0F8F84FF0A0400A9000F07D
:1003A00011FF40F20010C5F200000B9000F00AFFB0
:1003B00040F20040C5F200000C9000F003FF40F254
:1003C0000050C5F200000D9000F0FCFE40F200600D
:1003D000C5F200000E9000F0F5FE109805F058FAF6
:1003E0000A9800F0FDFE0B9800F0FAFE0C9800F061
:1003F000F7FE0D9800F0F4FE0E9800F0F1FE129852
:10040000149901F0AFF80F99129801F0ABF8109918
:10041000129801F0A7F81199129801F0A3F8129818
:10042000139901F09FF814981590FFE71598032889
:1004300014DCFFE7BDF8541040F21C20C2F20000AB
:1004400004F0D6FC159A40F2AC01C2F2000121F88A
:100450001200FFE7159801301590E7E7002015908E
:10046000FFE71598042815DCFFE7BDF8541040F2AB
:10047000CC10C2F2000004F0BBFC159A40F2AC01B3
:10048000C2F2000101EB42010881FFE7159801303B
:100490001590E6E740F27C10C2F2000000900021C7
:1004A000029104F0A5FC0146009840F2AC02C2F2B1
:1004B0000002079251820121039104F099FC079AEE
:1004C0000146009891820221049104F091FC079A60
:1004D00001460098D1820321059104F089FC079A16
:1004E0000146009811830421089104F081FC0299CF
:1004F000079A508340F22C10C2F20000019004F0E1
:1005000077FC0399079B024601989A8304F070FCDC
:100510000499079B02460198DA8304F069FC059967
:10052000079B024601981A8404F062FC079B089915
:10053000024601989A8504F05BFC0299079AD085DF
:1005400040F2DC00C2F20000069004F051FC039976
:10055000079B024606985A8404F04AFC0499079BBC
:10056000024606989A8404F043FC0599079B0246CC
:100570000698DA8404F03CFC079B0899024606982A
:100580001A8504F035FC079A0899508540F21C2022
:10059000C2F2000004F02CFC40F2A801C2F20001FB
:1005A000088016B080BD000080B584B003900020A4
:1005B0000290039800F06AFD002846D1FFE70398F7
:1005C00000F0F8FC039800F01DFD40F20400C2F2B8
:1005D00000000068800942F66351C0F23E51A0FB62
:1005E0000110800900EB800080004CF6CD41CCF674
:1005F000CC41A0FB0110C0080290FFE7029820B197
:10060000FFE7029801380290F8E703987F2100F095
:1006100055FE0A2004F08EFFFFE7039800F02EFD40
:1006200008B1FFE7F9E71420019004F083FF039875
:1006300000F0CCFC019804F07DFFFFE7039800F088
:1006400015FD08B9FFE7F9E7FFE704B080BD00003A
:1006500080B582B005F014FD40F22800C2F200001F
:100660000190408905F014F9012005F0CFFA0198B6
:10067000808905F00DF9FFF757FE0198C08905F054
:1006800007F9022005F0C2FA02B080BDFFE7FEE7DD
:1006900080B586B005900491ADF80E2005984068AD
:1006A000029000200190FFE70198BDF80E108842EB
:1006B0000BDAFFE7059800F01BF80499019A8854BB
:1006C000FFE7019801300190EEE70598406801903E
:1006D000029805994860019806B080BD70470000F7
:1006E000704700007047000070470000704700002E
:1006F00082B00190019841688068405C8DF80300E9
:10070000019948680130486001994868C968884281
:1007100004DBFFE7019900204860FFE79DF8030034
:1007200002B070477047000082B001908DF803104E
:100730009DF8030001990A6889688854019908683E
:100740000130086001990868C968884204DBFFE746
:10075000019900200860FFE702B0704781B040F2C5
:100760000800C2F20000007F8DF803009DF803002E
:10077000012805D0FFE79DF8030003281FD1FFE7FC
:1007800042F20001C4F20201086820F4007008601F
:10079000FFE742F20001C4F20201086840F4006081
:1007A0000860086820F400600860FFE742F200017A
:1007B000C4F20201086840F400700860FFE79DF889
:1007C0000300022805D0FFE79DF80300032817D196
:1007D000FFE7FFE742F20001C4F20201086840F4BB
:1007E00080500860086820F480500860FFE742F2FB
:1007F0000001C4F20201086840F480600860FFE76D
:1008000040F20801C2F200010020087701B07047F1
:1008100081B0009042F22000C4F202000068400261
:1008200000281ED5FFE79DF80000C00748B1FFE78C
:1008300042F21401C4F20201086840F004000860AA
:10084000FFE79DF800008007002809D5FFE742F286
:100850001401C4F20201086840F400400860FFE798
:1008600009E042F21401C4F20201086848F20402ED
:1008700010430860FFE742F21401C4F20201086865
:1008800040F48030086001B07047000082B00190F1
:10089000009142F22000C4F20200006840020028E9
:1008A00009D4FFE742F21401C4F20201086820F4FF
:1008B0000060086017E09DF80000C00748B1FFE73E
:1008C00042F21401C4F20201086820F400600860DA
:1008D00008E042F21401C4F20201086840F400602A
:1008E0000860FFE7FFE742F21401C4F20201086862
:1008F00020F47E709DF8042040EAC2000860086879
:1009000040F002000860086840F48030086002B0DF
:100910007047000084B003900193009242F21401EA
:10092000C4F20201086840F00100086000980399D1
:100930000860BFF36F8F01980399486004B0704757
:1009400089B00590049140208DF80F000598029021
:100950000498019042F21401C4F20201086840F4C4
:1009600080200860EFF31080069006980090EFF367
:10097000108072B60790FFE701980068029908603E
:100980000298043002900198043001909DF80F0005
:1009900001388DF80F00FFE79DF80F000028EBD11C
:1009A000FFE700980890089880F3108809B0704716
:1009B00080B584B0029000F043FA0190FFE742F264
:1009C0001000C4F202000068C00300280DD5FFE744
:1009D00000F036FA0199401A0299884204D9FFE7DB
:1009E00003208DF80F0058E0E9E742F21000C4F24E
:1009F000020000684CF2FA3108400090009860B3A1
:100A0000FFE7009A40F20801C2F200014868104373
:100A10004860FFE79DF8030010F0F00F0BD0FFE7F0
:100A2000009800F0704242F21801C4F20201086816
:100A300010430860FFE70098000148B1FFE7009805
:100A400020F0704042F21001C4F202010860FFE79A
:100A5000FFE701208DF80F001FE0012040B9FFE7FC
:100A600042F21800C4F202000068C00740B910E06A
:100A700042F21000C4F202000068C00748B1FFE76C
:100A8000FFE742F21001C4F2020101200860FFE713
:100A9000FFE700208DF80F00FFE79DF80F0004B07E
:100AA00080BD000082B000900099086849688842C3
:100AB00006DBFFE7009908684968401A019007E0E3
:100AC000009801684268C068801A08440190FFE7F6
:100AD000019802B07047000080B586B00490039181
:100AE000FFE740F20800C2F200000078012804D1BC
:100AF000FFE702208DF81700BDE040F20801C2F2C6
:100B0000000101200870FFE7FFE74FF47A70FFF75C
:100B10004FFF8DF80B009DF80B00002840F09E80E1
:100B2000FFE740F20801C2F200010020486042F2F3
:100B30000000C4F2020000688005002820D5FFE70D
:100B400042F20000C4F202000068400500280FD500
:100B5000FFE742F20001C4F20201086820F480605D
:100B6000086040F20801C2F200010320087706E0A5
:100B700040F20801C2F2000101200877FFE71FE000
:100B800042F20000C4F202000068400500280FD5C0
:100B9000FFE742F20001C4F20201086820F480601D
:100BA000086040F20801C2F200010220087706E066
:100BB00040F20801C2F2000100200877FFE7FFE7DA
:100BC00004980068012814D1FFE704984068FFF7F3
:100BD0001FFE4FF47A70FFF7EBFE8DF80B0042F228
:100BE0001401C4F20201086848F20402904308604C
:100BF00031E003994FF0FF3008600498806801905D
:100C0000FFE70198049A9168D2681144884221D282
:100C1000FFE7019804994968FFF738FE4FF47A70AE
:100C2000FFF7C6FE8DF80B0042F21401C4F2020178
:100C3000086840F2FA32904308609DF80B0020B13A
:100C4000FFE701980399086004E0FFE7019801308D
:100C50000190D6E7FFE7FFF781FDFFE7FFE740F2EE
:100C60000801C2F2000100200870FFE79DF80B00A8
:100C70008DF81700FFE79DF8170006B080BD000053
:100C800040F20800C2F200004068704781B00120C5
:100C90008DF8030042F21400C4F20200016841F032
:100CA000004101600068C00F20B1FFE700208DF80F
:100CB0000300FFE79DF8030001B0704780B588B0DE
:100CC000069005910393029200200090FFE740F206
:100CD0000800C2F200000078012804D1FFE70220DA
:100CE0008DF81F007BE040F20801C2F200010120F4
:100CF0000870FFE7FFE74FF47A70FFF759FE8DF8B1
:100D000007009DF8070000285CD1FFE740F20801CA
:100D1000C2F200010020486042F20000C4F202006A
:100D20000068400500280FD5FFE742F20001C4F239
:100D30000201086820F48060086040F20801C2F2F5
:100D400000010220087706E040F20801C2F200012B
:100D500000200877FFE7069840B9FFE70598029A58
:100D6000039BFFF7D7FD0120009016E006980128AD
:100D700004D0FFE7069802280DD1FFE705980299F5
:100D8000FFF7DEFD0698022804D1FFE74FF480202C
:100D90000090FFE700E0FFE7FFE74FF47A70FFF70E
:100DA00007FE8DF80700009848B1FFE7009A42F26D
:100DB0001401C4F20201086890430860FFE7FFF7DE
:100DC000CDFCFFE7FFE740F20801C2F2000100207E
:100DD0000870FFE79DF807008DF81F00FFE79DF8FA
:100DE0001F0008B080BD000081B000208DF8030016
:100DF00042F21400C4F202000068C00FD8B1FFE74D
:100E000042F20801C4F2020140F22310C4F267501A
:100E1000086048F6AB10CCF6EF50086042F21400C0
:100E2000C4F202000068C00F20B1FFE701208DF876
:100E30000300FFE7FFE79DF8030001B070470000E3
:100E400040F65C60C2F2000000687047FFE7FEE712
:100E500083B00290019100920299002048600299AB
:100E6000086001980299886000980299C86003B0F0
:100E70007047000080B588B00790069100208DF87B
:100E800017000698406808B1FFE7FFE7079840F2AF
:100E90000031C5F20001884210D1FFE74FF0A040B9
:100EA00000F0FCF8039040F20010C5F2000000F0E2
:100EB000F5F801460398084304901BE040F2004017
:100EC000C5F2000000F0EAF8019040F20050C5F2CF
:100ED000000000F0E3F8014601980843029040F258
:100EE0000060C5F2000000F0D9F8014602980843FE
:100EF0000490FFE7049838BBFFE706984068A8B164
:100F0000FFE70798806843F2E001CFF6C071084020
:100F1000069A1168D2F804C09368D26841EA0C01BD
:100F2000194311430843079988600CE007988068CB
:100F300043F2E001CFF6C071084006990968084302
:100F400007998860FFE703E001208DF81700FFE7AD
:100F50009DF8170008B080BD84B0039002910298FC
:100F600020B9FFE70398403001901FE0039901206A
:100F7000B1F1A04F00900BD0FFE703984FF600713E
:100F8000CAF6FF710844B0FA80F040090090FFE70C
:100F90000098C10740F20C70C5F2000000291CBF88
:100FA00040F20C30C5F200000190FFE7019804B058
:100FB0007047000081B00090009988684FF6C072B9
:100FC000C5F6FF721040886001B0704781B0009094
:100FD000009880684FF6C071C7F6FF710840013075
:100FE0000099886001B0704781B0009000988068D7
:100FF0004FF6C071C7F6FF71084001300099886054
:1010000001B0704781B000900098806840F0805037
:101010004FF6C071C7F6FF7108400099886001B0B3
:101020007047000080B584B00390029100208DF8D5
:101030000700039800F032F878B9FFE70398C0681A
:101040004CF218018843029A116853689268194358
:10105000114308430399C86003E001208DF807009D
:10106000FFE79DF8070004B080BD000081B000904C
:101070000098006800F0010001B0704781B0009056
:1010800000988068C00F01B07047000081B00090E8
:101090000098806800F0010001B0704781B00090B6
:1010A0000098806800F0010001B0704780B584B0FE
:1010B0000390029100208DF807000298406808B163
:1010C000FFE7FFE70398FFF7E9FFC0BBFFE70298E0
:1010D0004068C8B1FFE70398C0684CF21C01CFF626
:1010E000F0710840029A1168D2F808E0D2F80CC0FA
:1010F000136941EA0E0141EA0C0119435269114397
:1011000008430399C86014E00398C0684CF21C01BE
:10111000CFF6F0710840029A1168D2F80CC013693A
:10112000526941EA0C011943114308430399C8600D
:10113000FFE703980299496800F018F803E00120DE
:101140008DF80700FFE79DF8070004B080BD0000A0
:1011500082B0019000910198C06820F003000099CE
:1011600008430199C86002B07047000082B0019046
:1011700000910198006B20F00F000099084301993D
:10118000086302B07047000084B00390029101929E
:101190000398029901F4407100EB911030300090F7
:1011A00000980068029901F01F021F2191408843B6
:1011B0000199C1F38461914008430099086004B02B
:1011C0007047000081B00090009880684FF6C071B1
:1011D000C7F6FF71084004300099886001B070477D
:1011E00081B00090009880684FF6C071C7F6FF711B
:1011F000084010300099886001B0704784B00390B7
:10120000029101920398029901F0007100EBD15014
:1012100014300090009800680299C1F3045207212D
:10122000914088430199914008430099086004B0B7
:101230007047000083B00290019100920298D0F8AC
:10124000B00001996FF3DF418843009A02F0180360
:101250004FF6FF72C0F20702DA40114008430299CC
:10126000C1F8B00003B0704782B0019000910198BE
:10127000D0F8C00043F6FF718843009908430199F4
:10128000C1F8C0000198006920F48031009A01F58E
:101290008030002A08BF08460199086102B07047F3
:1012A00082B0019000910198006940F203418843A7
:1012B000009908430199086102B0704782B001901B
:1012C0000091019880684FF6C071C3F6FF7101402C
:1012D000009800F08040084400F1004001998860C7
:1012E00002B0704782B00190019A41F24800C4F206
:1012F00002000168114301600068019908400090F4
:10130000009802B07047000082B00190019A41F24B
:101310004C00C4F2020001681143016000680199A9
:1013200008400090009802B07047000082B0019021
:10133000019A41F25800C4F20200016811430160B1
:101340000068019908400090009802B070470000C2
:1013500082B00190019A41F26000C4F2020001687B
:10136000114301600068019908400090009802B0A4
:101370007047000084B00390029101920398029993
:10138000090F00EB8100083000900098006840F6DB
:10139000FF718843019908430099086004B07047C1
:1013A00082B001900091009800F010014FF480701D
:1013B00000FA01F20199C86B9043C86302B070470C
:1013C00082B001900091009800F01001022000FA14
:1013D00001F2019908689043086002B0704700006C
:1013E00082B001900091009800F01001012000FAF5
:1013F00001F2019908681043086002B070470000CC
:1014000080B584B003900291019200208DF8030012
:101410000198806808B1FFE7FFE70398029900F0A0
:101420007FF8002874D1FFE70198806800284BD02E
:10143000FFE701988068C0282FD1FFE70398006874
:10144000029901F01002C0219140884301998968F6
:1014500091400843039908600398006E029901F0D7
:10146000100240F60F719140884301990B68D1F842
:1014700004C06FF0C00101EA8C1141EA9301914070
:101480000843039908660198C0680399029AC2F359
:10149000C01201EB8201886515E00398006802998B
:1014A00001F0100240F6FC7191408843019B1968DD
:1014B000D3F808C0DB6841EA0C01194391400843A6
:1014C00003990860FFE70EE003980068029901F0B5
:1014D0001002FC219140884301990968914008431A
:1014E00003990860FFE70398C06B029901F01002AE
:1014F000072191408843019B1969D3F814C09B6967
:1015000041EA0C011943914008430399C86303E081
:1015100001208DF80300FFE79DF8030004B080BDB3
:1015200082B00190009101980068009901F01001CB
:10153000C84000F0010002B07047000083B0029084
:10154000019100920298C06B019901F010024FF4D2
:101550000071914088430099914008430299C86303
:1015600003B0704783B002900191029800900099F7
:10157000019A46F24050C0F60000825C885820F084
:101580000100885003B0704783B002900191029827
:1015900000900099019A46F24050C0F60000825C2B
:1015A000885840F00100885003B0704784B0039021
:1015B00002910192039800900098029946F23852E5
:1015C000C0F60002515C405820F440500199084395
:1015D0000099029BD25C885004B0704784B003909D
:1015E00002910192039800900098029946F24052AD
:1015F000C0F60002515C084440684FF6FF71884312
:10160000019908430099029BD25C1144486004B0E0
:101610007047000084B003900291019203980090FB
:101620000098029946F23852C0F60002515C4058C8
:1016300044F210018843019908430099029BD25C4F
:10164000885004B07047000084B00390029101926A
:101650000398009001980099029B46F24052C0F610
:101660000002D25C1144C86004B0704784B003909B
:1016700002910192039800900098029946F2385224
:10168000C0F60002515C405820F0800001990843E8
:101690000099029BD25C885004B0704784B00390DC
:1016A00002910192039800900098029946F23852F4
:1016B000C0F60002515C405820F440600199084394
:1016C0000099029BD25C885004B0704784B00390AC
:1016D00002910192039800900098029946F23852C4
:1016E000C0F60002515C405820F0200001990843E8
:1016F0000099029BD25C885004B0704784B003907C
:10170000029101920398009001980099029B46F281
:101710004052C0F60002D25C1144886004B07047A9
:1017200084B003900291019203980090009802996E
:1017300046F23852C0F60002515C405820F040009A
:10174000019908430099029BD25C885004B070470D
:1017500084B003900291019203980021C4F2020127
:1017600041406FF0070000EAD1100090029880001D
:10177000009900EB810040F60002C4F2020280589A
:1017800020F0FF000199084302998900009B01EBBA
:101790008301885004B0704784B003900291019295
:1017A000039800900098029946F23852C0F6000261
:1017B000515C405820F44070019908430099029B05
:1017C000D25C885004B0704742F20000C4F20200BC
:1017D000006800F00F00704781B0009042F20001F5
:1017E000C4F20201086820F00F00009A104308605C
:1017F00001B0704780B586B00390029102980068EE
:1018000090FAA0F00490049820B9FFE720208DF80A
:10181000170005E00498B0FA80F08DF81700FFE794
:101820009DF817000190FFE7029800680199C840F1
:1018300000284AD0FFE702980068019A01219140F0
:10184000084000900098E0B3FFE702984068012844
:1018500005D0FFE70298406802280DD1FFE7039802
:101860000099029A926800F063F90398029A11684D
:10187000D26800F00FF9FFE703980099029A126905
:1018800000F018F902984068022813D1FFE7009889
:10189000FF2807D8FFE703980099029A526900F0E1
:1018A00035F806E003980099029A526900F06CF846
:1018B000FFE7FFE703980099029A526800F0ACF83E
:1018C000FFE7019801300190AEE7002006B080BD2F
:1018D00082B0019000910198006900990840401A77
:1018E000B0FA80F0400902B07047000082B0019069
:1018F000009100980199886202B0704782B001900F
:10190000009100980199886202B070478AB00590F2
:10191000049103920598006A0290049890FAA0F04E
:101920000690069820B9FFE720208DF81F0005E0FB
:101930000698B0FA80F08DF81F00FFE702989DF836
:101940001F108A000F219140884300900398019056
:10195000049890FAA0F00890089820B9FFE720209A
:101960008DF8270005E00898B0FA80F08DF8270080
:10197000FFE7009801999DF82720920091400843C5
:10198000059908620AB070478AB0059004910392E5
:101990000598406A02900498000A90FAA0F0069018
:1019A000069820B9FFE720208DF81F0005E0069873
:1019B000B0FA80F08DF81F00FFE702989DF81F1025
:1019C0008A000F2191408843009003980190049869
:1019D000000A90FAA0F00890089820B9FFE72020AC
:1019E0008DF8270005E00898B0FA80F08DF8270000
:1019F000FFE7009801999DF8272092009140084345
:101A0000059948620AB0704782B001900091009831
:101A10000199886102B070478AB0059004910392E1
:101A2000059800680290049890FAA0F00690069835
:101A300020B9FFE720208DF81F0005E00698B0FAD6
:101A400080F08DF81F00FFE702989DF81F104A00F4
:101A5000032191408843009003980190049890FAE4
:101A6000A0F00890089820B9FFE720208DF8270003
:101A700005E00898B0FA80F08DF82700FFE700989D
:101A800001999DF82720520091400843059908606C
:101A90000AB0704783B002900191009202984068AA
:101AA00001998843009A514308430299486003B062
:101AB000704700008AB00590049103920598C068B1
:101AC0000290049890FAA0F00690069820B9FFE7DB
:101AD00020208DF81F0005E00698B0FA80F08DF800
:101AE0001F00FFE702989DF81F104A000321914054
:101AF0008843009003980190049890FAA0F0089011
:101B0000089820B9FFE720208DF8270005E0089805
:101B1000B0FA80F08DF82700FFE7009801999DF852
:101B200027205200914008430599C8600AB07047C9
:101B30008AB00590049103920598806802900498F9
:101B400090FAA0F00690069820B9FFE720208DF8C3
:101B50001F0005E00698B0FA80F08DF81F00FFE73F
:101B600002989DF81F104A0003219140884300907D
:101B700003980190049890FAA0F00890089820B972
:101B8000FFE720208DF8270005E00898B0FA80F0E4
:101B90008DF82700FFE7009801999DF82720520053
:101BA00091400843059988600AB0704780B582B0BB
:101BB000019001984FF47A7100F002F802B080BDF4
:101BC00082B00190009101980099B0FBF1F00138CA
:101BD0004EF21401CEF2000108604EF21801CEF26E
:101BE0000001002008604EF21001CEF20001072033
:101BF000086002B07047000047F20801C4F200011B
:101C0000086840F4804008607047000047F2800197
:101C1000C4F20001086820F480700860704700007A
:101C200041F20800C4F20200006800F0F0007047C2
:101C300041F20800C4F20200006800F4E06070475E
:101C400041F20800C4F20200006800F460507047DE
:101C500041F20800C4F20200006800F00C00704776
:101C600041F20800C4F20200006800F00C00704766
:101C700080B584B00390002002900398C0283ED124
:101C8000FFE7039800F084F801460191B0F5400F9A
:101C90002BD0FFE701984021C0F2C00188420CD050
:101CA000FFE701988021C0F2C001884209D0FFE718
:101CB0000198B0F1C01F0FD018E002F07BFD029038
:101CC0001CE000F04DF930B1FFE742F20040C0F2F5
:101CD000F4000290FFE711E000F04AF920B1FFE7BD
:101CE0004FF400400290FFE708E0FFE702F062FDDA
:101CF00002F022FD02F036FD0290FFE7FFE70398B5
:101D0000B0F5407F40D1FFE7039800F041F801466D
:101D10000091B0F1407F2DD0FFE7009840F2001114
:101D2000C0F2003188420DD0FFE7009840F2002158
:101D3000C0F20031884209D0FFE70098B0F1032FCC
:101D40000FD018E002F036FD02901CE000F008F918
:101D500030B1FFE742F20040C0F2F4000290FFE72A
:101D600011E000F005F920B1FFE74FF400400290C8
:101D7000FFE708E0FFE702F01DFD02F0DDFC02F0E6
:101D8000F1FC0290FFE7FFE7029804B080BD00007D
:101D900081B0009041F28800C4F20200006800990E
:101DA000084040EA014001B07047000080B586B0AD
:101DB0000590002004900598032830D1FFE705988E
:101DC00000F0AEF8A0F540300146039103281DD87D
:101DD0000399DFE801F01A02061102F0EBFC04900F
:101DE0001CE000F0BDF830B1FFE742F20040C0F265
:101DF000F4000490FFE711E000F0BAF820B1FFE72B
:101E00004FF400400490FFE708E0FFE702F0D2FC47
:101E100002F092FC02F0BAFC0490FFE77CE0059827
:101E20000C2835D1FFE7059800F07AF8A0F540209E
:101E3000014602910C2822D80299DFE801F01F2008
:101E40002020072020200B202020160002F0B2FCCA
:101E500004901CE000F084F830B1FFE742F200404B
:101E6000C0F2F4000490FFE711E000F081F820B127
:101E7000FFE74FF400400490FFE708E0FFE702F0BF
:101E800099FC02F059FC02F06DFC0490FFE742E07F
:101E9000059830283ED1FFE7059800F041F801464B
:101EA0000191B0F5401F2BD0FFE701981021C0F23F
:101EB000300188420CD0FFE701982021C0F23001A8
:101EC000884209D0FFE70198B0F1301F0FD018E029
:101ED00002F070FC04901CE000F042F830B1FFE723
:101EE00042F20040C0F2F4000490FFE711E000F07D
:101EF0003FF820B1FFE74FF400400490FFE708E00F
:101F0000FFE702F057FC02F017FC02F02BFC0490F4
:101F1000FFE7FFE7FFE7FFE7049806B080BD00009A
:101F200081B0009041F28800C4F20200006800997C
:101F3000084040EA014001B07047000041F2000152
:101F4000C4F20201086840F4803008607047000065
:101F500041F20000C4F202000068C0F34040704744
:101F600041F20000C4F202000068C0F38020704714
:101F700041F29000C4F202000068C0F340007047D4
:101F800041F29401C4F20201086840F001000860C7
:101F90007047000041F29400C4F202000068C0F3F0
:101FA0004000704784B0039002910192009341F287
:101FB0000C01C4F20201086848F20C02CFF6FF12CD
:101FC0001040039A029B1A43019B42EA0322009BA2
:101FD0001A431043086004B07047000041F200014A
:101FE000C4F20201086840F0807008607047000089
:101FF00041F20C01C4F20201086840F080700860F0
:102000007047000041F20C00C4F20200006800F0CA
:10201000F000704741F20C00C4F20200006800F0CA
:102020000300704741F20C00C4F202000068C0F3E4
:102030000620704741F20C00C4F20200006800F074
:10204000C060704741F20000C4F202000068C0F3B3
:102050004060704781B0009041F28801C4F20201F3
:102060000868009AC2F304434FF0030C0CFA03FC17
:1020700020EA0C00D2B29A401043086001B07047C9
:1020800081B0009041F20801C4F20201086820F01A
:10209000F000009A1043086001B0704781B00090D2
:1020A00041F20801C4F20201086820F4E060009ADD
:1020B0001043086001B0704781B0009041F2080100
:1020C000C4F20201086820F46050009A10430860CE
:1020D00001B0704781B0009041F20801C4F20201E2
:1020E000086820F00300009A1043086001B07047B0
:1020F00081B0009041F28801C4F202010868009AA0
:1021000020EA124092B21043086001B0704700000C
:1021100081B0009041F28801C4F202010868009A7F
:1021200020EA124092B21043086001B070470000EC
:1021300081B00090009840F20401C2F200010860F2
:1021400001B0704781B0009000996FF00100086104
:1021500001B0704781B000900099086820F08000BD
:10216000086001B07047000081B0009000990868D5
:1021700020F00100086001B07047000081B00090BD
:102180000099886820F08000886001B070470000E6
:1021900081B000900099086840F00100086001B02B
:1021A0007047000081B000900099486940F001003C
:1021B000486101B07047000080B584B0039002917F
:1021C000039800680190039842F60041C4F20101AF
:1021D00088422DD0FFE70398B0F1804F28D0FFE769
:1021E000039840F20041C4F20001884220D0FFE78A
:1021F000039840F60001C4F20001884218D0FFE7BE
:10220000039840F60041C4F20001884210D0FFE775
:10221000039843F20041C4F20101884208D0FFE76D
:10222000039845F20001C4F20101884208D1FFE79A
:10223000019820F070000299496808430190FFE777
:10224000039842F60041C4F20101884245D0FFE7FD
:102250000398B0F1804F40D0FFE7039840F200416F
:10226000C4F20001884238D0FFE7039840F600012D
:10227000C4F20001884230D0FFE7039840F60041E5
:10228000C4F20001884228D0FFE7039843F20041DE
:10229000C4F20101884220D0FFE7039844F2000114
:1022A000C4F20101884218D0FFE7039844F20041CC
:1022B000C4F20101884210D0FFE7039844F6000100
:1022C000C4F20101884208D0FFE7039845F20001FB
:1022D000C4F20101884208D1FFE7019820F4407060
:1022E0000299C96808430190FFE7019803990860C3
:1022F00003980299896800F049F8039802990988BF
:1023000000F064F8039842F60041C4F201018842EB
:1023100028D0FFE7039843F20041C4F2010188424C
:1023200020D0FFE7039844F20001C4F20101884283
:1023300018D0FFE7039844F20041C4F2010188423B
:1023400010D0FFE7039844F60001C4F2010188426F
:1023500008D0FFE7039845F20001C4F2010188426A
:1023600006D1FFE703980299096900F037F8FFE703
:102370000398FFF717FF002004B080BD81B00090E4
:102380000098006900F0010001B0704782B0019030
:10239000009100980199C86202B0704782B0019024
:1023A0000091019880684BF6F871CFF6FE710840F5
:1023B000009908430199886002B0704782B001908B
:1023C000009100980199486202B0704782B0019074
:1023D000009100980199886202B0704782B0019024
:1023E000009100980199086302B0704782B0019093
:1023F0000091019840684FF68F71CFF6FF51084069
:10240000009908430199486002B0704782B001907A
:1024100000910198406820F47000009908430199E8
:10242000486002B07047000081B000900099102011
:10243000086201B07047000081B0009000994868C0
:1024400020F4904048600099886820F02A00886055
:1024500001B0704781B000900099086820F00050EA
:10246000086001B07047000082B00190FFE7FFE70D
:10247000019850E8000F20F080000090FFE70099DD
:10248000019A42E800100028F2D1FFE7FFE702B00E
:102490007047000081B000900099086840F001008A
:1024A000086001B07047000082B00190FFE7FFE7CD
:1024B000019850E8000F40F010000090FFE70099ED
:1024C000019A42E800100028F2D1FFE7FFE702B0CE
:1024D0007047000082B00190FFE7FFE7019850E8E5
:1024E000000F40F020000090FFE70099019A42E8B9
:1024F00000100028F2D1FFE7FFE702B070470000AC
:1025000082B00190FFE7FFE7019850E8000F40F02C
:1025100080000090FFE70099019A42E8001000282F
:10252000F2D1FFE7FFE702B07047000080B586B048
:102530000590049101208DF80F000020029005986D
:1025400000F0B2F8002840F08380FFE705980068AB
:1025500046F6F311CEF6FF710840049A9168D2F85E
:1025600010C05369D26941EA0C0119431143084371
:102570000599086005980499C96800F02BF9059839
:102580000499896900F0F0F8059843F60001C4F257
:102590000101884205D1FFE70320FFF707FC029005
:1025A00039E0059844F20041C4F20001884205D1A7
:1025B000FFE70C20FFF7FAFB02902BE0059844F6AA
:1025C0000001C4F20001884205D1FFE73020FFF787
:1025D000EDFB02901DE0059844F60041C4F20001B5
:1025E000884205D1FFE7C020FFF742FB02900FE0D1
:1025F000059845F20001C4F20001884206D1FFE7C8
:102600004FF44070FFF734FB029000E0FFE7FFE774
:10261000FFE7FFE7FFE70298A0B1FFE704984068F3
:1026200080B1FFE700208DF80F0005980299049B08
:102630001A68D3F804C0DB69EE46CEF800C000F09B
:1026400043F8FFE705980499096800F09BF8FFE755
:102650009DF80F0006B080BD81B000900098C06961
:10266000C0F3001001B0704781B000900098C069BD
:10267000C0F3805001B0704781B000900098C069ED
:10268000C0F3401001B0704781B000900098C0695D
:10269000C0F3405001B0704781B000900098C0690D
:1026A000C0B2C00901B0704781B0009000980068C6
:1026B00000F0010001B0704781B000900098406ABE
:1026C000C0B201B07047000086B0DDF818C00590B8
:1026D00004910392029303980C2801D3FFE741E091
:1026E000069808B9FFE73CE00298B0F5004F23D107
:1026F000FFE704989DF80C2046F24851C0F600010F
:1027000051F82210B0FBF1F04000069900EB5100A7
:10271000B0FBF1F080B2019001984FF6F0710840E3
:102720000090019800F00E01009840EA51000090DE
:1027300000980599C86013E004989DF80C2046F2B3
:102740004851C0F6000151F82210B0FBF1F0069993
:1027500000EB5100B0FBF1F080B20599C860FFE7D3
:10276000FFE7FFE706B0704782B001900091019843
:10277000806820F44070009908430199886002B095
:102780007047000082B0019000910198C06A20F06B
:102790000F00BDF8001008430199C86202B07047ED
:1027A00083B002900191FFE7FFE7029850E8020F23
:1027B00020F06060019940EA41600090FFE70099D5
:1027C000029A42E802100028EFD1FFE7FFE703B0CA
:1027D0007047000082B0019000910198406820F499
:1027E0004050009908430199486002B070470000CA
:1027F00083B002900191FFE7FFE7029850E8020FD3
:1028000020F06040019940EA41700090FFE7009994
:10281000029A42E802100028EFD1FFE7FFE703B079
:102820007047000082B001908DF803109DF80300FE
:102830000199886202B0704780B5A6B00020109060
:102840002590249023902290219020901F901E90FC
:102850001D901C901B901A9019901890179016902C
:102860001590149013900220C0F21C00FFF7F2FBA9
:102870004FF400500E90FEF747FD04200D90FEF738
:1028800043FD01200890FEF73FFD109808210991B3
:10289000139103210F911491179040F60000C4F694
:1028A000000013A90A91FEF7A5FF089B0A990F9A49
:1028B00010981393149217904FF090400B90FEF7DE
:1028C00099FF0A990F9B109A0B984FF0020CCDF8C4
:1028D0004CC014931792FEF78DFF0A99DDF834C0AF
:1028E0000F9B109A0B98CDF84CC014931792FEF7DB
:1028F00081FFDDF824C00A990F9B109A0B98CDF840
:102900004CC014931792FEF775FF10990020C4F283
:1029100002000C900522FEF71BFF0C98109A11463E
:10292000FEF778FE0C98109A1146FEF73FFE0C98C1
:10293000109A1146FEF7CAFE0C98109A1146FEF73F
:10294000EFFE0C9810998022FEF790FE0C981099DB
:102950004FF48072FEF720FF0C9810994FF48062BC
:10296000FEF79CFE10982390249025904FF0A040F5
:10297000119023A9FEF756FBDDF834C00E9B0F9A89
:10298000109911981D91CDF878C01F912093219234
:1029900022911DA9FEF78AFB10991198FEF764FC9D
:1029A00010991198FEF77CFC10984FF4E0111991E2
:1029B0001A9040F20030C5F2000019A9FEF75AFA49
:1029C0001198FEF7F7FA1198FEF71CFB40F204008D
:1029D000C2F200000068800942F66351C0F23E5125
:1029E000A0FB0110800900EB800080004CF6CD4177
:1029F000CCF6CC41A0FB0110C0081290FFE7129862
:102A000020B1FFE7129801381290F8E74FF0A0408C
:102A1000059006211022C1F2C0020092FEF7B4FB1D
:102A20000099059803220492FEF7E8FB00990598A7
:102A30007F220792FEF7FEFB05980C210822C0F6C4
:102A400090420192FEF7A0FB0199049A0598FEF7C7
:102A5000D5FB01990598079AFEF7ECFB0598122122
:102A60000422C0F660020292FEF78EFB0299049ADD
:102A70000598FEF7C3FB02990598079AFEF7DAFB63
:102A8000059818210222C0F230420392FEF77CFB27
:102A90000399049A0598FEF7B1FB03990598079AE4
:102AA000FEF7C8FB05984FF4807140F20022C2F295
:102AB000B0520692FEF768FB049A05980699FEF755
:102AC0009DFB05980699079AFEF7B4FB26B080BDDA
:102AD00080B5A2B000201090219020901F901E90F1
:102AE0001D901C901B901A9019901890179016909A
:102AF0001590149013900220C0F21C00FFF7AAFA60
:102B00004FF400500E90FEF7FFFB04200D90FEF7EF
:102B1000FBFB01200C90FEF7F7FB109802211391AC
:102B200003210F911491179040F60000C4F60000A5
:102B3000099013A90891FEF75DFE0899DDF834C0ED
:102B40000F9B109A0998CDF84CC014931792FEF77A
:102B500051FE08990F9A109880230A9313931492A8
:102B600017904FF09040FEF745FE08990F9B109A82
:102B700009984FF0100CCDF84CC014931792FEF743
:102B800039FE08990F9B109A09984FF0200CCDF848
:102B90004CC014931792FEF72DFE0C990020C4F23E
:102BA00002000B902422FEF7D3FD0B980C99109A8B
:102BB000FEF730FD0B980C99109AFEF7F7FC0B9876
:102BC0000C99109AFEF782FD0B980C99109AFEF75B
:102BD000A7FD0A9A0B980C99FEF748FD0B980C99E3
:102BE0004FF48072FEF7D8FD0B980C994FF4806279
:102BF000FEF754FD10981F902090219040F2001095
:102C0000C5F2000011901FA9FEF70CFADDF834C0E0
:102C10000E9B0F9A109911981991CDF868C01B91CD
:102C20001C931D921E9119A9FEF740FA1099119854
:102C3000FEF71AFB10991198FEF732FB1198FEF778
:102C4000B9F91198FEF7DEF940F20400C2F2000073
:102C50000068800942F66351C0F23E51A0FB0110AA
:102C6000800900EB800080004CF6CD41CCF6CC41D1
:102C7000A0FB0110C0081290FFE7129820B1FFE7F7
:102C8000129801381290F8E740F20010C5F20000E7
:102C90000590062140F60002C2F630620092FEF76F
:102CA00073FA0099059803220492FEF7A7FA009997
:102CB00005987F220792FEF7BDFA05980C21202285
:102CC000C1F2F0420192FEF75FFA0199049A059869
:102CD000FEF794FA01990598079AFEF7ABFA059862
:102CE00012211022C1F2C0020292FEF74DFA02999F
:102CF000049A0598FEF782FA02990598079AFEF75A
:102D000099FA0598182140F20012C2F2801203923B
:102D1000FEF73AFA0399049A0598FEF76FFA0399B9
:102D20000598079AFEF786FA05984FF4807180227D
:102D3000C1F650520692FEF727FA049A05980699B2
:102D4000FEF75CFA05980699079AFEF773FA22B027
:102D500080BD000080B5A6B0002010902590249082
:102D600023902290219020901F901E901D901C90E7
:102D70001B901A9019901890179016901590149017
:102D800013900220C0F21E00FFF764F94FF4804058
:102D9000FEF7BAFA1020FEF7B7FA109880210A91D0
:102DA000139103210F911491179041F20000C4F682
:102DB0000000099013A90891FEF71CFD08990F9BCC
:102DC000109A09984FF4807CCDF82CC0CDF84CC0F7
:102DD00014931792FEF70EFD08990F9B109A09980D
:102DE0004FF4007CCDF84CC014931792FEF702FD0F
:102DF00008990F9B109A09984FF4806CCDF838C051
:102E0000CDF84CC014931792FEF7F4FC08990F9B71
:102E1000109A09984FF4006CCDF84CC01493179297
:102E2000FEF7E8FC0020C4F202000C9002210D9194
:102E30002522FEF78DFC0C980D99109AFEF7EAFBFF
:102E40000C980D99109AFEF7B1FB0C980D99109AF9
:102E5000FEF73CFC0C980D99109AFEF761FC0A9A5B
:102E60000C980D99FEF702FC0B9A0C980D99FEF741
:102E700093FC0C980D990E9AFEF710FC1098239075
:102E80002490259040F20040C5F20000119023A943
:102E9000FEF7C8F80F9A109911981D9104231E93FC
:102EA0001F914FF400532093219222911DA9FEF708
:102EB000FDF810991198FEF7D7F910991198FEF7BF
:102EC000EFF910984FF4E01119911A9040F2007048
:102ED000C5F2000019A9FDF7CDFF1198FEF76AF8B9
:102EE0001198FEF78FF840F20400C2F2000000686B
:102EF000800942F66351C0F23E51A0FB01108009E7
:102F000000EB800080004CF6CD41CCF6CC41A0FB1C
:102F10000110C0081290FFE7129820B1FFE7129845
:102F200001381290F8E740F20040C5F20000059029
:102F3000062148F20002C3F6F0620092FEF724F97F
:102F40000099059803220492FEF758F90099059814
:102F50007F220792FEF76EF905980C2144F20002D9
:102F6000C3F6C0220192FEF70FF90199049A059861
:102F7000FEF744F901990598079AFEF75BF9059861
:102F800012210422C0F660020292FEF7FDF80299B7
:102F9000049A0598FEF732F902990598079AFEF708
:102FA00049F9059818214022C1F620120392FEF734
:102FB000EBF80399049A0598FEF720F90399059810
:102FC000079AFEF737F905984FF480711022C1F285
:102FD000C0020692FEF7D8F8049A05980699FEF703
:102FE0000DF905980699079AFEF724F926B080BDD9
:102FF00080B5A2B000201090219020901F901E90CC
:103000001D901C901B901A90199018901790169074
:103010001590149013900220C0F21E00FFF71AF8CA
:103020004FF480400990FEF76FF90220FEF76CF92B
:103030000820FEF769F910984FF48051139103218D
:103040000F911491179040F20040C4F600000A90CE
:1030500013A90B91FEF7CEFBDDF824C00B990F9B53
:10306000109A0A98CDF84CC014931792FEF7C2FB41
:103070000B990F9B109A0A984FF4004CCDF84CC056
:1030800014931792FEF7B6FB0B990F9A10984FF412
:1030900080730D9313931492179040F60040C4F67A
:1030A00000000C90FEF7A6FB0B990F9B109A0C9852
:1030B0004FF4007CCDF84CC014931792FEF79AFBA6
:1030C0000F990020C4F202000E902622FEF740FB6A
:1030D0000E980F99109AFEF79DFA0E980F99109A74
:1030E000FEF764FA0E980F99109AFEF7EFFA0E9811
:1030F0000F99109AFEF714FB0E980F998022FEF795
:10310000B5FA0D9A0E980F99FEF746FB0E980F9997
:103110004FF48062FEF7C2FA10981F902090219021
:1031200040F20050C5F2000011901FA9FDF77AFF90
:103130000F9A10991198199104231A931B914FF427
:1031400000531C931D921E9119A9FDF7AFFF109912
:103150001198FEF789F810991198FEF7A1F81198C7
:10316000FDF728FF1198FDF74DFF40F20400C2F271
:1031700000000068800942F66351C0F23E51A0FB96
:103180000110800900EB800080004CF6CD41CCF6A8
:10319000CC41A0FB0110C0081290FFE7129820B1AB
:1031A000FFE7129801381290F8E740F20050C5F29C
:1031B00000000690062142F20002C3F290620192E2
:1031C000FDF7E2FF0199069803220592FEF716F833
:1031D000019906987F220892FEF72CF806980C2198
:1031E00041F20002C3F260220292FDF7CDFF029984
:1031F000059A0698FEF702F802990698089AFEF7D3
:1032000019F8069812212022C1F2F0420392FDF72C
:10321000BBFF0399059A0698FDF7F0FF03990698FE
:10322000089AFEF707F8069818211022C1F2C0028A
:103230000492FDF7A9FF0499059A0698FDF7DEFFB1
:1032400004990698089AFDF7F5FF06984FF48071E7
:103250000822C0F690420792FDF796FF059A06985D
:103260000799FDF7CBFF06980799089AFDF7E2FF4B
:1032700022B080BD80B5A6B000201090259024908B
:1032800023902290219020901F901E901D901C90C2
:103290001B901A90199018901790169015901490F2
:1032A00013900220C0F21E00FEF7D4FE4FF48040BF
:1032B0000890FEF729F80820FEF726F810984FF43A
:1032C00080610C91139103210F911491179040F696
:1032D0000040C4F600000A9013A90991FEF78AFA8B
:1032E00009990F9B109A0A984FF4006CCDF84CC0C6
:1032F00014931792FEF77EFA09990F9B109A0A9879
:103300004FF4805CCDF84CC014931792FEF772FA1C
:1033100009990F9B109A0A984FF4005CCDF838C0B9
:10332000CDF84CC014931792FEF764FADDF820C074
:1033300009990F9B109A0A98CDF84CC014931792D4
:10334000FEF758FA0020C4F202000B9004210D9100
:103350002722FEF7FDF90B980D99109AFEF75AF9FE
:103360000B980D99109AFEF721F90B980D99109A68
:10337000FEF7ACF90B980D99109AFEF7D1F90B985E
:103380000D998022FEF772F90B980D994FF4807217
:10339000FEF702FA0B980C9A0D99FEF77FF9109838
:1033A00023902490259040F20060C5F20000119017
:1033B00023A9FDF737FEDDF834C00E9B0F9A109954
:1033C00011981D91CDF878C01F91209321922291E0
:1033D0001DA9FDF76BFE10991198FDF745FF109997
:1033E0001198FDF75DFF4FF4E010199040F2007066
:1033F000C5F2000019A9FDF73DFD1198FDF7DAFDB2
:103400001198FDF7FFFD40F20400C2F200000068D1
:10341000800942F66351C0F23E51A0FB01108009C1
:1034200000EB800080004CF6CD41CCF6CC41A0FBF7
:103430000110C0081290FFE7129820B1FFE7129820
:1034400001381290F8E740F20060C5F200000590E4
:10345000062140F20042C2F600220092FDF794FEDF
:103460000099059803220492FDF7C8FE009905987B
:103470007F220792FDF7DEFE05980C2140F2002224
:10348000C2F2B0520192FDF77FFE0199049A0598AD
:10349000FDF7B4FE01990598079AFDF7CBFE059854
:1034A000122140F20012C2F280120292FDF76CFE6D
:1034B0000299049A0598FDF7A1FE02990598079ACA
:1034C000FDF7B8FE059818218022C1F650520392EC
:1034D000FDF75AFE0399049A0598FDF78FFE0399AC
:1034E0000598079AFDF7A6FE05984FF4807140F6FF
:1034F0000002C2F630620692FDF746FE049A059875
:103500000699FDF77BFE05980699079AFDF792FE4E
:1035100026B080BD80B590B0002000900F900E9036
:103520000D900C900B900A900990089007900690CF
:103530000590049003904FF48030FDF7E5FE0120E4
:10354000FDF7E2FE009810210391032104910790FA
:103550004FF0904003A9FEF74DF9009A40F60000A5
:10356000C5F2000001900121C0F211210291FDF786
:10357000E5FF009A0198029909920A920B920D9226
:103580000E920F9209AAFDF73BFF02990198FDF7F1
:1035900017FF01980299FDF703FF10B080BD0000EE
:1035A00080B590B0002000900F900E900D900C9080
:1035B0000B900A900990089007900690059004904F
:1035C00003904FF40030FDF79FFE0120FDF79CFEB5
:1035D0000098402103910321049107904FF09040FF
:1035E00003A9FEF707F9009A40F60040C5F2000073
:1035F00001900121C0F211210291FDF79FFF009A75
:103600000198029909920A920B920D920E920F92D2
:1036100009AAFDF7F5FE02990198FDF7D1FE019880
:103620000299FDF7BDFE10B080BD000080B50420FA
:10363000FDF758FE0120FDF755FE80BD80B59CB01A
:10364000002013901B901A901990189017901690C4
:1036500010200F90FDF758FE04200490FDF754FE53
:1036600020200C90FDF750FE01201290FDF74CFE3B
:1036700002200B90FDF748FE08200E90FDF744FE57
:1036800040201090FDF740FE40F60000C4F6000018
:1036900005904FF400510291FEF728F90598109912
:1036A000FEF724F9059880211191FEF71FF9129970
:1036B00041F60000C4F600000A90FEF717F90A98D8
:1036C0000B99FEF713F904990A98FEF70FF90A9877
:1036D0000E99FEF70BF90A980F99FEF707F905986E
:1036E0004FF480710891FEF701F905984FF40071CD
:1036F0000991FEF7FBF808994FF090400790FEF70C
:10370000F5F807980999FEF7F1F807984FF48061EA
:103710000691FEF7EBF80A981099FEF7E7F80A9879
:103720001199FEF7E3F808990A98FEF7DFF809996E
:103730000A98FEF7DBF8129940F60040C4F6000044
:103740000D90FEF7D3F80B990D98FEF7CFF80D9872
:103750000F99FEF7CBF80C990D98FEF7C7F80D9866
:103760001099FEF7C3F80D981199FEF7BFF80E995E
:1037700040F20040C4F600001590FEF7B7F80F992C
:103780001598FEF7B3F810991598FEF7AFF8119950
:103790001598FEF7ABF8049A1298139916921791A0
:1037A0001A9041F20000C4F60000019016A914918D
:1037B000FEF720F8DDF838C0129A139B149901988F
:1037C000CDF858C017931A92FEF714F8DDF83CC0F4
:1037D000129A139B14990198CDF858C017931A9216
:1037E000FEF708F8DDF830C0129A139B149901987F
:1037F000CDF858C017931A92FDF7FCFFDDF808C00A
:10380000129B139A14990598CDF858C017931892E3
:1038100019921A92FDF7EEFF139A149912984FF429
:103820008053169317921A9041F20040C4F600009C
:103830000390FDF7DFFFDDF808C0129A139B14997F
:103840000398CDF858C017931A92FDF7D3FFDDF80F
:1038500040C0129B139A14990598CDF858C017933D
:10386000189219921A92FDF7C5FFDDF844C0129B19
:10387000139A14990598CDF858C017931892199275
:103880001A92FDF7B7FF129B139A14990A98169390
:103890001793189219921A92FDF7ACFFDDF82CC01D
:1038A000129B139A14990A98CDF858C0179318923E
:1038B00019921A92FDF79EFFDDF810C0129B139A21
:1038C00014990A98CDF858C01793189219921A9221
:1038D000FDF790FFDDF838C0129B139A14990A98EF
:1038E000CDF858C01793189219921A92FDF782FFDB
:1038F000DDF83CC0129B139A14990A98CDF858C071
:103900001793189219921A92FDF774FFDDF820C0F0
:10391000129B139A14990598CDF858C017931892D2
:1039200019921A92FDF766FFDDF824C0129B139AD4
:1039300014990598CDF858C01793189219921A92B5
:10394000FDF758FFDDF820C0129B139A14990798D1
:10395000CDF858C01793189219921A92FDF74AFFA2
:10396000DDF824C0129B139A14990798CDF858C01B
:103970001793189219921A92FDF73CFFDDF818C0C0
:10398000129B139A14990798CDF858C01793189260
:1039900019921A92FDF72EFFDDF840C0129B139A80
:1039A00014990A98CDF858C01793189219921A9240
:1039B000FDF720FFDDF844C0129B139A14990A9872
:1039C000CDF858C01793189219921A92FDF712FF6A
:1039D000DDF820C0129B139A14990A98CDF858C0AC
:1039E0001793189219921A92FDF704FFDDF824C07C
:1039F000129B139A14990A98CDF858C017931892ED
:103A000019921A92FDF7F6FE129B139A14990D98CB
:103A100016931793189219921A92FDF7EBFEDDF8A0
:103A20002CC0129B139A14990D98CDF858C0179377
:103A3000189219921A92FDF7DDFEDDF83CC0129B38
:103A4000139A14990D98CDF858C01793189219929B
:103A50001A92FDF7CFFEDDF830C0129B139A14992D
:103A60000D98CDF858C01793189219921A92FDF735
:103A7000C1FEDDF840C0129B139A14990D98CDF841
:103A800058C01793189219921A92FDF7B3FEDDF8F9
:103A900044C0129B139A14990D98CDF858C01793EF
:103AA000189219921A92FDF7A5FEDDF838C0129B04
:103AB000139A14991598CDF858C017931892199223
:103AC0001A92FDF797FEDDF83CC0129B139A1499E9
:103AD0001598CDF858C01793189219921A92FDF7BD
:103AE00089FEDDF840C0129B139A14991598CDF801
:103AF00058C01793189219921A92FDF77BFEDDF8C1
:103B000044C0129B139A14991598CDF858C0179376
:103B1000189219921A92FDF76DFE1CB080BD00003C
:103B200080B588B000200190079006900590049021
:103B300003904FF40060FDF70BFC019840F28F6199
:103B4000ADF80C1004904FF6FF71059106900790A8
:103B500042F60040C4F20100029003A9FEF72CFBDC
:103B60000298FEF7F7FA01990298FEF717FC0199FF
:103B70000298FEF73BFC01990298FEF747FC029879
:103B8000FEF7FCFA08B080BD80B588B00020019037
:103B9000079006900590049003900120FDF7C6FB66
:103BA0000198ADF80C0004904FF0FF31059106909C
:103BB0004FF08040029003A9FEF7FEFA0298FEF74C
:103BC000C9FA01990298FEF7E9FB01990298FEF7FC
:103BD0000DFC0298FEF7D2FA08B080BD80B588B01F
:103BE0000020019007900690059004900390022019
:103BF000FDF79CFB0198ADF80C0004904FF6FF71A7
:103C00000591069040F20040C4F20000029003A922
:103C1000FEF7D2FA0298FEF79DFA01990298FEF794
:103C2000BDFB01990298FEF7E1FB0298FEF7A6FAA8
:103C300008B080BD80B596B0002005901590149016
:103C400013901290119010900F900E900D900C9078
:103C50000B900A90099008904FF44000FEF748FA44
:103C60004FF40020FDF762FB0420FDF74DFB0598A3
:103C70004FF4806108910221069109910A900B90FE
:103C80000C90052001900D9040F60000C4F6000055
:103C9000039008A90291FDF7ADFD019A0299059BD9
:103CA000DDF818C003984FF4006ECDF820E0CDF891
:103CB00024C00A930B930C930D92FDF79BFD01F02A
:103CC00037F8059A069900F08FF9014634200490E0
:103CD00001F036F8049801F013F805980E904FF4AF
:103CE000E1310F911090119012900C2113911490CA
:103CF000159044F60040C4F2000007900EA9FEF7AC
:103D000015FC0798FEF7A6FB06990798FEF770FDCD
:103D100006990798FEF744FD0798FEF78DFB079874
:103D2000FEF7D8FB0798FEF7BFFB0798FEF7B2FB3C
:103D3000FFE744F60040C4F20000FEF7A5FC014690
:103D40000120009059B1FFE744F60040C4F20000A2
:103D5000FEF78AFCB0FA80F040090090FFE7009877
:103D6000C00708B1FFE7E4E716B080BD80B596B0A4
:103D700000200590159014901390129011901090BF
:103D80000F900E900D900C900B900A900990089057
:103D90004FF04070FEF7ACF94FF48010FDF7C6FA13
:103DA00004200190FDF7B0FA0820FDF7ADFA059860
:103DB0004FF4805108910221069109910A900B90CD
:103DC0000C90052003900D9040F60000C4F6000012
:103DD00008A90291FDF70EFDDDF804C00299059ACD
:103DE000069B0398CDF820C009930A920B920C927F
:103DF0000D9040F60040C4F60000FDF7FBFC00F01B
:103E000097FF059A069900F0EFF8014635200490D7
:103E100000F096FF049800F073FF05980E904FF4A1
:103E2000E1310F911090119012900C211391149088
:103E3000159045F20000C4F2000007900EA9FEF7AD
:103E400075FB0798FEF706FB06990798FEF7D0FC6E
:103E500006990798FEF7A4FC0798FEF7EDFA079875
:103E6000FEF738FB0798FEF71FFB0798FEF712FBDB
:103E7000FFE745F20000C4F20000FEF705FC014632
:103E80000120009059B1FFE745F20000C4F20000A4
:103E9000FEF7EAFBB0FA80F040090090FFE70098D7
:103EA000C00708B1FFE7E4E716B080BD80B596B063
:103EB000002005901590149013901290119010907E
:103EC0000F900E900D900C900B900A900990089016
:103ED0004FF44030FEF71CF94FF48040FDF738FAFC
:103EE0001020FDF711FA0598012108910221069191
:103EF00009910A900B900C90072002900D9041F2CE
:103F00000000C4F60000049008A90391FDF772FCBC
:103F1000029A0399059BDDF818C00498CDF820C0DB
:103F2000CDF824C00A930B930C930D92FDF762FC1D
:103F300005980E904FF4E1310F911090119012906E
:103F40000C2113911490159043F60000C4F2010067
:103F500007900EA9FEF7EAFA06990798FEF748FCC3
:103F600006990798FEF71CFC0798FEF773FA079866
:103F7000FEF762FA0798FEF7ADFA0798FEF794FA93
:103F80000798FEF787FAFFE743F60000C4F2010046
:103F9000FEF77AFB01460120019059B1FFE743F695
:103FA0000000C4F20100FEF75FFBB0FA80F04009A8
:103FB0000190FFE70198C00708B1FFE7E4E700F0D0
:103FC000B7FE0322114600F00FF8014625200090AD
:103FD00000F0B6FE009800F093FE16B080BD000021
:103FE000FFE7FEE7FFE7FEE788B00790069105923E
:103FF000079800F0070004900498C0F10700052816
:1040000003D3FFE70420019004E00498C0F1070007
:104010000190FFE70198039004980430062803D824
:10402000FFE70020009003E0049803380090FFE7CA
:104030000098029006980399012202FA01F10139D1
:104040000840029B984005999A40013A1140084364
:1040500008B0704780B582B040F6F050C2F2000060
:104060000068019040F22800C2F20000407E400843
:10407000C00718B1FFE7FF200190FFE70020009084
:10408000FFE70098172800F34682FFE79DF8040039
:10409000C00740B9FFE740F60000C4F60000402129
:1040A000FDF72CFC07E040F60000C4F600004021BC
:1040B000FDF7AAFCFFE70198401001909DF804006D
:1040C000C00740B9FFE740F60000C4F600008021B9
:1040D000FDF714FC07E040F60000C4F60000802164
:1040E000FDF792FCFFE70198401001909DF8040055
:1040F000C00740B9FFE741F60000C4F60000012107
:10410000FDF7FCFB07E041F60000C4F600000121CA
:10411000FDF77AFCFFE70198401001909DF804003C
:10412000C00740B9FFE741F60000C4F600000221D5
:10413000FDF7E4FB07E041F60000C4F600000221B1
:10414000FDF762FCFFE70198401001909DF8040024
:10415000C00740B9FFE741F60000C4F600000421A3
:10416000FDF7CCFB07E041F60000C4F60000042197
:10417000FDF74AFCFFE70198401001909DF804000C
:10418000C00740B9FFE741F60000C4F6000008216F
:10419000FDF7B4FB07E041F60000C4F6000008217B
:1041A000FDF732FCFFE70198401001909DF80400F4
:1041B000C00740B9FFE741F60000C4F60000102137
:1041C000FDF79CFB07E041F60000C4F6000010215B
:1041D000FDF71AFCFFE70198401001909DF80400DC
:1041E000C00748B9FFE740F60000C4F600004FF4EE
:1041F0008071FDF783FB08E040F60000C4F6000084
:104200004FF48071FDF700FCFFE70198401001902A
:104210009DF80400C00740B9FFE740F60000C4F66F
:1042200000008021FDF76AFB07E040F60000C4F6BD
:1042300000008021FDF7E8FBFFE7019840100190A6
:104240009DF80400C00738B9FFE74FF090404FF4E5
:104250008071FDF753FB06E04FF090404FF4807102
:10426000FDF7D2FBFFE70198401001909DF8040094
:10427000C00738B9FFE74FF090404FF40071FDF7E9
:104280003DFB06E04FF090404FF40071FDF7BCFBA2
:10429000FFE70198401001909DF80400C00738B96D
:1042A000FFE74FF090404FF48061FDF727FB06E0F9
:1042B0004FF090404FF48061FDF7A6FBFFE70198B7
:1042C000401001909DF80400C00740B9FFE741F697
:1042D0000000C4F600004021FDF710FB07E041F6A6
:1042E0000000C4F600004021FDF78EFBFFE70198B7
:1042F000401001909DF80400C00740B9FFE741F667
:104300000000C4F600008021FDF7F8FA07E041F64E
:104310000000C4F600008021FDF776FBFFE701985E
:10432000401001909DF80400C00748B9FFE741F62E
:104330000000C4F600004FF48071FDF7DFFA08E0DA
:1043400041F60000C4F600004FF48071FDF75CFBFD
:10435000FFE70198401001909DF80400C00748B99C
:10436000FFE741F60000C4F600004FF40071FDF7CE
:10437000C5FA08E041F60000C4F600004FF40071F1
:10438000FDF742FBFFE70198401001909DF8040003
:10439000C00740B9FFE740F60040C4F60000012125
:1043A000FDF7ACFA07E040F60040C4F6000001213A
:1043B000FDF72AFBFFE70198401001909DF80400EB
:1043C000C00740B9FFE740F60040C4F600000221F4
:1043D000FDF794FA07E040F60040C4F60000022121
:1043E000FDF712FBFFE70198401001909DF80400D3
:1043F000C00740B9FFE740F60040C4F600001021B6
:10440000FDF77CFA07E040F60040C4F600001021FA
:10441000FDF7FAFAFFE70198401001909DF80400BB
:10442000C00740B9FFE740F60040C4F60000202175
:10443000FDF764FA07E040F60040C4F600002021D2
:10444000FDF7E2FAFFE70198401001909DF80400A3
:10445000C00740B9FFE740F60040C4F60000402125
:10446000FDF74CFA07E040F60040C4F6000040219A
:10447000FDF7CAFAFFE70198401001909DF804008B
:10448000C00740B9FFE740F60040C4F600008021B5
:10449000FDF734FA07E040F60040C4F60000802142
:1044A000FDF7B2FAFFE70198401001909DF8040073
:1044B000C00740B9FFE740F20040C4F60000082101
:1044C000FDF71CFA07E040F20040C4F600000821A6
:1044D000FDF79AFAFFE70198401001909DF804005B
:1044E000C00740B9FFE740F20040C4F600001021C9
:1044F000FDF704FA07E040F20040C4F60000102186
:10450000FDF782FAFFE7019840100190FFE700985D
:1045100001300090B5E502B080BD000081B040F6EA
:10452000E820C2F2000000F10A01009140F22801E7
:10453000C2F2000145F27862C1F234220A60009BA7
:104540001A785B7842EA03228A80009A023200924B
:10455000009B1A785B7842EA0322CA80009A0232F2
:104560000092009B1A785B7842EA03220A81009A43
:1045700002320092009B1A785B7842EA03224A8159
:10458000009A02320092009B1A785B7842EA03227A
:104590008A81009A02320092009B1A785B7842EA84
:1045A0000322CA81009A02320092009B1A785B783B
:1045B00042EA03220A82009A02320092009B1A7891
:1045C0005B7842EA03224A82009A02320092009B00
:1045D0001A785B7842EA03228A82009A02320092B9
:1045E000009B1A785B7842EA0322CA82009A023260
:1045F0000092827E0A76C07E487601B07047000045
:104600007047000080B586B00C208DF80F000120A7
:1046100001F0FCFAFBF788FE022001F0F7FA002017
:104620000590FFE70598172818DCFFE7059940F289
:10463000AC00C2F2000030F81100C9B200F0FAFB81
:10464000059940F6D003C2F20003162201FB0231A5
:104650004882FFE7059801300590E3E740F6E8411E
:10466000C2F20001AA200870552048708620887088
:10467000F020C87040F6E850C2F2000000780871DF
:104680009DF80F004871002088710290FFE70298A2
:1046900017282EDCFFE70298C0F1170040F6D00281
:1046A000C2F20002162100FB0120408A5A280EDCCB
:1046B000FFE70298C0F1170040F6D002C2F20002F4
:1046C000162100FB0120408A6D2805DCFFE70498D5
:1046D00040F00100049004E0049820F001000490F0
:1046E000FFE7049840000490FFE702980130029031
:1046F000CDE7BDF8121040F6E840C2F2000001908C
:10470000C1710499090A0172049941729DF80F1050
:10471000023989B200F058FE01460198ADF80C103C
:104720009DF80D108172BDF80C10C1729DF80F102C
:1047300001F02EFC06B080BD80B582B001900198DA
:104740000090FDF76DFA01460098C9B20A0946F2D9
:104750002051C0F60001895C01F01F01C84002B081
:1047600080BD000080B582B0019001980090FDF7F7
:104770005FFA014600980A0A46F23051C0F600017D
:10478000895C01F01F01C84002B080BD80B582B0D5
:10479000019001980090FDF753FA01460098CA0A6B
:1047A00046F23051C0F60001895C01F01F01C8409B
:1047B00002B080BD80B582B0FDF752FA014600918B
:1047C000042808D0FFE7009808280AD0FFE70098DF
:1047D0000C280CD00FE042F20040C0F2F40001902F
:1047E0000FE042F20040C0F2F400019009E000F056
:1047F0000BF8019005E042F20040C0F2F400019095
:10480000FFE7019802B080BD80B586B0FDF702FCDD
:10481000049004980390022804D0FFE7039803282B
:1048200006D00BE042F20040C0F2F40005900BE02D
:1048300042F20040C0F2F400059005E042F2004070
:10484000C0F2F4000590FFE705980090FDF7EAFB41
:104850000146009848430190FDF7D4FB02460198B9
:10486000012101EB1211B0FBF1F00290FDF7E2FB28
:10487000014602984A0E022101EB4201B0FBF1F021
:1048800006B080BD80B584B00A208DF80B0040F6DC
:10489000E820C2F2000000900190AA210170552189
:1048A00041700199897841F080018170F021C170D7
:1048B00040F6E851C2F20001097801719DF80B1031
:1048C000417100218171C1719DF80B10023989B2CB
:1048D00000F07AFD01460098ADF80E10BDF80E10FC
:1048E00001729DF80F1041729DF80B1001F050FB02
:1048F00004B080BD7047000080B582B08DF807001D
:1049000040F22800C2F20000407E8008C00780B359
:10491000FFE740F22800C2F20000407E4009C007D5
:1049200028B1FFE79DF8070001F09CFAFFE740F28D
:104930002800C2F20000407E8009C007C0B1FFE736
:1049400040F6CF00C2F20000007840F22801C2F227
:104950000001097E88420BD1FFE7082001F082FAAE
:1049600040F22800C2F20000007E01F07BFAFFE76F
:104970002FE040F22800C2F20000407EC008C007CD
:1049800028B1FFE79DF8070001F002FAFFE740F2C7
:104990002800C2F20000407E0009C007C0B1FFE756
:1049A00040F6CF00C2F20000007840F22801C2F2C7
:1049B0000001097E88420BD1FFE7082001F0E8F9E9
:1049C00040F22800C2F20000007E01F0E1F9FFE7AA
:1049D000FFE702B080BD000080B58AB01E208DF8D0
:1049E0002500002008900790069005900490039001
:1049F00002900190AA208DF8040055208DF8050042
:104A000087208DF80600F0208DF8070040F6E8506A
:104A1000C2F2000000788DF808009DF825008DF89E
:104A2000090040F22800C2F2000041798DF80A1016
:104A300081888DF80B10C1798DF80C10C1888DF824
:104A40000D10417A8DF80E1001898DF80F10C17A82
:104A50008DF8101041898DF81110417B8DF81210DE
:104A600081898DF81310C17B8DF81410C1898DF8E0
:104A70001510417C8DF81610018A8DF81710C17C35
:104A80008DF81810418A8DF81910417D8DF81A1093
:104A9000818A8DF81B10C17D8DF81C10C18A8DF89C
:104AA0001D10017E8DF81E10407E8DF81F009DF8B0
:104AB0002500023881B201A8009000F085FC014673
:104AC0000098ADF82610BDF826108DF820109DF83E
:104AD00027108DF821109DF8251001F059FA0AB021
:104AE00080BD000080B540F65C61C2F2000108683C
:104AF0000130086000F062FC80BD000080B584B029
:104B00000420FCF769FEFFE7FCF75EFE042801D0F5
:104B1000FFE7F9E7FDF77AF8FDF710FAFFE7FDF791
:104B200017FA012801D0FFE7F9E7FDF729FAFFE7B7
:104B3000FDF730FA012801D0FFE7F9E70320102143
:104B40002A220023FDF72EFAFDF752FAFDF746FA66
:104B5000FFE7FDF777FA012801D0FFE7F9E7032027
:104B6000FDF7B8FA8020FDF78BFAFFE7FDF770F844
:104B70000C2801D0FFE7F9E755200390FFE70398E1
:104B800028B1FFE7FFE7039801380390F7E700201B
:104B90000190FDF775FA0198FDF780FA0198FDF78D
:104BA0008BFA47F60020C0F603200290FCF7FEFFC8
:104BB0000298FDF7BDFA04B080BD00004EF68851A2
:104BC000CEF20001086840F47000086070470000F1
:104BD00080B501F08FFA80BD80B501F00BFB80BD80
:104BE00080B582B043F60000C4F20100FDF744FD39
:104BF000D0B1FFE7FFE743F60000C4F20100FDF784
:104C00003BFD70B1FFE743F60000C4F20100FDF781
:104C100053FD014640F2AC70C2F20000FBF784FD88
:104C200000E000E0E7E7FFE743F60000C4F2010020
:104C3000FDF732FD58B3FFE7FFE743F60000C4F28B
:104C40000100FDF729FDF8B1FFE740F6BC00C2F214
:104C50000000FBF727FF01280EDBFFE740F6BC0052
:104C6000C2F20000FBF744FD014643F60000C4F227
:104C70000100FDF7D7FD06E043F60000C4F2010095
:104C8000FDF7F2FB02E000E000E0D6E7FFE743F6C5
:104C90000000C4F20100FDF7DFFC68B3FFE743F654
:104CA0000000C4F20100FDF7BFFB43F61C00C4F294
:104CB00001000068019043F62400C4F2010000687E
:104CC00001900198FFE743F60000C4F20100FDF7F0
:104CD000D3FC70B1FFE743F60000C4F20100FDF71A
:104CE000EBFC014640F2AC70C2F20000FBF71CFD89
:104CF00000E000E0E7E7FFE702B080BDFFE7FEE786
:104D000081B08DF803009DF9030000280ED4FFE761
:104D10009DF9031001F01F02012090404A094EF254
:104D20000011CEF2000141F82200FFE701B0704708
:104D30004EF60C50CEF200000068C0F3022070471F
:104D400082B08DF8070000919DF9070000280AD471
:104D5000FFE7009800019DF907104EF20042CEF2E5
:104D6000000288540BE0009800019DF8071001F044
:104D70000F014EF61452CEF200028854FFE702B043
:104D80007047000083B00290029800F00700009086
:104D90004EF60C51CEF200010868019001984FF6D2
:104DA000FF02104001900198009A40EA0220002280
:104DB000C0F2FA52104301900198086003B07047A6
:104DC000BFF34F8F4EF60C51CEF20001086800F48D
:104DD000E0600422C0F2FA5210430860BFF34F8F24
:104DE000FFE700BFFDE7000081B0009001B0704711
:104DF00084B00390ADF80A10002001900090FFE706
:104E00000098072811D8FFE70398BDF80A10009A08
:104E100002EB8202114430F811100198084401900D
:104E2000FFE7009801300090EAE70198C0F3CF0057
:104E300004B0704785B0ADF812008DF8111040F63F
:104E4000F850C2F20000006845F27861C1F23421E6
:104E5000884215D1FFE7BDF8120000EE100AB8EE47
:104E6000C00A9DF8111040F6F850C2F2000000EBA5
:104E7000810090ED011A30EE010A8DED000A08E084
:104E8000BDF8120000EE100AB8EE400A8DED000ADF
:104E9000FFE79DED000A9FED2D1A20EE010A9FED20
:104EA0002C1A80EE010A8DED020A9DED020AB0EE89
:104EB000081A80EE010A8DED020A9DED020A9FEDAF
:104EC000251AB4EE410AF1EE10FA06DBFFE74EF2C6
:104ED0000000C4F295400290FFE79DED022A9FED8D
:104EE0001E0A22EE000A9FED1B1A31EE421A80EED6
:104EF000010A9FED1A1A30EE010A9FED191A30EEE1
:104F0000010A8DED010A9DED010A9FED161AB4EE1E
:104F1000410AF1EE10FA06DDFFE74EF60000C4F29A
:104F20007D700190FFE79DED010AB5EE400AF1EEBC
:104F300010FA03DAFFE700200190FFE79DED010A78
:104F4000BDEEC00A10EE100A05B0704700404E4595
:104F5000000080450000964400401C460000C8C286
:104F6000CDCC4CBE00E87D4780B582B000200190DA
:104F7000FFE70198172817DCFFE7019940F2AC0022
:104F8000C2F2000030F8110000F01CF8019940F660
:104F9000F850C2F2000000EB810080ED010AFFE74B
:104FA000019801300190E4E740F6F851C2F20001A7
:104FB00045F27860C1F23420086001F0FDF902B0DA
:104FC00080BD000083B0ADF80A0040F66060C2F218
:104FD000000042F62D51C4F28D21016090ED000ACF
:104FE0009FED0E1A80EE010A9FED0D1A20EE010AC8
:104FF0008DED000A9DED000ABDF80A0001EE100AD1
:10500000B8EE411A30EE410A40F6EC50C2F2000010
:1050100080ED000A90ED000A03B0704700404E4555
:1050200000F07F4580B582B041F20040C4F6000038
:105030004FF48051FCF74CFC38B1FFE740F6CC0050
:10504000C2F20000007820B1FFE701208DF80700D0
:1050500003E000208DF80700FFE79DF8070002B08D
:1050600080BD000080B586B040F22800C2F200008A
:10507000407EC007002866D0FFE700F087F940F2C5
:105080002800C2F200000290008900F001FC00F04C
:10509000D7FF0298C08A00F0FBFB00F0F1FF0298F6
:1050A000408900F0F5FBFBF7D3FA0120039001F0F3
:1050B00021F9039801F046F9039800F0E9FB039801
:1050C00000F066FE142000F0E3FB00F05FF9022020
:1050D0000590FFE7059840F22801C2F20001097E21
:1050E00088422FDAFFE700F051F940F22800C2F2BF
:1050F00000000190008900F0CBFBFEF7ABFF0198A8
:10510000808800F0C5FB0198408900F0C1FBFBF7E7
:105110009FFA9DF8140001F0EDF89DF8140001F0DD
:1051200011F9012000F0B4FB9DF81400FFF7E4FB37
:10513000142000F0ADFB00F029F9FFE705980130DD
:105140000590C7E73BE001200490FFE7049840F298
:105150002801C2F20001097E88422FDAFFE700F041
:1051600015F940F22800C2F200000090008900F01A
:105170008FFBFEF76FFF0098808800F089FB009896
:10518000408900F085FBFBF763FA9DF8100001F001
:10519000B1F89DF8100001F0D5F8012000F078FB7F
:1051A0009DF81000FFF7A8FB142000F071FB00F041
:1051B000EDF8FFE7049801300490C7E7FFE706B079
:1051C00080BD000080B586B040F6CE00C2F200007F
:1051D0000078014605910A2800F2D4800599DFE89D
:1051E00001F0061C2A7A99B6D1A3D1C84000FFF776
:1051F00019FF88B1FFE740F6CE01C2F2000101209D
:10520000087000F097FC00F0E7FE40F6CD01C2F216
:10521000000100200870FFE7B5E0FFF703FF48B189
:10522000FFE740F6CE01C2F2000102200870FBF752
:105230000FFAFFE7A7E040F6CE01C2F200010A2014
:1052400008700820049001F055F8012000F020FBC0
:10525000049800F09DFD142000F01AFB00F036FFCA
:1052600091E040F22800C2F20000407EC00758B32F
:10527000FFE700F08BF840F22800C2F20000029035
:10528000008900F005FB00F0DBFE0298C08A00F008
:10529000FFFA00F0F5FE0298408900F0F9FAFBF7FA
:1052A000D7F90120039001F025F8039801F04AF89E
:1052B000039800F0EDFA039800F06AFD142000F066
:1052C000E7FA00F063F8FFE740F6CE01C2F2000112
:1052D0000320087057E0FFF7C5FEFBF7B9F9092076
:1052E000009001F007F80120019000F0D1FA009839
:1052F00000F04EFD142000F0CBFA019840F6CE02EB
:10530000C2F200020521117040F6CD01C2F2000187
:10531000087038E0012000F0BBFA40F6CE01C2F27E
:105320000001052008702EE000F0AAFE0A2000F01F
:10533000AFFAFBF78DF9FFF717FE642000F0A8FA2B
:1053400040F6CE01C2F20001002008701BE040F6DA
:10535000CC01C2F2000100200870FFF763FE38B9EB
:10536000FFE740F6CE01C2F2000101200870FFE71E
:1053700009E000F085FE40F6CE01C2F200010120F6
:105380000870FFE7FFE706B080BD000080B584B07D
:1053900040F20040C4F60000019040210291FCF769
:1053A000ADFA0A20039000F073FA01980299FCF715
:1053B0002BFB039800F06CFA04B080BD80B500F0C0
:1053C00051F900F0D7F980BD83B00290ADF8061016
:1053D0004FF6FF70ADF804000020ADF80200FFE7C3
:1053E000BDF80200BDF8061088421DDAFFE7BDF8DF
:1053F00004000299BDF80220895C48408DF8010044
:105400009DF805009DF8012046F27851C0F6000194
:1054100031F812104840ADF80400FFE7BDF8020073
:105420000130ADF80200DBE7BDF8040003B07047BF
:1054300080B584B040F2AC70C2F20000FBF732FBE2
:10544000012801DCFFE773E040F2AC70C2F200001B
:105450000190FBF74DF9014601988DF80A10FBF712
:1054600047F98DF80B00FFE740F2AC70C2F2000084
:10547000FBF718FB012807DBFFE740F2AC70C2F234
:105480000000FBF735F900E000E0EDE79DF80A00C9
:105490009DF80B10884201D0FFE749E09DF80A0013
:1054A0003038014600910F2841D80099DFE801F01B
:1054B0000B0D1D3F2A313F3F3F383F3F3F3F3F08E5
:1054C00000F04CF834E0FFF77BFC40F6CE01C2F26E
:1054D00000010120087040F6F851C2F2000145F2C7
:1054E0007860C1F23420086022E040F6CE01C2F2BA
:1054F00000010120087040F6F851C2F200010020BE
:10550000086015E040F6CE01C2F2000107200870E5
:105510000EE040F6CE01C2F200010420087007E060
:1055200040F6CE01C2F200010120087000E0FFE762
:1055300004B080BD80B582B0019000F0A3F9009066
:10554000FFE700F09FF90099401A0199884201D3C2
:10555000FFE700E0F5E702B080BD00007047000003
:1055600080B584B003900398019001980079F028E9
:1055700001D0FFE759E00198C07840F6E851C2F247
:1055800000010978884209D0FFE70198417940F687
:10559000E820C2F2000000F0D7FC46E001988078D5
:1055A00001380146009107283ED80099DFE801F054
:1055B000040B121B21272C33FFF764F9FEF7AEFF13
:1055C00000F04EFF31E0FFF75DF90A2000F060F9CE
:1055D000FFF7F6FBFFF756F940F6CE01C2F20001E5
:1055E0000720087021E0FFF74DF9012000F03AFC98
:1055F0001BE0FFF747F9092000F0CAFB15E0FFF7B1
:1056000041F9FEF7FFFF10E0FFF73CF900F096FBD1
:10561000FFF7E2F909E0FFF735F940F6CC01C2F2F5
:1056200000010120087000E0FFE704B080BD000029
:1056300080B584B00390039801900198C07840F63B
:10564000E851C2F200010978884209D0FFE70198C9
:10565000417940F6E830C2F2000000F099FCFFE723
:1056600004B080BD80B586B0FFE740F26C20C2F286
:105670000000FBF717FA082879DBFFE740F26C20FF
:10568000C2F2000040F6E821C2F2000102910622B7
:10569000FAF7FEFF0298039003980078AA285ED1DB
:1056A000FFE703984078552859D1FFE740F26C2076
:1056B000C2F20000FBF7F6F98DF817009DF817000D
:1056C00003994979884248DBFFE700208DF81600EE
:1056D000FFE79DF8160003994979884214DAFFE73D
:1056E00040F26C20C2F20000FBF702F89DF8162091
:1056F00040F6E821C2F200018854FFE79DF8160049
:1057000001308DF81600E4E703984079023881B241
:1057100040F6E820C2F200000190FFF755FE019923
:10572000ADF8100003984079014411F8020C11F80B
:10573000011C40EA0120ADF81200BDF81000BDF8D0
:105740001210884207D1FFE740F6E820C2F20000BD
:10575000FFF706FF00E0FFE700E009E006E040F2A7
:105760006C20C2F20000FAF7C3FFFFE77DE7FFE716
:1057700006B080BD80B586B0FFE740F28C20C2F253
:105780000000FBF78FF9082878DBFFE740F28C2058
:10579000C2F2000040F6E831C2F200010291062296
:1057A000FAF776FF0298039003980078AA285DD153
:1057B000FFE703984078552858D1FFE740F28C2046
:1057C000C2F20000FBF76EF98DF817009DF8170084
:1057D00003994979884247DBFFE700208DF81600DE
:1057E000FFE79DF8160003994979884214DAFFE72C
:1057F00040F28C20C2F20000FAF77AFF9DF81620E2
:1058000040F6E831C2F200018854FFE79DF8160027
:1058100001308DF81600E4E703984079023881B230
:1058200040F6E830C2F200000190FFF7CDFD01998B
:10583000ADF8100003984079014411F8020C11F8FA
:10584000011C40EA0120ADF81200BDF81000BDF8BF
:105850001210884207D1FFE740F6E830C2F200009C
:10586000FFF7E6FEFFE700E009E006E040F28C20EB
:10587000C2F20000FAF73CFFFFE77EE7FFE706B061
:1058800080BD000040F65C60C2F200000068704716
:1058900080B584B00390039840F28B21884204D3F2
:1058A000FFE740F28A200390FFE703984FF6FF726C
:1058B000642100FB1120029042F60040C4F2010076
:1058C0000190FCF751FC0198FCF73CFC019802990F
:1058D000FCF774FD0198FCF75BFCFFE742F6004023
:1058E000C4F20100FCF74AFD38B1FFE742F6004080
:1058F000C4F20100FCF726FC0EE040F20000C2F208
:105900000000007838B9FFE740F6CE01C2F200018E
:105910000920087000E0E1E704B080BD80B58CB0DC
:1059200040F2DC02C2F200020020C4F20200059044
:1059300000210191FBF788FE059840F22C12C2F27B
:10594000000201210291FBF77FFE059840F27C12D4
:10595000C2F2000202210391FBF776FE059840F2A5
:10596000CC12C2F2000203210491FBF76DFE0598F0
:1059700040F21C22C2F2000204210691FBF764FEF1
:1059800001994FF0A0400790FBF7E6FA0199024613
:105990000598FBF7B3FE019940F20010C5F2000034
:1059A0000890FBF7D9FA029902460598FBF7A6FE84
:1059B000019940F20040C5F200000990FBF7CCFAD3
:1059C000039902460598FBF799FE019940F20050B1
:1059D000C5F200000A90FBF7BFFA04990246059849
:1059E000FBF78CFE019940F20060C5F200000B90BD
:1059F000FBF7B2FA069902460598FBF77FFE01997C
:105A0000059828220092FBF7E9FD009A0299059873
:105A1000FBF7E4FD009A03990598FBF7DFFD009A78
:105A200004990598FBF7DAFD009A05980699FBF7AB
:105A3000D5FD02990798FBF78BFB02990898FBF7B5
:105A400087FB02990998FBF783FB02990A98FBF7F9
:105A50007FFB02990B98FBF77BFB01990598FBF7FD
:105A600093FD02990598FBF78FFD03990598FBF7C5
:105A70008BFD04990598FBF787FD05980699FBF7C0
:105A800083FD0798FBF7B0FA0898FBF7ADFA099881
:105A9000FBF7AAFA0A98FBF7A7FA0B98FBF7A4FA08
:105AA0000CB080BD80B582B040F6BC00C2F20000F0
:105AB00040F2BC71C2F200014FF480720192FBF718
:105AC000C7F9019A40F2AC70C2F2000040F2AC613A
:105AD000C2F20001FBF7BCF9019A40F29C20C2F22D
